:020000040800F2
:1000000000000110B5D10608E91F0008E100020850
:1000100055D2060855D2060855D206080000000041
:10002000000000000000000000000000BD3A0008D1
:10003000C13A000800000000C53A0008F5E60008D3
:1000400055D2060855D2060855D2060855D20608DC
:1000500055D2060855D20608ED9D0008F19D00080E
:1000600055D20608F59D0008F99D0008792700087B
:100070008D270008A1270008B5270008C927000818
:10008000DD270008F127000855D2060855D20608DA
:1000900055D2060855D2060855D20608FD9D00081F
:1000A000252600084D2600087526000811260008A0
:1000B0009D260008B1260008C526000855D206086E
:1000C00055D2060855D2060855D2060855D206085C
:1000D00055D20608512100085D2100086921000859
:1000E000019E000855D20608C93A000801270008F9
:1000F0002927000851270008ED26000805280008D8
:1001000055D2060855D20608D926000855D2060849
:10011000752100088121000855D2060855D206082D
:10012000192800082D280008412800085528000833
:100130006928000855D2060855D2060855D2060887
:1001400055D2060855D2060855D206081D3B0008B0
:100150007D28000891280008A528000855D2060827
:1001600055D2060855D2060855D2060855D20608BB
:1001700055D2060855D2060855D2060855D20608AB
:0801800055D2060855D206080D
:10019000D0E907239A422FBFD01AC0688018C01A2E
:1001A000704700BFD0E9092300699A4238BF12188E
:1001B000D31A0138C01A7047D0E90902101AB0FAF0
:1001C00080F04009704700BF0246036A4069D16869
:1001D000C05C01338B4228BF00231362704700BF0D
:1001E000436A8269D154436A0169426B01338B428D
:1001F00028BF00234362D36843F08003D360704775
:10020000436B188810F0100002D01A889B880120D8
:10021000704700BF436B99891A88890610B5044658
:100220000AD592B2900607D5E26A002A29D09888AA
:10023000216B80B29047636B99891A88090692B244
:100240000FD510060DD5D4E909128A4214D0A16940
:100250002069895C99800132B2FBF0F100FB112228
:10026000A262998A1A88C90592B204D5D20744BFFE
:100270004FF6F7721A8010BDDA6822F08002DA6059
:10028000EFE79B88E2696169DBB28B54E269E16860
:10029000636B0132B2FBF1F001FB1022E261CBE7AC
:1002A000036942681F2B10B40AD95468A3F1200CCB
:1002B000202101FA0CF1214207D15DF8044B70476F
:1002C0001468202199402142F7D081690024C86830
:1002D0000C7480684C68016821F00101016020689D
:1002E00094F805C00C4C818934F81C4089B221EA8D
:1002F00004011F2B818107D9A3F1200120238B400A
:100300005DF8044BD3607047202101FA03F35DF8D8
:10031000044B9360704700BF202A070882B009226F
:10032000274B8DF80720DA68D00319D4DA68D10694
:1003300040D4DA68D20541D4DA6812F0E00F3BD13C
:10034000DB6813F0020F14BF082309238DF8073070
:100350009DF80730012B0AD09DF8070002B07047C6
:1003600001238DF807309DF80730012BF4D1144A92
:1003700012E0D368DB0519D4D36813F0E00F17D16E
:10038000D36813F0020F14BF082309238DF8073038
:100390009DF80730012BDFD1D168C8034FF001036E
:1003A000F4D4D368D906E4D50623EFE70223EDE7BA
:1003B0000723EBE70623D4E70723D2E70223D0E79E
:1003C000003C0240704700BF704700BF01207047EB
:1003D000044BD3E90003984288BF03F50063181A61
:1003E000704700BF581D0020054AD2E900318B42FA
:1003F000FDD0D1180133C3F30A03087A13607047A4
:10040000581D0020064BD3F8080800B97047D3F8F0
:100410000808A0F10500B0FA80F04009704700BF5D
:10042000581D0020012380F849307047064BD3F84F
:100430000C08D3F81028431E90428CBF00200120E6
:100440009B1A03EBC0207047581D002010B5D0F850
:10045000E83504461B699847032384F812310020CD
:1004600010BD00BF08B5042290F81211D0F8E8358D
:1004700080F8131180F81221DB689847002008BD2E
:1004800008B5D0F8E435DB6903B19847002008BD12
:1004900008B5D0F8E4351B6A9847002008BD00BFB6
:1004A00008B5D0F8E4355B6A9847002008BD00BF66
:1004B000037830B403B30446C0F1010C04EB0C0321
:1004C00014F8015FDBB2002DF8D101335B00DCB220
:1004D000138003230C704B7004785CB10223002559
:1004E0005A1CD2B2CC548D5410F8014F0233DBB2F7
:1004F000002CF5D130BC704702242346E8E700BF4A
:1005000010B5074C2068FF2808D00649D1F81428F8
:1005100001F6180100F080F8FF232360002010BDD1
:1005200000000020581D0020432301480B80704725
:1005300004000020122301480B807047480000206F
:10054000042301480B8070475C00002008B5044B71
:1005500004480A461946FFF7ABFF084608BD00BF2E
:1005600078250020F0C7070808B5044B04480A4660
:100570001946FFF79DFF084608BD00BF78250020FB
:1005800000C8070808B5044B04480A461946FFF797
:100590008FFF084608BD00BF7825002008C807085F
:1005A00008B5044B04480A461946FFF781FF084680
:1005B00008BD00BF7825002014C8070808B5044B03
:1005C00004480A461946FFF773FF084608BD00BFF6
:1005D0007825002020C80708704700BF704700BF7B
:1005E000704700BF704700BF704700BF704700BF33
:1005F000044B00200522C3F80828C3F82009C3F8DB
:1006000024097047581D0020024B0020C3F8080839
:10061000704700BF581D0020212838B50C4605D072
:1006200022282DD0202813D0002038BD0029FBD04F
:10063000072AF9D1194BD3F8280993F82C1993F804
:100640002D2993F82E39206021716271A371EBE797
:100650000029E9D0072AE7D1104DD5F8243913B184
:10066000096800209847206821796279A379C5F844
:10067000280985F82C1985F82D2985F82E39D3E716
:100680000029D1D0022ACFD1044BD3F82039002B36
:10069000CAD0098800209847C6E700BF581D00202F
:1006A00010B4144CD4E900239A4286BF03F5006CC1
:1006B000ACEB02029A1A0A44B2F5006F13D8B1B13A
:1006C00001444A1E013810F801CFE118824203F1BB
:1006D000010381F808C0C3F30A03F4D1636000206A
:1006E0005DF8044B704702205DF8044B70470846E4
:1006F000F6E700BF581D002010B5812104466AF0BE
:100700000FFF204601216AF00BFF204682216AF08C
:1007100007FFFFF779FF002010BD00BFC169026924
:1007200010B4002340F20114A0F844410B60D169D9
:10073000846D21F002014FF0010CD161A0F89CC33F
:100740002360D169044821F4003180F82F395DF825
:10075000044BD16118467047581D002020230148E2
:100760000B80704760000020122301480B80704707
:1007700080000020042301480B8070479400002073
:100780000A4608B5054920B90548FFF791FE034818
:1007900008BD0448FFF78CFE004808BD88260020ED
:1007A00030C8070848C8070808B5044B04480A467B
:1007B0001946FFF77DFE084608BD00BF88260020C9
:1007C00060C807082048D0F8E837D0F8EC2730B5E3
:1007D0009B184FF01A040C8001D11C4830BD1B4AF5
:1007E000D0F8EA174FF0000E10467546B3F1204FCF
:1007F0004FEA137C0CF130040EF1020E2ABF0CF10B
:10080000370C847080F802C0BEF1100FC5704FEA3B
:10081000031300F10200E9D100200446B1F1204F9A
:100820004FEA117303F1300C00F102002ABF373395
:1008300082F812C093740828D4744FEA011102F1AF
:100840000202EBD1014830BD00F0FF1F98000020EC
:1008500008B5044B04480A461946FFF729FE084626
:1008600008BD00BF8826002074C8070808B5044BDF
:1008700004480A461946FFF71BFE084608BD00BF9C
:100880008826002080C80708034BD3F84C2CB3F807
:10089000503C138300207047581D00204FF4007017
:1008A000034B1060D3F8883C0B600020704700BFFA
:1008B000581D00200020704701207047012070471C
:1008C0000020704710B51C6994420DD396468A18D3
:1008D0008C469442996938BFA4EB0E0C7144624671
:1008E000BDE8104071F0C6BD10BD00BF2DE9F0415C
:1008F000204E96F8B83C002BFBD1B9B3014400F16F
:10090000FF384F1ED6F81018D6F80C3818F8010F1B
:100910004A1CC2F30A029A4234BF002401249B1AE3
:10092000314403EBC423012B81F8BC0CC6F810281A
:100930001AD10DF02BFF04460D460DF027FF031BC7
:1009400061EB0501B3F57A7F71F10003F5D3D6F8B9
:100950000C38D6F8102893428CBF002101219B1A35
:1009600003EBC123012BE4D0B845CBD10020BDE877
:10097000F08100BF581D00200A4B10B5D3F808487D
:1009800004B910BDD3F80838052BFAD1064C002A5B
:100990000846D4F8C4331146F3DDFFF7A7FFD4F8B7
:1009A000C43310BD581D0020502E002090F8482060
:1009B000531C0244DBB280F8483082F8341090F8BF
:1009C00049200AB1132B03D9002280F8482003B92B
:1009D00070470A4AD2F808180029F9D0D2F8082836
:1009E000052AF5D110B5064C19463430D4F8C43375
:1009F000FFF77CFFD4F8C43310BD00BF581D0020A2
:100A0000502E002090F848100023A0F8483001B97B
:100A10007047094BD3F80828002AF9D0D3F80838D2
:100A2000052BF5D110B5054C3430D4F8C433FFF79D
:100A30005DFFD4F8C43310BD581D0020502E002097
:100A40002DE9F0475D4E1F4606EB80039C68002CA5
:100A500000F0AD8004F13E03A36104F59F73E361F0
:100A60004FF48073C4E90433283623686660054672
:100A7000E16094F83D00A363904609F0F7F98146E0
:100A800094F8440294F83CA0261D00284FD194F815
:100A9000450268BBD4F8403283BB390734D418F020
:100AA000020F60D118F0010F44D194F9472294F855
:100AB0004712D4F84832002A10DB41481B01841841
:100AC000DBB284F800335209012301F01F0103FA5D
:100AD00001F140F822103046BDE8F087394A01F0B4
:100AE0000F010A441B01DBB213763046BDE8F087E4
:100AF00068F016FDD4F84032002BCED0324A116B8C
:100B00000B4339071363CAD50135EDB2B9F1000FB4
:100B1000CBD040F20673FA0689F80850A9F80630DF
:100B200036D4BB0694F8462245D4322133E068F02F
:100B3000F7FCACE7504609F099F90135EDB2002811
:100B4000B3D040F206620572C28094F846220221B8
:100B50000BF020F994F9472294F84712D4F8483260
:100B6000002AAADABAE76B1CDBB2B9F1000F99D000
:100B700089F8083040F20653A9F8063094F8462266
:100B8000484602210BF006F918F0010F8DD0D1E78D
:100B900094F84622022148460BF0FCF894F94722CB
:100BA00094F84712D4F84832002A86DA96E72646A7
:100BB0003046BDE8F0871221EDE700BF202A070884
:100BC00000E100E0FCEC00E0003802402DE9F047D5
:100BD000038A8489A4B21C4082B045D081468846ED
:100BE0004FF0004501F14C0701F13406B4FA84F3EB
:100BF00025FA03F2D24391B2A9F8101014401B3B1E
:100C0000B8F1000F5DD0042B2CD8DFE803F050467C
:100C10003B300300D8F80C30D9F82CA033B19B68D6
:100C200023B11FFA8AF108F104009847D8F824305C
:100C300033B19B6823B11FFA8AF108F11C00984771
:100C4000D8F83C302BB19B681BB11FFA8AF13046B3
:100C50009847D8F854302BB19B681BB11FFA8AF122
:100C600038469847002CC1D102B0BDE8F087D8F8CB
:100C70000C30D9F834105B6808F104009847002C58
:100C8000B4D1F1E7D8F82430D9F838105B6808F10E
:100C90001C009847002CA9D1E6E7D8F83C30D9F8D9
:100CA0003C105B6830469847002C9FD1DCE7D8F8B1
:100CB0005430D9F840105B6838469847002C95D1DD
:100CC000D2E7042B07D8DFE803F00319140F0A005A
:100CD000D9F840300193019B002C87D1C4E7D9F8A3
:100CE0002C300193019BF7E7D9F834300193019B35
:100CF000F2E7D9F838300193019BEDE7D9F83C30A1
:100D00000193019BE8E700BF38B5284C94F8B82C54
:100D1000012A034603D0022A09D0002038BD244905
:100D2000D1F8C823A2B984F8B82C002038BD00251A
:100D300040F20112C0E95455C0E95655A0F84421CB
:100D400000F5A2716AF0FCFC84F8B85C002038BDA4
:100D5000402AD4F80C0819D9403AC1F8C8234022D7
:100D60008118C4F80C1880B2124940F201140144F1
:100D70000020C3E95411C3E95620A3F844411846A2
:100D800003F5A2716AF0DCFC002038BD4FF00005CD
:100D9000C1F8C85302EB0001C4F80C1808BF0221C7
:100DA00080B208BF84F8B81CDEE700BF581D0020E1
:100DB000502E0020142A002001EB810138B500EBF1
:100DC000C1010E4DB1F88C1304462846FFF768FCAC
:100DD000E378C4F8A85340210022C4E9EC120122B0
:100DE00093422046A4F89C2304F5677108BFC4F819
:100DF000AC536AF0A5FC002038BD00BF1C320020B7
:100E000038B52A4BD3F80C240F2A04D0511CC3F850
:100E10000C14002038BD264A92F8B85C0021C3F8B3
:100E20000C14002DF5D1D2F80C18D2F81048B1F5F9
:100E3000006F30D0A14235D002F6BC4594BF641A91
:100E4000C1F5006415FA81F5402C19D82144C2F887
:100E50000C184FF00001C3F8C8130CBF0223012384
:100E600082F8B83C40F201120023C0E95455C0E9B1
:100E70005643A0F8442100F5A2716AF061FCC8E76E
:100E8000403CC3F8C84340310123C2F80C1882F833
:100E9000B83C4024E6E7C2F80C581CB1294602F6DB
:100EA000BC45D1E7002382F8B83CB2E7502E0020C1
:100EB000581D002038B5224DD5F8183495F830C4A7
:100EC000044623B195F81C345CEA030331D00123B6
:100ED000E06984F8463140F20112A4F84421026826
:100EE0001849002AA8BFC2F380739B0301EA12418C
:100EF00043F020030B4363F31F42BCF1020F026077
:100F000000D038BDE278104BC4F8A8331F20002170
:100F1000C4E9EC01012A4FF00101A4F89C1308BFB9
:100F2000C4F8AC3304F567712046BDE838406AF078
:100F300007BC012168F0CCF895F830C4C7E700BFC2
:100F4000502E0020DFBFFFFF6032002070B590F808
:100F5000CF2590F8D13590F8CE5590F8D0C590F8BF
:100F6000CC1590F8CD6505EB02250CEB032C90F821
:100F7000D32590F8D23503EB0223012284B080F808
:100F8000112101F01F029BB2ADB21FFA8CFC012AA5
:100F900004468DF80810ADF80A50ADF80CC0ADF855
:100FA0000E30C0F840318DF809600AD0022A57D0BF
:100FB000002A3CD001F0800168F08AF8002004B0DB
:100FC00070BD90F81231032B2BD15FFA8CFCBCF171
:100FD000010F26D8D0F8E43502A99B689847BDF8E0
:100FE0000E30002BEAD1C4E94A33C4E94C33042162
:100FF0004FF4807284F81111A4F81C2104F58E714D
:1010000020466AF02FFB636DC44A1A61E278012A18
:10101000D4D104F2CC545C614FF0802219681A607C
:10102000CCE7204668F01CF8002004B070BD092E03
:10103000F7D801A252F826F0E3100008F3110008D7
:10104000231000082D120008231000085B1200086E
:10105000071100082310000871110008A1110008F1
:1010600001F0600120295FFA8CF334D0012E00F0EA
:101070006181032E00F09581002E9FD190F81221FE
:10108000022A00F01B81032ACBD11CF0800F40F014
:10109000A48103EB830300EBC30393F87633002BA7
:1010A00000F0A6819E4B0122C3F840249D4A0223F2
:1010B000C4E94E334FF48070002184F81131A4F854
:1010C0001C01C4E94C31C4E94A2204F58E71204662
:1010D0006AF0C8FA72E7D0F8E43502A99B6898472D
:1010E0006CE790F81231023B012B9AD88C4BD0F868
:1010F00018210021C3F8381412B10222C3F8382491
:10110000894A0223D4E72E0A022EADF8063000F0F9
:10111000CD81032E00F09181012E82D1D0F8EC35E3
:1011200080781B680DF106019847BDF80630002B4A
:101130003FF444AFBDF80E20002A3FF43FAF934286
:1011400028BF13464FF480720221A4F81C2100220C
:10115000C4E94A0084F81111C4E94E33C4E94C32A1
:1011600004F58E712046ADF806306AF07BFA25E76B
:10117000012B7FF456AF90F81221022A00F049812A
:10118000032A7FF44EAF4FF4807100F5887202207D
:10119000A4F81C11C4E94E3384F81101002190E732
:1011A000EDB25F4E012D86F831543FF63AAF90F81C
:1011B0001231022B00F02181032B7FF432AF002D7E
:1011C00000F07F8190F81011012910D0D0F8E4359B
:1011D0005B68984796F83114D4F8E43584F8101118
:1011E0001B6820469847D4F8E8359B689847002349
:1011F000F9E690F81231023B012B3FF612AF012DB8
:101200007FF4DCAED0F8E43500259B68C0F81851B7
:1012100002A9984704224FF48073C4E94A55C4E9EF
:101220004C5584F81121A4F81C31E7E6012D00F09B
:10123000CC80022D7FF4C2AE5FFA8CF3002B7FF4DA
:10124000BDAE02694FEA1C23023B5268032B00F239
:101250005681DFE803F05B426B5F5CEA03037FF4D7
:10126000E0AE90F81221032A3FF4DBAE016905F0ED
:101270007F0680F8146108681A4665F30A12024373
:101280000A604FF480720421C4E94A33C4E94C3344
:1012900084F81111A4F81C2104F58E7120466AF01F
:1012A000E1F9636D1D4A1A61E278012A0DD0002E22
:1012B00000F01281022384F812317FE65A063FF4CF
:1012C0007DAE194667F004FF78E604F2CC525A610D
:1012D0004FF0802219681A60E9E7032363F30612CE
:1012E00001210F4D84F816110421002384F81111F7
:1012F0004FF48071A4F81C11C4E94A33C4E94C339B
:1013000004F58E712046C5F83C247AE6022363F387
:101310000612E5E7052363F30612E1E7180008600B
:10132000502E00209032002088320020042363F3E6
:101330000612D5E790F81221022ABFD0032A7FF4C3
:1013400070AE002D7FF43AAE13F07F023FF44FAF42
:101350001CF0800F40F0C48003EB830100EBC1015F
:1013600081F8742381F8765381F87553282101FBA5
:10137000030300EB820293F87713506D03688A1E13
:10138000012A6FF35553D4F8E4258CBFC3F30071E1
:10139000012161F31C739268036002A92046904703
:1013A00025E790F81221022A88D0032A7FF439AE6B
:1013B00025B9590602D0194667F08AFED4F8E435FB
:1013C00002A99B682046984711E7D0F8E43502A9A6
:1013D0009B68C0F81851984709E703F07F0303EBB7
:1013E000830300EBC30393F81E31002B7FF45AAE46
:1013F000454B0022C3F8402458E6002D3FF40AAFC5
:1014000001210322D0F8E43580F8101180F8122170
:10141000E6E63E4984F811214FF480700022C4E9C9
:101420004A11A4F81C01C4E94E33C4E94C3204F556
:101430008E7120466AF016F9C0E5EDB2052D3FF633
:10144000F0ADDFE805F02B231B130B03D0F8EC35D0
:1014500080789B690DF10601984766E6D0F8EC3577
:1014600080785B690DF1060198475EE6D0F8EC35AF
:1014700080781B690DF10601984756E6D0F8EC35E7
:101480008078DB680DF1060198474EE6D0F8EC3520
:1014900080789B680DF10601984746E6D0F8EC3558
:1014A00080785B680DF1060198473EE6D0F8E43598
:1014B00080789B6A0DF1060198474670C4F8F005E4
:1014C00033E60222D0F8E43580F8122180F810517A
:1014D0005B68294698479DE6012384F812316DE543
:1014E000282303FB020181F81C2100EB820281F812
:1014F0001E5181F81D61906991F81F113EE701238B
:1015000063F30612ECE600BF502E00208432002068
:1015100010B5044629B990F81121032A0DD00020F6
:1015200010BDD0F8E4359B69002BF8D090F812215B
:10153000032AF4D19847002010BDD0F890230B4621
:10154000D0F87C138A4213D9C078521A0128C4F803
:10155000902336D08A4228BF0A4692B2C4E9E223D9
:1015600004F55D71A4F8743320466AF07BF8D6E781
:10157000D0F8E4351B691BB190F81221032A1ED064
:1015800000234FF480720421C4E94A33C4E94C3388
:1015900084F81111A4F81C2104F58E7120466AF01C
:1015A00061F8636D104A1A61E278012AB7D104F23A
:1015B000CC545C614FF0802219681A60AFE79847FD
:1015C000DEE78A42D4F88003A4F8743328BF0A46C1
:1015D000084492B2C4E9E22304F55D71C4F88003C3
:1015E000C4F88403C0E700BF1800086038B504469B
:1015F00049B990F81131022B11D094F81631012B12
:1016000040D0002038BDD0F8E4355B69002BF8D01D
:1016100090F81221032AF4D19847002038BDD0F861
:101620003831D0F82421934236D9C178012908BF36
:10163000D0F82811A3EB020318BFD0F82821C0F876
:10164000383108BF52189BB24FF480710025C0E9B1
:101650004C35A0F81C11C0E94A2200F58E716AF0E1
:1016600001F8E378C4F88053012BC4E9E255A4F8EB
:10167000745308BFC4F8845304F55D71204669F0C3
:10168000F1FFBAE72A4B2269D3F83C1451600023DA
:1016900084F81631002038BDD0F83C31B3FBF2F5A8
:1016A00002FB1535ADB99A4213D8D0F840219342C8
:1016B0000FD24FF48073A0F81C31C0E94A55C0E93D
:1016C0004C5500F58E7169F0CDFFE378C4F84051B8
:1016D000C8E7D4F8E435DB681BB194F81221032A7B
:1016E00023D0E2780023012A4FF0050108BFC4F897
:1016F0008433C4E9E23384F81111C4F88033A4F8C8
:10170000743304F55D71204669F0ACFF636D094ADE
:101710001A61E278012A7FF470AF04F2CC525A6168
:101720004FF0802219681A6067E720469847D8E78B
:10173000502E002018000860F8B50B7813F06006F2
:101740000D46044620D0202E25D1CE884EB31B0650
:1017500049D5384F687832463946FEF75DFFEB8849
:101760000222002684F811214FF48072C4E94E331E
:10177000C4E94A77C4E94C36A4F81C2104F58E71FB
:10178000204669F06FFF0AE04B780A2B17D00B2B2D
:101790000ED0062B03D1204667F062FC02263046AD
:1017A000F8BD022248781144FEF736FF3046F8BDF6
:1017B0008B78002B3AD1204BC3F84464EFE7022228
:1017C00080F811214FF48072A0F81C211B4A0123DC
:1017D000C0E94E33C0E94A22C0E94C3600F58E71AB
:1017E00069F040FFDBE7164B164A4978116003F6B3
:1017F00018020321C0E9E46680F81111C0F888637B
:10180000C0F88023C078C3F8146801284FF00003A3
:10181000C4F88C33A4F8743304F55D7108BFC4F8C0
:101820008423204669F01EFF0026B8E767F018FC05
:10183000B5E700BF70250020502E00209432002014
:10184000581D002000000020002310B51946044652
:10185000402269F097FE802120460023402269F053
:1018600091FED4F8E835A078012284F812215B6853
:101870009847002010BD00BF10B502230446402247
:10188000812169F07FFE204602234022012169F078
:1018900079FE204603230822822169F073FE0E4B55
:1018A0000222A3F84C20FEF7A3FEE2780B4BC4F80B
:1018B000A83340200021C4E9EC01012A4FF00101C6
:1018C000A4F89C13204604F5677108BFC4F8AC3334
:1018D00069F036FF002010BD000000201C320020FF
:1018E00070B5812182B00446314E69F019FE0121A4
:1018F000204669F015FE0025022340228121204662
:1019000086F82F5969F03EFE01210223402220462D
:1019100069F038FE274B86F82F59D3F8482483F80E
:1019200030541268284690470095009BE16843F0C8
:1019300010030093009B0B610A691F4B009203E0A8
:101940000A690092013B02D0009AD006F8D4002325
:101950000193019B43F020030193019A164B012050
:1019600060F38A120192019A0A610A69019203E006
:101970000A690192013B02D0019A9206F8D4E278FA
:101980000E4BC4F8A83300211F20C4E9EC01012A42
:101990004FF00101A4F89C1304F5677105D02046AF
:1019A00069F0CEFE002002B070BDC4F8AC33F6E79B
:1019B000581D0020502E0020400D030060320020F2
:1019C0002DE9F047089F884615460021202204464D
:1019D0001E4670F088FF4FB13B68E3811B0C2382E9
:1019E0007B687A89E3821B0C6282238340466AF01B
:1019F00009FCEB0619D4431EB8B108EB000701E05F
:101A0000013B12D317F801CDBCF12E0FF8D1C01A4B
:101A1000421E032AA8BF0322082B03F1010AA8BF14
:101A200008239146C2441A4606E008280246C246E8
:101A3000A8BF08224FF000094FF020334146236031
:101A4000636004F10807204670F014FD174B2381F2
:101A50005146BB704A46384670F00CFD611EE31DCE
:101A600011F801CFACF1610EBEF1190F9CBFACF1C2
:101A7000200C81F800C08B42F2D1384604F10B01F2
:101A800010F8013BA3F16102192A9CBF203B00F82A
:101A9000013C8842F4D118232373330CA382E572EE
:101AA000099B6683E361BDE8F08700BF202020002A
:101AB0002DE9F04FDFF89494D9F84C0CB9F8504C5C
:101AC000448387B0002B00F0DE8001F5FE781344DC
:101AD000DFF87CB40393164601F12007C24621E0EB
:101AE000002E64D0D9F8943CB34200F0D180D9F8EC
:101AF000903CB34200F00481D9F8983CD9F89C1C82
:101B0000B3424BD8B14200F29E81711A204667F071
:101B100055FA039B01369E4207F500770AF5007AD5
:101B200000F0AD80D9F8A05CB542A7F12004D7D869
:101B3000751BD9F8B08C05F00702EB080492D8F8B1
:101B400030200233934203D3D8F8382093420BD984
:101B500041461846059367F001FA059B8046002828
:101B600000F09181C9F8B00C98F80420002A40F0E8
:101B70003981D8F82850002D00F07E81D8F8302027
:101B80009B1A049A02EBC303D8F80C20204602EB00
:101B900043224FF400714346A847BAE7B142B4D993
:101BA00020464FF40072002170F09DFEB1E74FF423
:101BB00000723146204670F096FE802387F89E31F1
:101BC0000C2387F8A231D9F8903CD74AD9F8881C61
:101BD000C4F8C6319342C4F8CA1100F33981D34A1C
:101BE000D34C82FB03021A44D817C0EB621284FB69
:101BF0000254D04D85FB03C5C0EB2530C2EB8215E6
:101C000087F8A1015B1B801020F03F0001330343E4
:101C1000144487F8A031D317C3EBE4142244C24B19
:101C200087F89F214A1E9A4200F31E81BF4BC0488D
:101C300083FB02311144D317C3EB611180FB0140D8
:101C4000BC4C84FB0254C3EB2433C1EB811487F8F2
:101C5000A531121B9B1023F03F03013213430844AC
:101C600087F8A431CB17C3EBE010014487F8A31128
:101C7000552387F8DE31AA2387F8DF3149E7D9F801
:101C80004C0CB9F8504C0483002007B0BDE8F08F2D
:101C90004FF0FF3384F8EC3184F8ED3184F8EE3105
:101CA00084F8EF31D9F8A83CC4F8E8315223237006
:101CB00063706123A37084F8E73141230025E3704A
:101CC00084F8E631722384F8E43184F8E5314FF486
:101CD000F0722946A7F11C0070F005FE5523C7F8E5
:101CE000D051C7F8D451C7F8D85184F8FE316FF0FD
:101CF000550384F8FC5184F8FD5184F8FF3108E75E
:101D000000214FF40072204670F0EDFD8A4A03CAAC
:101D100047F81D0CEB2007F8200C582007F81F0C83
:101D2000902047F8191C07F81E0C002302220821F6
:101D3000F820E372227307F8131CA273E37307F809
:101D4000102C07F80B0CD9F8900C84F82C20D9F83B
:101D5000882C6376121A2262D9F8980CD9F89C2C38
:101D6000E376121A3F2020764FF0FF30A0763E2017
:101D7000207701206377A377E37784F82D3084F808
:101D80002E3084F82F30626284F8300084F83130CD
:101D900087F82610802187F82010292187F8221043
:101DA000942187F823100E2187F824100D21634A0F
:101DB00087F82510552187F8DE11AA2187F8DF1151
:101DC00003CA5F4BC7F82700C7F82B1003CB138853
:101DD000A7F82F309378C7F83200C7F8361087F885
:101DE000313096E64FF400720021204670F07BFD02
:101DF000049B002B4ED1D8F84030002B00F0AA8075
:101E0000049AD8F830304F49CDE9002220461122FB
:101E1000FFF7D6FDD8F840301A6C002A00F0AD80EC
:101E2000049A1B6BCDE90022474911223846FFF77F
:101E3000C7FDD8F8448007F120044FF4E075B8F1ED
:101E4000000F3FD165E6F11A204667F0B7F860E66B
:101E5000FF2387F89F3187F8A13187F8A031324BF3
:101E60004A1E9A427FF7E2AEFF2387F8A33187F834
:101E7000A53187F8A431FBE6294620464FF40072CD
:101E800070F031FD45E6A7F1240343F804BF9A45FD
:101E9000FBD13EE6D8F84030049AD8F84480002BB5
:101EA0000CBF01230223C3EB02154346002B3FF472
:101EB00030AE013D9B6CF9D198464FF40075002B74
:101EC0003FF427AE2544203423462035444604966B
:101ED00098460EE05CF81C1B236BCDF800C0002672
:101EE0000196FFF76DFDA46C08F12008CCB14545C3
:101EF00017D02379A44604F11C0E1122A8F120006A
:101F0000002BE7D162792669236B216842F0210218
:101F1000CDE900E6FFF754FDA46C08F12008002C81
:101F2000E5D1049EF5E500BFFF03FB008320088296
:101F3000818080809755454190C807089CC8070854
:101F4000A8C8070828CD070874CD0708581D002029
:101F5000DEADBEEF049BD9F88C1CCDE900332046E2
:101F60000822FFF72DFDD8F84480B8F1000F3FF4A8
:101F7000D0AD3C464FF4F075A4E7049BCDE90033A7
:101F800052E700BF8C46134601466246184644F0AD
:101F9000EBBB00BF1049114BD1F8882042F470020E
:101FA00010B4C1F888201A680D4C002042F00102DC
:101FB0001A6098601A6822F0847222F480321A60E3
:101FC0005C601A68074C22F480221A60D8608C602A
:101FD0005DF8044B704700BF00ED00E000380240A0
:101FE0001030002400000008704700BF2DE9F843BE
:101FF00046697EB9D0F80080C8F30D0904460F4643
:10200000B9F1000F26D03F68FEF788F9092804D0FF
:102010006FF001063046BDE8F8834A4D2B6923F482
:1020200040732B612B6943F400732B612B6943F0E0
:1020300001032B61C8F80070FEF770F92B690928BD
:1020400023F001032B61E3D123680433236030467E
:10205000BDE8F8833C4B98452AD303F58043984567
:1020600024D303F58043984554D3384B984554D92D
:1020700003F58033984553D903F50033984552D979
:1020800003F50033984551D903F5003398453ED9FF
:1020900003F5003398454CD903F5802398454BD977
:1020A000B8F1016F4BD305200CF01CFC4FF0080970
:1020B000FEF734F9092804D04FF0FF363046BDE86A
:1020C000F883204D2B6923F440732B612B6943F473
:1020D00000732B612B6923F0F8032B612B6943EA12
:1020E000090343F002032B612B6943F480332B6116
:1020F000FEF714F92B6923F002032B612B690928E1
:1021000023F0F8032B61D7D1D4F800807BE74FF0A0
:102110003809CDE74FF01009CAE74FF01809C7E7B3
:102120004FF02009C4E74FF02809C1E74FF030090C
:10213000BEE74FF04009BBE74FF04809B8E74FF062
:102140005809B5E7003C024000400008FFFF0008C6
:102150000148FEF75FB800BFB80000200148FEF755
:1021600059B800BF040300200148FEF753B800BF70
:10217000500500200148FEF74DB800BF9C07002025
:102180000148FEF747B800BFE8090020704700BFCC
:10219000F0B5254B0268254983B00646002401E0CE
:1021A00051F834309A4209D001340E2CF8D1002174
:1021B0001F4A052004F052FE002113E01D4F07EBDB
:1021C0008407D7F84C5485B1717901EB410305EBD5
:1021D000C30300221820C3E9032200FB01559E60BF
:1021E0001A75291D084603B0F0BD0721642004F0CC
:1021F00015FF0146C7F84C0470B12946642270F0FF
:1022000072FB0A4BD7F84C5403EBC404C5E90045F4
:10221000ED616D63ED64D7E70190074A052004F096
:102220001DFE0199DEE700BF00000140782A070883
:10223000B4C80708502E0020DCC80708704700BF4C
:1022400038B5D0E9004307EE902A1B68354A20686C
:102250000139934204688DB216D002F58062934230
:1022600012D002F5705293420ED002F58062934272
:102270000AD002F58062934206D02B4BD3F8303C53
:102280005B0807EE103A04E0274B03F5436393ED38
:10229000007ADFED266AB8EE477AF8EE677A87EEC5
:1022A000270A30EE260A6DF0EDF91E4A2388013820
:1022B000944280B29BB212D002F5806294420ED05A
:1022C000B4F1804F0BD0A2F58032944207D002F5D2
:1022D0008062944203D002F58062944202D123F0DE
:1022E00070039BB2124A944212D002F5806294426B
:1022F0000ED023F4407302F56C429BB294422380CB
:10230000E56220850AD1002323860123A38238BDFC
:102310002380E56220850123A38238BD054B9C42C2
:10232000F1D0F8E700000140000000200AD7233C6C
:10233000001000400004014070B54068837903F04C
:10234000020213F0040300F0C9804FF0000E1346A0
:1023500004247246754690F805C0BCF1030F30D8CE
:10236000DFE80CF08E5F30020368188C20F4805098
:102370000004000C1884188C9C8820F40050000481
:102380002A43000C40EA0232988B6C4D20F4E64060
:102390000004000CAB42A4B240F4C04000F0B08096
:1023A00005F58065AB4200F0AB809C809883196492
:1023B0001A849A8B22F400621204120C42F4006216
:1023C0009A8370BD2A4305685C4E288C20F4807087
:1023D0000004000C2884288CB5F804C020F4007098
:1023E0000004000C40EA0222A88B20F073000004D5
:1023F000000CB5421FFA8CFC40F0600073D006F56B
:102400008066B5426FD0A5F804C0A883E9632A842A
:10241000AB8B23F008031B041B0C43F00803AB83B6
:1024200070BD2A430568454E288C20F0100000043A
:10243000000C2884288CB5F804C020F0200000048B
:10244000000C40EA0212288B20F4E6400004000C45
:10245000B5421FFA8CFC40F4C04061D006F580669E
:10246000B5425DD0A5F804C02883A9632A842B8BCC
:1024700023F400631B041B0C43F400632B8370BD27
:1024800000682E4E2A43058C25F001052D042D0CE5
:102490000584058CB0F804C025F002052D042D0C30
:1024A0002A43058B25F073052D042D0CB0421FFA2D
:1024B0008CFC45F0600528D006F58066B04224D03B
:1024C000A0F804C0058341630284038B23F0080352
:1024D0001B041B0C43F00803038370BD4FF4807E84
:1024E0001C46012537E722F4006242EA032222F467
:1024F00080622CF4405C42EA04224CEA0E1C82E723
:1025000024F4804444EA8E144FE74FF6F3761640E5
:102510002CF4407C46EA03024EEA0C0C2243CFE73F
:1025200022F0800242EA031222F040022CF4406CB6
:1025300042EA04124CEA8E0C94E700BF000001400E
:1025400070B4EFF31182102383F31288C4684668D5
:10255000A5682B6823F001032B603568114B767951
:1025600033F81660AB899BB223EA0603AB8123697B
:1025700065681F2B11D9203B202404FA03F3EB607C
:10258000D3B283F31188C3689B6859601A68012429
:1025900022431A60047470BC7047202404FA03F3C9
:1025A000AB60EDE7202A070803681A7D012A04BF03
:1025B00002221A7593F82C100CBF4FF400720022FF
:1025C000012904D1022183F82C1042F4806293F88F
:1025D0004410012905D093F85C1001290AD072B982
:1025E0007047022183F8441093F85C10012942F4EB
:1025F000006204D1022183F85C1042F480524168E9
:10260000096800234B628B899BB21A438A81704709
:10261000024B0348D3F84C14FEF7D8BA502E0020D2
:102620000000014010B5064C0648D4F84C14FEF7E3
:10263000CDFAD4F86C140448BDE81040FEF7C6BAD1
:10264000502E0020000001400040014010B5064C13
:102650000648D4F84C14FEF7B9FAD4F870140448BC
:10266000BDE81040FEF7B2BA502E00200000014035
:102670000044014010B5064C0648D4F84C14FEF74F
:10268000A5FAD4F874140448BDE81040FEF79EBAC9
:10269000502E00200000014000480140034B4FF045
:1026A0008040D3F85014FEF791BA00BF502E00209E
:1026B000024B0348D3F85414FEF788BA502E00207A
:1026C00000040040024B0348D3F85814FEF77EBACA
:1026D000502E002000080040024B0348D3F85C1441
:1026E000FEF774BA502E0020000C0040024B034845
:1026F000D3F86814FEF76ABA502E00200004014097
:1027000010B5064C0648D4F86814FEF75FFAD4F802
:1027100078140448BDE81040FEF758BA502E002047
:10272000000401400018004010B5064C0648D4F8DB
:102730006814FEF74BFAD4F87C140448BDE8104046
:10274000FEF744BA502E002000040140001C004057
:1027500010B5064C0648D4F86814FEF737FAD4F8DA
:1027600080140448BDE81040FEF730BA502E002017
:1027700000040140002000400348D0F8403C13B161
:1027800000F6344018477047000000200348D0F896
:10279000603C13B100F65440184770470000002019
:1027A0000348D0F8803C13B100F6744018477047D6
:1027B000000000200348D0F8A03C13B100F694407C
:1027C00018477047000000200348D0F8C03C13B100
:1027D00000F6B44018477047000000200348D0F8C6
:1027E000E03C13B100F6D4401847704700000020C9
:1027F0000348D0F8003D13B100F6F4401847704785
:10280000000000200348D0F8203D13B100F614501A
:1028100018477047000000200348D0F8403D13B12E
:1028200000F6345018477047000000200348D0F8E5
:10283000603D13B100F65450184770470000002067
:102840000348D0F8803D13B100F674501847704724
:10285000000000200348D0F8A03D13B100F69450CA
:1028600018477047000000200348D0F8C03D13B15E
:1028700000F6B45018477047000000200348D0F815
:10288000E03D13B100F6D450184770470000002017
:102890000348D0F8003E13B100F6F45018477047D3
:1028A000000000200348D0F8203E13B100F6146069
:1028B000184770470000002002683649002310B412
:1028C00022F0010221248842026003604360836099
:1028D000C3600361446138D02F4B98422ED02F4BF8
:1028E00098423CD02E4B984240D02E4B984232D04A
:1028F0002D4B984241D02D4B984246D02C4B9842BC
:1029000017D02C4B98423CD02B4B984216D02B4BD7
:10291000984224D02A4B984228D02A4B98421AD069
:10292000294B984229D0294B98422ED0284B9842C7
:1029300008D14FF03D5243F8AC2C03E04FF47462E1
:1029400043F8202C5DF8044B7047224B5DF8044B94
:102950003D229A607047204A43F8642CF2E74FF416
:1029600074125DF8044B43F8382C70474FF07462D2
:102970005DF8044B43F8502C7047184A43F87C2C00
:10298000E0E73D2243F8082CDCE7154A43F8942C95
:10299000D8E700BF1060024028600240406002405B
:1029A000586002407060024088600240A0600240AF
:1029B000B860024010640240286402404064024053
:1029C000586402407064024088640240A06402407F
:1029D000B8640240006002403D000020400F00202B
:1029E00000003D2000222DE9F04713460D684FF00E
:1029F000010E032604E00133102B02F1020239D04C
:102A00000EFA03FC3CEA0504F5D1076806FA02F465
:102A100027EA040707600F79D0F800A007FA02F947
:102A2000013F49EA0A09012FA046C0F800906FEA69
:102A3000040411D887683C4084604C7987689440CE
:102A40003C438460446824EA0C0444608C79476801
:102A50009C40A4B23C434460C46824EA0804C460B7
:102A6000CC79C768944001333C43102BC46002F119
:102A70000202C5D1BDE8F0872DE9F0412348244F7B
:102A8000244E254C82B0382200216FF02CFF002507
:102A900057F825103246002301E054F833209142C4
:102AA0002ED001330E2BF8D10020053566F038FD0D
:102AB0001E2DEDD1DFF85880184F08F178054FF042
:102AC000007698F8040007F0D1F908F114080446DC
:102AD00088B1036803F13F4303F57E0307EB9323BB
:102AE00093F8C80066F01CFDA38801962068009347
:102AF0006946FFF777FFA845E3D102B0BDE8F08152
:102B0000064A02EBC30393F85C00CEE79C32002038
:102B1000340E002000000140782A0708202A070808
:102B2000224A936803F00C03042B10B421D0082B25
:102B300022D01F4B03601D4C1E4AA168C1F3031134
:102B4000114491F8AC1ECB404360A168C1F38221CF
:102B5000114491F8AC1E23FA01F18160A1685DF87F
:102B6000044BC1F342310A4492F8AC2ED340C36007
:102B70007047114B0360DEE75368516813F4800F10
:102B800001F03F01536814BF0B4A094AB2FBF1F14F
:102B9000064A5268C2F30142C3F38813013201FBB3
:102BA00003F35200B3FBF2F30360C4E700380240C2
:102BB0000024F4000000002000127A0070B5446B7D
:102BC0008668A38923F400531B041B0CA38182791C
:102BD0000546407912F0040F14BF4FF4805C4FF0AB
:102BE000000C110310F0010F4FEA02220CBF00236A
:102BF000042302F48062800748BF43F0080342EADE
:102C00000C021343228A92B201F4005122F4405282
:102C10000A432282A28922F4B05222F00C0212044A
:102C2000120C1A43A281A38A23F440731B041B0CC9
:102C300084B0A3826846FFF773FF244B9C4205D003
:102C400003F580639C4201D0029A00E0039AA389B5
:102C50001F491B0402EB82024CBF7300B30002EB5E
:102C60008202B2FBF3F3A1FB0302A089520964269E
:102C7000000406FB12334FEA02121FD41B01323349
:102C8000A1FB0313C3F3431313439BB22381AB791B
:102C90006A6B13F0080F938A0AD09BB243F00803C3
:102CA000938293899BB243F40053938104B070BD27
:102CB00023F008031B041B0C9382F2E7DB00323382
:102CC000A1FB0313C3F342131343DEE700100140DB
:102CD0001F85EB512DE9F8431D46344B9DF82060CC
:102CE0009DF8249098428846174646D0304B98422B
:102CF0004BD0304B984250D02F4B984235D02F4B71
:102D000098422ED14B46324629460420FDF798FEC4
:102D100004460023C4E90B87C4E90733C4E9093337
:102D20006671A56084F806902046FFF747FFF1071B
:102D3000626B0ED4B30707D493899BB243F400535C
:102D400093812046BDE8F883D36843F08003D360C5
:102D5000F2E74FF6DF731380D36843F02003D360AC
:102D6000E8E700242046BDE8F8834B463246294672
:102D70000320FDF765FE0446CBE74B463246294665
:102D80000020FDF75DFE0446C3E74B463246294668
:102D90000120FDF755FE0446BBE74B463246294667
:102DA0000220FDF74DFE0446B3E700BF00100140CE
:102DB0000044004000480040004C004000500040EB
:102DC0008160FBE64171F9E62DE9F043DFF81482FA
:102DD00008EBC00985B00546C70099F8C00E07F09A
:102DE00045F8044699F8C10E07F040F8064699F8F0
:102DF000C20E66F095FB6B1CDBB2002C00F0AD80C0
:102E000040F60B122372E280002E00F0C380337272
:102E100040F60B232046F38004223A2108F0BAFF43
:102E2000042230463A2108F0B5FF08EB0703624A56
:102E3000D3F8BC4E944200F09880604B9C4200F066
:102E40009E805F4B9C4200F0AB80474497F8C32EB6
:102E5000022A5CD0032A7ED05A4B5B4E012A18BF4F
:102E60001E46A7886846FFF75BFE27F03F07029BD8
:102E7000564AB3FBF6F63F04A2FB03233F0C47EA96
:102E80009347A780228822F001021204120C2280AC
:102E9000B2B2C6F30B069B0C002E59D04FF49671BC
:102EA00001FB03F34A49A1FB03139B0901339BB2C6
:102EB00042F400422384A2832388464A9BB243F013
:102EC00001032380238823F4816323F002031B047E
:102ED0001B0C4FF4804143F48063238021812388BD
:102EE00023F080031B041B0C238023889BB202EB7E
:102EF000451243F0010323800121002382F8885406
:102F000082F8891482F88A3405B0BDE8F083A68877
:102F10006846FFF705FE26F03F06029A2B4B360463
:102F2000A3FB0213360C46EA9346A680218821F0C3
:102F300001010904090C21809B0C274901339209E6
:102F40002384A1FB02329209042A38BF0422B2E78B
:102F500042F00102A2E7214E83E7002E3FF465AF65
:102F6000337240F60B23F3805AE71D4B1A6A42F482
:102F700000121A621A6A22F400121A6265E703F557
:102F8000F0331A6A42F480021A621A6A22F480024A
:102F90001A625AE7042220463A2108F0FBFE44E771
:102FA00003F5EE331A6A42F400021A621A6A22F436
:102FB00000021A6249E700BF005400400058004078
:102FC000005C0040804F1200009F240083DE1B4302
:102FD000D34D6210502E0020632D3E05C0270900FE
:102FE00000380240000000202DE9F047954D90F98F
:102FF00000108046807805EBC1060138CC0090B007
:10300000D6F8BC1E14282ED8DFE810F05301260194
:10301000150057006100A200AA00CB01BD017D0090
:10302000870045020D02E001C500D50030003800E0
:10303000AA019C015B01888A0C8B81B2824841EA1B
:10304000044130EA010100F02681D8E90210521A49
:1030500042F2107163EB00038A4273F1000302D362
:10306000152388F8023010B0BDE8F08798F81300F7
:103070000882C8E90223122088F80200888A0C8B93
:1030800080B240EA0440714C34EA000000F0B6809F
:1030900000200E900F9001200F910E900E990029A4
:1030A00000F01E820F9914310F910F99096849059C
:1030B000CBD5142388F80230D5E798F8110000F03A
:1030C000FE000882C8E90223052088F80200888AE9
:1030D0000C8B80B240EA04405D4C34EA000000F002
:1030E000A48000200090019001200191009000999F
:1030F000002900F0018201991431019101990968B8
:103100004F05D6D4A1E798F8110040F001000882DD
:10311000C8E902230B2088F80200888A0C8B80B251
:1031200040EA04404B4C34EA00006FD00020049089
:1031300005900120059104900499002900F0D681A2
:10314000059914310591059909684D05B1D47CE7BD
:1031500098F813000882C8E90223072088F80200C3
:10316000888A0C8B80B240EA0440384C34EA000074
:103170005FD00020029003900120039102900299F9
:10318000002900F0C581039914310391039909685E
:103190004E058ED459E7088820F480600004000CA6
:1031A000088098F8110000F0FE000882C8E90223A8
:1031B000102088F80200888A0C8B80B240EA044014
:1031C000234C34EA000012D000200C900D90012016
:1031D0000D910C900C99002900F094810D991431F7
:1031E0000D910D99096848053FF563AF2DE798F8F3
:1031F0001330FF2B06D198F810301BB1132388F839
:10320000023030E7112388F802302CE7D8F8140098
:10321000012800F09381022800F049820E20098BDA
:1032200088F80200C8E902231DE7062388F8023067
:1032300019E7D8F81400002800F07081082388F8F6
:10324000023010E7000000200100030084000700A6
:103250008200070002000300088820F400600004D8
:10326000000C0880088880B240F4806008800888DC
:1032700080B240F480700880032088F80200888AB9
:103280000C8B81B2AB4841EA0441C8E9022330EA21
:1032900001037FF4E8AE98F81230002B40F0D381A0
:1032A00098F81330FF2B00F04682042388F8023090
:1032B000D9E6098889053FF5C8AE002388F80230B1
:1032C000D1E62C4494F8C00E06F0D0FD064694F8E2
:1032D000C10E06F0CBFD984AB2F8E83401339BB238
:1032E0008246A2F8E83416B13368B2881A83BAF17C
:1032F000000F04D0DAF80030BAF804201A83112144
:10330000304602F0CFF91121504602F0CBF94FF0D0
:10331000090965272EB13368B28819690A4240F05D
:103320002881013F00F022810BF030FA04460D465F
:103330000BF02CFA001B61EB0501052871F100036D
:10334000F6D3E7E7088880B240F4007008804FF6B3
:10335000FF3088820121C8E9022388F8021082E642
:10336000D8F81400002800F07281D8F8184014F83A
:10337000016B0E8201381225C8E90504C8E9022351
:1033800088F802506FE6888A0C8B81B2694841EA5E
:10339000044130EA01017FF458AE0A2388F8023074
:1033A00061E6088880B240F480700880092088F8BF
:1033B0000200888A0C8B81B25E4841EA0441C8E968
:1033C000022330EA01037FF44EAEE6E70024012534
:1033D0000A940B940B910A950A98002800F04A81F0
:1033E0000B9814300B900B98006846077FF52DAEB4
:1033F000D8F81400032800F07281022800F24681F8
:10340000088820F480600004000C0880088880B2DE
:1034100040F400700880098A88F81C40C8E902233B
:1034200088F802501FE600200124089009900991B5
:1034300008940898002800F0178109981430099022
:103440000998006847077FF500AEEFF3118510205B
:1034500080F31288088880B240F400700880D8F8A1
:1034600018000E8A471CC8F81870EDB2067085F374
:1034700011880D8AD8F818106FF001004E1CC8F89A
:1034800018600D70C8E90223C8F8140088F81C40C1
:1034900088F80240E7E50020069007900120079198
:1034A0000690069C002C00F0EB80079C14340794D7
:1034B000079C246864067FF5C8AD0C8AD8F81810FC
:1034C0004D1CC8F818500C70D8F8141088F81C005F
:1034D0000139C8E90223C8F8141088F80200C2E5CF
:1034E0000F9918310F910F990968AEE505991831B8
:1034F000059105990968A8E501991831019101998B
:103500000968A2E50D9918310D910D9909689CE59E
:103510000399183103910399096896E5088880B2E8
:1035200040F4007008800121C8E9022388F80210E5
:1035300099E500BF01000300502E0020088820F408
:1035400080600004000C0880EFF31184102080F3E9
:103550001288088B088880B240F40070E4B20880BA
:1035600084F311880C2188F802105BE616B13368E9
:10357000B2885A830BF00AF904460D460BF006F99F
:10358000031B61EB0501052B71F10003F6D316B1A6
:103590003368B2881A830BF0F9F804460D460BF035
:1035A000F5F8031B61EB0501052B71F10003F6D360
:1035B000B9F101097FF4ADAE16B13368B2885A8310
:1035C0000BF0E4F804460D460BF0E0F8031B61EB4A
:1035D0000501052B71F10003F6D3BAF1000F04D0F9
:1035E000DAF80030BAF804205A830BF0CFF804461A
:1035F0000D460BF0CBF8031B61EB0501052B71F1B8
:103600000003F6D316B13368B2881A830BF0BEF804
:1036100004460D460BF0BAF8031B61EB0502052BBF
:1036200072F10003F6D3BAF1000F04D0DAF80030DB
:10363000BAF804201A8398F90000441C3FF43DAE08
:10364000FFF7C2FB39E60F2388F802300BE5088844
:1036500080B240F4007008800121C8E9022388F894
:103660001C1088F80210FEE4099918310991099993
:103670000968EAE40B9918310B910B990968E4E4A5
:1036800007991831079107990968DEE4D8F81800FE
:10369000098A441CC8F818400170D8F81410C8F8FA
:1036A00008200139C8F81410C8F80C30DBE4088889
:1036B00080B240F400600880EFF31184102080F3A2
:1036C0001288088B088820F480600004000CE4B2A3
:1036D000088084F311880D2188F80210A2E508887B
:1036E00020F480600004000C0880EFF311841020A7
:1036F00080F31288D8F818000D8A461CC8F81860A4
:103700000570088880B240F40070E4B2088084F349
:103710001188D8F81800098A441CC8F818400170AC
:10372000D8F814100C200239C8E90223C8F8141084
:1037300088F8020097E498F81030002B3FF4B5ADFC
:103740002BE600BF38B5184D9DF814E005EB40148A
:103750004FEA401C94F8890400B938BD490084F848
:103760009B24C4F89C3484F899140023049984F8A9
:1037700098E4022205F5916584F89A34C4F8A014FF
:1037800084F8A43484F88A2465440AF0FFFF0246D2
:103790000B462846FFF728FC94F88A34002BF4D116
:1037A00094F8A40438BD00BF502E002038B5184D41
:1037B0009DF814E005EB40144FEA401C94F889048E
:1037C00000B938BD84F89B24C4F89C34012200233E
:1037D000490005F5916584F89A2484F8A434049A84
:1037E00084F898E4022384F89914C4F8A02484F897
:1037F0008A3465440AF0CAFF02460B462846FFF7A2
:10380000F3FB94F88A34002BF4D194F8A40438BD67
:10381000502E0020F0B587B00023824A0093019318
:10382000136843F48033136003E0009BB3F5A04FAB
:1038300009D0136803F400330193009B0133009314
:10384000019B002BF1D0774B1B6813F4003318BF9A
:1038500001230193019B012B01D000BFFDE7714BB8
:1038600071491A6C714842F080521A640A6842F435
:1038700040420A609A689A609A6842F400429A60EC
:103880009A6842F4A0529A6058601A6842F08072B6
:103890001A601A689201FCD5654A40F20571116000
:1038A000996821F003019960996841F00201A2F53D
:1038B00080629960936803F00C03082BFAD1936837
:1038C00003F00C03042B00F08C80082B00F08E809A
:1038D000584D594BC5F8303C524BD5F8301C9A68BE
:1038E000564C5748C2F303122A44002692F8D42EAD
:1038F000D140544AC5F8301CE260534A596FA26067
:10390000596B524A21F080015963596F41F080711F
:103910005967196B0A431A635A6B5A639A6B9A6315
:103920001A6C4B490A431A64596C4A4A0A435A644E
:1039300002A948F2FF7302934FF6FF770396FFF751
:1039400051F800F580600297FFF74CF800F58060B1
:103950000297FFF747F800F58060FFF743F800F59E
:103960008060FFF73FF800F58060FFF73BF800F557
:103970008060FFF737F800F58060FFF733F800F557
:103980008060FFF72FF80846FFF7CAF8D4F8FC303C
:10399000029A3149314843F08073C4F8FC30304B0F
:1039A000C3F8B01F5E60196841F001011960D5F8D5
:1039B000303C4FF47A71B3FBF1F3013BB3F1807FFC
:1039C0002849B2FBF1F2C0F8EC2408D24FF0E02213
:1039D000F0215361072384F823109661136107B027
:1039E000F0BD144D204BC5F8303C75E75368516865
:1039F000104D13F4800F01F03F01536814BF1A4AB1
:103A00000D4AB2FBF1F1074A5268C2F30142C3F317
:103A10008813013201FB03F35200B3FBF2F3C5F844
:103A2000303C59E70038024000700040085440071D
:103A3000003C0240000000200024F40000ED00E003
:103A4000000002400003FA0500000008FF91670033
:103A5000FFC9FE103357070055CEACC5502E0020CD
:103A6000001000E040420F0000127A0082B0064BC6
:103A7000002201920193019B03EB80000190019BC6
:103A8000196002B0704700BF5028004010B51C20DC
:103A900006F0ECF91121044601F004FE4CB1236854
:103AA000A2885A83C8200AF09FFE2368A2881A833E
:103AB00010BDBDE81040C8200AF096BE704700BF98
:103AC000704700BF704700BF10B5124C94F8FA342D
:103AD00023B9114B4FF480225A6110BD4FF0E02200
:103AE000D2F8103D23F00603C2F8103DFEF752FA5B
:103AF00094F8FA34002BECD0D4F800359B68DB073F
:103B0000E7D5D4F8FC25136823F0030161F307031C
:103B10001360DEE7502E0020003C01402DE9F04FFD
:103B2000B34CD4F8FC345A69D2078BB002D50BB031
:103B3000BDE8F08F5A699B6912EA0309F7D0C9F30F
:103B4000074319F4002F009340F0E180009B5907D0
:103B500043D419F0020F5FFA89F603D0D4F8FC348D
:103B600002225A61B9F1000FC0F2EE8119F4006F20
:103B7000C9F3072540F04A81330708D59D4B9E487D
:103B8000D3F8F03E9847D4F8FC3408225A61F7067F
:103B900000F1C481EE0600F16F81A90600F1E88012
:103BA000009BDA0609D5934B9348D3F8003F98471A
:103BB000D4F8FC344FF480125A61009B9B06B6D5B2
:103BC0008C4B8D48D3F8043F9847D4F8FC344FF41D
:103BD00000125A610BB0BDE8F08FD4F8002593694C
:103BE000D26913401FFA83FABAF1000FB1D0DFF89F
:103BF0001882CDF80C90A8F1180500271AF0010FD3
:103C000078D0FEB2D4F8002504EB86031069D3F80F
:103C10000815536B8968F340DB01DBB203430B40AB
:103C200013F00109D9B240F0AB810A0740F1C88115
:103C3000D8F8002008239360994619F0800F59D0D6
:103C4000D5E94CC0D5F82431D8F800E0ACEB000140
:103C50008B42DEF8182028BF0B4692B20333B2EB3A
:103C6000930F47D9D4F8002594F8F394323604EB37
:103C70008603CDE90178674698469446874237D94E
:103C8000D5F82431391A994228BF194601F1030B9E
:103C9000D5F828314FEA9B0BB9F1000F10D18AB249
:103CA00003329210D8F8F8640AD04846013053F82D
:103CB000047B37608242F9D1D5E94C70D5F82831C0
:103CC00008440B44B842C5F82831C5F83401DEF881
:103CD00018300AD195F81C11012202FA01F1DCF822
:103CE000342022EA0102CCF834209BB29B45C5D394
:103CF000DDE901785FEA5A0A07F1010708F10408D3
:103D000005F128057FF47AAFDDF80C9021E7D4F8AF
:103D100000359D69DB691D402D0C3FF417AF04F59C
:103D20009E68DFF8D0B004F244560027C24608E08F
:103D30006D0807F1010706F1040608F128083FF4B1
:103D400005AFEB07F4D5F9B204EB8103D4F80025F5
:103D5000D3F844359B6852691340D807DAB200F1B2
:103D60003F81930740F16781336802229A60DFE761
:103D7000D4F80035D4F808159A680868C2F34102EF
:103D8000022A06BF032262F30A006FF30A000860EA
:103D90005A6842F480725A6006A8FEF7C1FED4F851
:103DA000FC24D4F80015D368079D6FF38D23D360EE
:103DB00088681249C0F34100014491F8D0100329EA
:103DC00000F05F810E490F480126294484F8F2640F
:103DD00081424FF04006A4F8F46400F2AC810E2159
:103DE00061F38D234FF40051D3605161D8E600BFD9
:103DF000502E00200000002040330020202A070819
:103E0000401E1BFF3F420F005833002000238DF857
:103E1000133094F802368DF81330B64BB648D3F809
:103E2000F83E9847D4F80035D4F8FC24986894F804
:103E3000FA344FF400615161002B3FF49DAEC2078C
:103E40007FF59AAE94F80536012B7FF495AE9DF878
:103E50001330032B7FF490AED4F8FC35A7491A68D1
:103E600042F001021A601A6842F003021A600B69FC
:103E700043F006030B617FE6D4F80065D4F8FC1428
:103E80007368002723F0010373600597059B43F0D7
:103E900020030593059B67F38A130593059B0B612C
:103EA0000B690593BC46964B03E00A690592013BFA
:103EB00002D0059A9006F8D494F8F12452B1914BAF
:103EC00003EB820EFF2253F8040F8260D86B734518
:103ED0008260F8D10B2363F3070763F3070C4FF0FD
:103EE000FF33B3614FF00113F3617761C6F810C07F
:103EF000336885486FF30A13336094F8F324D4F8D9
:103F00004435012A186100F0B5804FF480534B61AD
:103F1000784B7948D3F8F43E98473EE6D4F8FC3421
:103F20009A6922F010029A611A6AC2F34340022889
:103F300002F00F0100F0B080062800F087809A6937
:103F400042F010029A6125E694F8FA343BB1D4F8B5
:103F5000FC25136823F0030161F307031360D4F811
:103F60000025644B6448D3F8FC1E536823F001031A
:103F700053608847D4F8FC344FF000425A61F5E5AD
:103F8000516BD8F800005B4B4FF0010C0CFA07FCAA
:103F900021EA0C0151630122D3F8E83E82603146E8
:103FA0005548984794F8F334012B00F0B18019F08C
:103FB000020F3FF442AED8F8003002229A6099E630
:103FC000CB0604D5D8F8003010229A6092E6480655
:103FD00058BF8946EBD5D8F8003040229A6089E670
:103FE00094F8F324336801208242986007D11A695B
:103FF000D8F87C33C2F312029B1AC8F88C33DBF872
:10400000E43E5046984794F8F334012B7FF490AE89
:10401000002F7FF48DAE94F80136052B7FF488AE27
:10402000D4F84435384A1A61384A5A611A684FF050
:1040300080221A607CE610077FF57AAEDBF8EC3E52
:1040400050469847336808229A6071E601EB810177
:1040500004EBC101D4F8C065D1F87C08C2F30A12A0
:1040600002443068C4F8BC0A3068C4F8C00AC1F819
:104070007C2864E7254A5A611A684FF080221A604A
:1040800043E7002184F8F2144FF40071A4F8F4140B
:10409000092161F38D23A5E647F6F07010423FF445
:1040A0004EAFC2F30A1201EB810004EBC00002F133
:1040B000030C5FEAAC0CD0F87068D4F8C0E54FEAA6
:1040C000810818BF002006D00130DEF8007046F8E5
:1040D000047B8445F8D1414404EBC101D1F8700858
:1040E0001044C1F87008D1F87C080244C1F87C285B
:1040F00025E700BF000000204033002000ED00E075
:10410000400D030054330020180008600C390020D3
:10411000002F7FF44CAF94F80136042B7FF447AFA7
:10412000D4F844352B4A1A612B4A5A611A684FF069
:1041300080221A603BE72948A5F57401A1F51051CA
:10414000814203D80D2161F38D234BE62449254894
:104150002944814203D20C2161F38D2342E6224897
:10416000A5F18C71A1F54341814203D80B2161F384
:104170008D2337E61D491E482944814203D20A2176
:1041800061F38D232EE61B491B482944814203D24B
:10419000092161F38D2325E61848A5F1B771A1F532
:1041A0005851814203D2082161F38D231AE6144944
:1041B00014482944814203D2072161F38D2311E67B
:1041C000114912482944814234BF0621052161F377
:1041D0008D2307E6180008600C390020DFC81000A6
:1041E0002013FBFE20D61300FF69180000D3CEFE7B
:1041F00040771B00C05BB3FEC091210040AC27009C
:10420000C01D6AFE40E13300803C36FEE09C410068
:1042100070B51A4D1A4BC5F8E43A1A4B85F8F01AE6
:10422000002683F82F6905F6E423C0E954330D23F3
:104230000446C0F8583140F20113C0F85C6100F543
:10424000A271A0F8443167F07BFAE378C4F8B46354
:104250001F22C4F8B023012205F582659342C4F8F9
:10426000A853A4F89C2308BFC4F8AC5304F56771A5
:104270002046BDE8704067F063BA00BF502E0020B2
:1042800055534253581D0020F0B50B7813F06006CB
:1042900083B00C46054633D0202E2DD14A78FE2A15
:1042A0006BD0FF2A63D14A88002A40F08B80CA88ED
:1042B000002A40F08780190600F184806148624B33
:1042C00080F82F29C5F8B423EA78012183F8301447
:1042D000A5F89C1303F582631F21012AC5F8B013CA
:1042E000C5F8A83305F5677108BFC5F8AC33284693
:1042F00067F026FA002600E00026304603B0F0BD45
:104300004B780A2B6AD00B2B63D0012BF5D18B880D
:10431000D9B21B0676D40196019BC06843F0100306
:104320000193019B036103690193484B03E0026918
:104330000192013B02D0019AD206F8D42846424F9E
:1043400067F0EEF8022321794022284667F01AF937
:1043500097F83034022B6DD094F90420002ACCDA7F
:10436000012BCAD001212846FFF752FFC5E764F0B0
:1043700077FE0226304603B0F0BD4E8816BBCC88CF
:10438000012C1FD118061DD52F4FD7F848349B6933
:104390009847C0B287F8F40AA0B1022307F6F427C1
:1043A00085F811314FF48073C5E94E44C5E94A7769
:1043B000C5E94C46A5F81C3105F58E71284667F015
:1043C00051F99AE7284664F04BFE0226304603B0C6
:1043D000F0BD1D4B4A8883F8F52A8EE7022280F84B
:1043E00011214FF48072A0F81C21194A0123C0E961
:1043F0004E33C0E94A22C0E94C3600F58E7167F0B1
:1044000031F97AE70096009BC06843F020030093DF
:10441000009B61F38A130093009B0361036900937F
:104420000A4B03E002690092013B87D0009A97068D
:10443000F8D483E78121284664F04AFE002387F8F8
:1044400030345AE7581D0020502E0020400D030044
:104450004539002010B50D4B93F82F39022B07D0AA
:10446000033B012B02D80021FFF7D2FE002010BD34
:10447000074B93F81D14044667F014FA0028F5DA88
:1044800001212046FFF7C4FEF0E700BF581D0020C1
:10449000502E0020F8B5404E96F82F59074655B1DA
:1044A000012D06D13D4B93F81D1467F0FBF9002850
:1044B00032DB0020F8BD394CB0F8B433D4F8142402
:1044C000C4F8E82A1F2BD4F81824C4F8EC2A08D121
:1044D000334BD4F810249A4203D194F81D140129C7
:1044E0001FD994F8F63A04EBC3020133DBB2042B74
:1044F0004FF0050108BF002382F8F81A4FF400516D
:1045000084F8F63A38460223C2F8FC1A84F83034AC
:10451000FCF7D0FC0020F8BD29463846FFF778FEAE
:10452000C7E794F81E34013B0F2BDAD867F0BAF9CD
:10453000002827DB96F82F39013B022BB9D9B4F8B4
:10454000183B1BB3042286F82F29164AC7F85C5182
:10455000C7E95422D4F8182484F8F05A934228BFAB
:104560001346D4F8EC2AC7F8583140F20111A7F8E5
:104570004411D31A07F5A2713846C4F8EC3A67F033
:10458000DFF896E73846FCF795FC92E7194638467F
:10459000FFF73EFE8DE700BF581D0020502E002083
:1045A00055534243945D00202DE9F04F93B042F003
:1045B0008FF942F053F9AB4B0793B0F1000940F388
:1045C00029814FF0000A9B46A74BA84CCDF804A0C8
:1045D00002935646D04604E008F50068C14540F312
:1045E0008F8020220AA9404642F0BEF8A04912223C
:1045F0000AA86EF0C7F905460028EDD1B04521D0D4
:10460000019A9C4F9C49CDF80CB002EB420307EB9A
:10461000830701323846019202F008FCDBF81C20C7
:10462000039B43F84C7BCBE90822944ACBF80C60FF
:10463000CBF82820A8EB06060122CBE90466CBF8CC
:1046400008209B46029BD3F8103FCBF81C3046460F
:10465000122212AB991814F80A3011F8201C994252
:1046600002F101020CD04FF0000A202AF1D12036CD
:10467000B1450AA9304639DB42F076F80022E8E776
:104680000AF1010ABAF1150FEFD190190AA92022F7
:1046900042F06AF87A4909AA0AA86EF0CAF828B363
:1046A0000027CDE90477039706973E46731E042B37
:1046B00000F29F81DFE803F09A8DA29E030003F0D1
:1046C000F5F80546069989B1DDE90423039843EA24
:1046D00042127B0143EAC023A1F2BC7143EA6503A5
:1046E00042EA412243EA0243CBF81C30019B642B8F
:1046F00000F0B480464608F50068C1453FF771AF49
:10470000019A642A00F0AA80B0457BD0594C5A49DE
:104710005A4F0C2303FB0244531C1A462046A8EBB5
:104720000605019302F082FBDBF81C30CBF8004059
:10473000CBE90365CBE908330123CBF81450CBF860
:104740002870CBF80830019B1D1D4E4C0299D4F8FF
:104750004C61C1F8106F4C2202FB05F56319002172
:1047600018466EF0C0F84C2200216EF0BCF8DFF85D
:1047700020A144F805A0019D8762C0E90499C0E921
:1047800007664FF00108C0F80880466205354FEA19
:104790004903B3F1805F42DB029B3B493948D3F8C0
:1047A000105F4FF498726DF065FE3649079A0C461B
:1047B0000B465D62C3E907554C339A42F9D1A668AE
:1047C00026B9237913B12368002B63D113B0BDE858
:1047D000F08F03F06BF805902949002009AA6EF0CC
:1047E00028F8013600287FF461AF6BE703F05EF82C
:1047F0000490F1E703F05AF80746EDE703F056F8A6
:104800000390E9E7019B1D1D002B40F0F0801D4C3B
:104810000425BCE7144A02920425A3F598744C229F
:1048200002FB05F56319184600216EF05CF84C2276
:1048300000216EF058F80299C9F100620346520057
:1048400012486051D1F8101F5962C3E904220222B4
:104850005A710122C3E907119A609DE76423074F4B
:10486000019370E74C3F0020000000201CC907089E
:10487000F8C807086C3900200CC90708851F000814
:1048800034C907081C3E0020F42A07084CC9070851
:104890003CC90708C4E91166584A2664E6633046F5
:1048A00037468E46D56C02F14C0355B3D3F808C099
:1048B0001F64451EAC45C3E91177DF6313D0451C67
:1048C000AC4517D0844581D10546002D3FF47EAF1D
:1048D000106CC16B01F1010CC0F83CC0186493640A
:1048E00028461A46DEE700283FF470AF854253F8A9
:1048F0000C2CEAD1107900283FF468AF53641A6495
:10490000EEE7714602222F46A64613E0CB6B0A6300
:104910005B011DBF03F6FF7002F1FF3303EB1033A1
:104920001346C1E90477C1E90D3351F84C0F5A1C05
:104930000136C8B10B79002BE8D10B690A63002B53
:1049400048D14C691046531E4863002C4BD004F6E6
:10495000FF7C03EB1C33281A8B63C51851F84C0FEE
:104960005A1C01360028E5D125493E22C1F8902C79
:104970003F22013BC1F8942CC1F8A85C4022214D94
:10498000C1F8982C7446C1F8B46CC1F8A43C980FD7
:104990009A00C1F88C5C43B340F2FF15521940F104
:1049A0000000520A42EAC05202F14000024402EB07
:1049B000C303C1F8A02C144AC1F89C0CC1F8AC4C3C
:1049C000C1F8B04CD80D5C02C1F8883CC1F8804CED
:1049D0005060FBE603F6FF7C4C69531E03EB1C3072
:1049E0004863002CB3D11346B5E70122DCE7074F3B
:1049F000ABE602F05BFF0690EEE600BF1C3E002037
:104A0000581D00205CC90708D8290020851F000810
:104A10002DE9F04F604D85B0EB892868B5F80C8022
:104A200001911B0229896E892C8AC01A67EB07073E
:104A30004FEA014EA8FB001CEB8808FB07CCC90914
:104A400041EA4C6111EB0E0193464FEAC332A6FBDB
:104A5000003E06FB07EE4FEA132343EA0E634FEADC
:104A6000EC1C4CF1000C9B18A4FB002604FB076413
:104A70004FEAD25242EA44224FEA2E2E4FEAE45441
:104A80004EF1000E12F5FA6944F10006B9F5FA6F1D
:104A9000029476F10004039631DA029CA2FB02A68E
:104AA00002FB04F806EB48044FEA84084FEA8A0642
:104AB00016EB0A0648EA9A7844EB08084FEA560AC9
:104AC0004AEAC87AB608354CB1EB0A0146EA88765C
:104AD0006CEB680C9B1B039E6EEBA80EA1454FF080
:104AE000FF3476EB040426DB00FB07F7A0FB000293
:104AF00002EB4707C00F40EA4700B9EB0009019CF1
:104B000084B16869A0FB033200FB0E2E5B0D43EA03
:104B1000CE235B1A4FEA6E5E6EEB0C0CDB0B43EAA6
:104B20004C432360BBF1000F01D0CBF80090012073
:104B300005B0BDE8F08F40F6AC56029C921944F1E6
:104B4000000402FB04F4A2FB028202EB4404E60030
:104B50004FEAC802B8EB020246EA587664EB060652
:104B600051184CEB060C18EB080644EB040A16EB44
:104B7000080644EB0A0A4FEA8A0A4AEA967AB6001D
:104B8000B6EB08026AEB0404520842EAC4729B1AAC
:104B90006EEB640EA8E700BF986D002024FAFFFFBB
:104BA00031B10A4BD3ED0C7AFDEEE77AC1ED007A14
:104BB00052B1064B9FED067AD3ED0D7A67EE877AF8
:104BC000FDEEE77AC2ED007A01207047986D002073
:104BD0000000C842007970470079C0F34010704768
:104BE00000794009704700BF704700BF704700BFA1
:104BF000D0ED007AD0ED036A30EE677AE6EE877A80
:104C0000B0EE670AC0ED007A704700BFD0ED017AC0
:104C1000F5EE407AF1EE10FA05D19FED0C7AC7EE71
:104C2000207AC0ED017A31EE277AD0ED007A80ED5E
:104C3000021AC1EE076A30EE677AC0ED036AE6EE4B
:104C4000877AB0EE670AC0ED007A704783F9223E9A
:104C50009FED047AC7EE007A77EEA07A80EEA70A7D
:104C6000704700BF72C7D13D00230360436080EDF1
:104C7000020A704790ED017AD0ED036AD0ED027A16
:104C800030EE470AA6EE807A90ED000A80ED017AB8
:104C900037EE676AE6EE867A37EEC07AC0ED027AC2
:104CA000A6EE870A80ED000A704700BFD0ED056AC6
:104CB000D0ED017A90ED007A90ED066AD0ED025ABF
:104CC00090ED035A80ED050A66EEA77AC0ED066AFC
:104CD000E7EE007A90ED077AE5EE867A90ED086AC5
:104CE000D0ED045A80ED087AE5EE477AE5EEC67A13
:104CF000B0EE670AC0ED077A704700BFD0ED057AC5
:104D000090ED006A90ED067AD0ED035AE6EE007A57
:104D100090ED016AF0EE406AA6EE267AB0EE670AE0
:104D2000D0ED047A90ED026A67EEC07AA5EEC07A03
:104D3000E6EE267A80ED057AC0ED067A704700BF70
:104D400003685A1C02601970704700BF0369013381
:104D5000012B03611CD0D0ED005AD0ED026A07EEA2
:104D6000903A30EE656AF8EEE77A86EE277A77EECB
:104D7000257AB0EE667A30EE670AC0ED017AA6EECB
:104D8000007AC0ED007A80ED037A80ED027A7047F8
:104D9000002380ED010A80ED000A8360704700BFA8
:104DA00003685A1C02601970704700BF024B986B71
:104DB00003681B68184700BF986D002090F83020EA
:104DC000034602F0FF0012B1002283F83020704742
:104DD0004FF40063838170470120704701207047C2
:104DE0002DE9F84F6E4DD5F83CC0B5F84000B5F947
:104DF0004A90B5F846E0C0EB2C1303FB03F4B5F979
:104E00004430241303FB04F44000B5F94230C0EBF6
:104E1000EC0003FB00F0A41304EBE024B5F94830E8
:104E2000AC650F46A4F5FA31164683FB013281FBCF
:104E3000018C12034FEAE97B42EA13524FEA033A2C
:104E400009FB0CF308FB0B3BA9FB0839D9441B0AEF
:104E500043EA096313EB0A0342EB292202F50042FD
:104E6000A3FB0E390EFB029E4FEAEE734FEA6E0271
:104E700053EA6E0E4FF0000000F08580B5F95090B7
:104E800009FB0CFEB5F94EC08CFB011C4FEAE97A18
:104E90004FEA4C4C08FB0AEE4CEAD13CA9FB0898BF
:104EA000490411EB0901F04448EB0C0C4018E96D82
:104EB000C1F58019B5F94C1009F0004E4FEAC978D8
:104EC000B8EB00080CEBC1014EEA590E6EEB010E77
:104ED00018EB080C4EEB0E011CEB080C4EEB01011D
:104EE0004FEA81194FEA8C1049EA9C691CEB000CCF
:104EF00041EB0901890041EA9C714FEA8C0C1CEBE3
:104F0000080C4EEB01014FEA8C00890010EB080001
:104F100041EA9C714EEB010167F066FFB5F956203E
:104F2000B5F954E0B5F952504FEA6138430B43EA02
:104F3000C14302FB08FC4FEAE27903FB09C9A2FB6B
:104F4000032CCC4402FB08F803FB0C88A2FB032CC7
:104F5000C444520E42EACC12121841EB6C6C4FEA78
:104F6000EE730EFB01F103FB0011AEFB00300144B8
:104F7000DB0C43EA4133D0184CEBE141000A40EA34
:104F8000016000EB05100FB1000A386026B104EB98
:104F900084048034241234600120BDE8F88F00BFFF
:104FA000986D0020012070470C4B0D481B6810B411
:104FB000046E1B1BFA2B09D809B1436E0B604AB172
:104FC000836E5DF8044B13600120704700205DF88C
:104FD000044B704701205DF8044B704714320020E9
:104FE000986D0020034B0022C3E91B22C3E91D2258
:104FF00001207047986D0020094B0A4A1B68916F89
:105000005B1AFA2B0AD810B4D2E91B41536FC4863D
:10501000018743875DF8044B0120704700207047EB
:1050200014320020986D002000487047140F0020B3
:1050300070B5224E224C35463622002104F17C0008
:105040006DF051FC55F8103F00209847336BC4F8C1
:10505000B450984783683BB304F17C0206889446B9
:10506000104600210578032D00F106001ED0013105
:105070000929F7D1701E80B200231178022902F1AC
:10508000060209D00133092BF7D1D4F8B830082B28
:105090000AD05A1CC4F8B820062202FB03C302211E
:1050A000002219705A809880012070BD062303FBEE
:1050B0000141B1F87E00013880B2DDE7140F002015
:1050C000986D00202DE9F0410C4E356873691D4044
:1050D00011D0DFF82C800127B5FA85F4C4F11F0444
:1050E00008EB840307FA04F4D3F8BC00036898477C
:1050F000A5437461F0D1BDE8F08100BF003C0140E0
:10510000986D002038B51446002944D0344B9FEDEB
:10511000356AD3ED3F7AB3F9142193ED410AB8EE25
:10512000E77AD3ED467AC7EE066A0D4604EE902A7A
:10513000B3F91021F8EEE77A05EE902AB3F91221BF
:1051400087EE864AF8EEE44A05EE102AF8EEE55AB4
:10515000B3F90E21D3ED427AB3F90C31E6EEA45A3D
:1051600006EE102AB8EEE77AB8EEC55AB8EEC66A6F
:10517000A6EEA57AA6EE856A07EE903AB8EEC00ACA
:10518000F8EEE77AA6EE870AE6EE867AA4EE270A1C
:105190006AF078FA28600CB3114BDFED125A93EDE8
:1051A000467AB3F90221B3F900319FED0F0AB8EE48
:1051B000C76A07EE902A86EE257A06EE903AF8EE58
:1051C000E77AF8EEE66A67EE277AB6EE006AE6EE70
:1051D000867A27EE800A6AF055FA2060012038BDF1
:1051E000986D00200000F04A0000C842234B244A7A
:1051F00030B5D3F81C4194F91030A16803EB830358
:1052000002EB830383B08A078DF80700586B0AD539
:1052100001230DF10702002166F058FEA3689B07E9
:1052200014D503B030BD636913B11A689B885383EA
:10523000144B15491A68154B4D68D200A3FB023276
:1052400092094B685B1B9A42FBD2E1E70D4B0E497A
:105250001A680E4B4FF4FA7000FB02F2A3FB023205
:10526000486892094B681B1A9A42FBD26369002B6B
:10527000D7D01A689B88138303B030BD986D002087
:10528000140F00203C330020001000E0D34D6210CA
:1052900070B52B4C94F8203182B023B9012084F8EA
:1052A000203102B070BDD4F81C51264A95F9103057
:1052B000A96803EB830302EB83030522ADF800200A
:1052C0008A07586B11D502236A4601A966F0FEFDD4
:1052D000AB689B071CD59DF8053003F0010383F0F4
:1052E000010084F8203102B070BD6B6913B11A68F7
:1052F0009B885383144B15491A68154B4E68D2008E
:10530000A3FB023292094B689B1B9A42FBD2DAE75D
:105310000D4B0E491A680E4B48684FF4FA7606FB9F
:1053200002F2A3FB023292094B681B1A9A42FBD28B
:105330006B69002BCFD01A689B881383CBE700BF23
:10534000986D0020140F00203C330020001000E076
:10535000D34D62102DE9F04383B0002861D1334D65
:10536000D5F8246195F82031314F324CDFF8D080E8
:1053700033B900230120C5F8243103B0BDE8F08320
:10538000D5F81C9199F91030D9F8082003EB830364
:1053900007EB830305219207586BADF8001018D571
:1053A00002236A4601A966F091FDD9F808309B07EF
:1053B00021D59DF8053003F0010385F82031002B3D
:1053C000D7D01D4A12689642D2D8002003B0BDE85B
:1053D000F083D9F8143013B11A689B885383174BA4
:1053E00061681A68D200A8FB0232920963685B1AEE
:1053F0009A42FBD2D4E7114B61681A684FF4FA73F2
:1054000003FB02F2A8FB0232920963685B1A9A421C
:10541000FBD2D9F81430002BCBD01A689B881383A9
:10542000C7E7054B014D1E6806449BE7986D0020B9
:10543000140F0020001000E0143200203C33002044
:10544000D34D6210F0B5404C83B094F82821D82594
:105450000021034600958DF8041082B1020C050E60
:105460008DF8022008461A0A8DF801508DF80320A5
:105470008DF80430FFF76EFF90BB03B0F0BD050C54
:10548000010A10468DF801508DF802108DF8033096
:10549000FFF760FF0028F0D00620FFF7A7FE0123EA
:1054A000D4F81C5184F82031042395F910202749A1
:1054B00002EB820201EB8202A968506B8A0719D5C0
:1054C0006A46002166F002FDAB689B0725D5204B9C
:1054D0001B6803F59C530833C4F8243103B0F0BDB6
:1054E0000620FFF783FE012384F82031D4F81C51F5
:1054F0000523DAE76A6912B1116892884A83154A6E
:10550000154E1168154A7768C900A2FB0121890967
:105510007268D21B9142FBD2D2E70E4B0E491A6839
:105520000E4B48684FF4FA7606FB02F2A3FB0232F8
:1055300092094B681B1A9A42FBD26B69002BC6D0AA
:105540001A689B881383C2E7986D0020140F00200F
:10555000143200203C330020001000E0D34D6210D4
:1055600010B50020FFF7F6FE00B910BD084C06206C
:10557000FFF73CFE0123C72084F82031FFF736FEF9
:10558000044B1B6803F5A4430833C4F8243110BD51
:10559000986D00201432002070B588B00226009665
:1055A000204ECDF80CD0154696F82821002304464D
:1055B0008DF804300293AAB1CDE9061505930522B2
:1055C000030E8DF8013004920DF10203220C1A70C3
:1055D000220A5A7000209C70FFF7BCFE50B920468A
:1055E00008B070BDCDE90521042207950DF1010336
:1055F0000492EBE70620FFF7F9FDD6F81C01012322
:1056000086F820310379022B08D0074B1B682C4405
:1056100006332046C6F8243108B070BD02A966F0F2
:10562000A5FCF2E7986D00201432002070B588B018
:10563000032600961A4ECDF80CD0144696F8282171
:10564000002503468DF804500295A2B1CDE9065419
:10565000020E059105218DF8012004910DF1020241
:10566000190C1170190A517000209370FFF772FE27
:1056700048B908B070BDCDE90512042107940DF1B9
:1056800001020491ECE7D6F81C010379022B18BF44
:105690002046EED102A966F069FC2046E9E700BF8A
:1056A000986D002020B30368124A30B503F13F43E0
:1056B00003F57E039B0A054683B00C46D05C63F07D
:1056C0002FFFA988009104F00303C4F381028DF831
:1056D000043028688DF80520C4F300136946640976
:1056E0008DF806308DF80740FDF77CF903B030BD2A
:1056F000704700BFE82A070882B08DED010A0198C3
:1057000002B07047C31783EA400070479FED087AE4
:10571000C0ED020AC7EE007A0023036030EEA77ADC
:10572000C0ED017AC0EE877AC0ED037A704700BF02
:1057300083F9223E80ED010A704700BF90ED017AA7
:10574000D0ED007AC0ED020A30EE877AC0EE876AAB
:1057500030EE677AE6EE877AB0EE670AC0ED007A3F
:10576000704700BF80ED000A704700BF9FED047ACC
:10577000C7EE007A77EEA07A80EEA70A704700BFE6
:105780004E2DA63D002303604360836080ED030A35
:10579000704700BF80ED030A704700BFF5EEC00AF6
:1057A000F1EE10FA06DCF0EE407A80ED000AB0EE81
:1057B000670A704760EE810A90ED007A77EE607AB2
:1057C000F4EEC07AF1EE10FA0ADC77EE200AF4EE7D
:1057D000C00AF1EE10FA8CBFF0EE407AF0EE607A7B
:1057E000C0ED007AB0EE670A704700BFB4EEE00A81
:1057F000F1EE10FA07D4B4EEC10AF1EE10FA88BF48
:10580000B0EE410A7047B0EE600A7047894BB3FBB7
:10581000F2F399420DD300234FF07E5202604360B1
:105820008360C36003610023836143610362C361DA
:10583000704707EE902ADFED806AB8EE677A07EED0
:10584000901A27EE267AF8EE677A27EE277AFDEE91
:10585000C77A17EE903A2033402B00F2DA80DFED62
:10586000777AB4EEE77AF1EE10FAF0EE477A0CDDD3
:10587000DFED735A9FED736AF0EE676AF4EEC66A65
:10588000F1EE10FA77EEE57AF6DCDFED6F6AF4EE12
:10589000E67AF1EE10FA0CD5DFED695A9FED6B6AEE
:1058A000F0EE676AF4EEC66AF1EE10FA77EEA57ACA
:1058B000F6D4DFED676AF4EEE67AF1EE10FA00F363
:1058C0009C80DFED646AF4EEE67AF1EE10FA44BFF4
:1058D000DFED5D6A76EEE77A27EEA76ADFED5E5AC6
:1058E000DFED5E6A9FED5E5ADFED5E4AE6EE256A09
:1058F000DFED5D5AA6EE265A27EE864AE6EE055AF9
:10590000F7EE006AE4EE257AF0EE665AE7EEA45A66
:10591000E7EEE46A86EEA54ADFED4D6A77EE267A79
:10592000BDEEE76A16EE103A2033402B6AD8B4EE8B
:10593000E67AF1EE10FA0CDD9FED416ADFED416A87
:10594000B0EE677AB4EEE67AF1EE10FA77EEC67A48
:10595000F6DC9FED3D7AF4EEC77AF1EE10FA0CD545
:105960009FED376ADFED396AB0EE677AB4EEE67A1A
:10597000F1EE10FA77EE867AF6D49FED357AF4EEF2
:10598000C77AF1EE10FA49DD9FED2C7A77EE677A4F
:1059900067EEA76A9FED306A9FED307ADFED304AFF
:1059A0009FED315AA6EE867A27EEA63AE6EE874AB2
:1059B000B7EE006AA6EEA45AB6EE007AE3EE057AD8
:1059C000F8EE003A36EE676A67EEA37A26EE077ABB
:1059D000B7EE005AC5EE256A80ED044A26EE877AB6
:1059E00026EE866A66EEA77A80ED007A80ED016A7F
:1059F00080ED027AC0ED037A15E7DFED106A76EEEE
:105A0000E77A69E7DFED197AB6EE007AB7EE006A59
:105A1000DEE7B7EE004AF0EE445A7DE79FED0D7ADF
:105A2000F4EEC77AF1EE10FA44BF9FED077A77EEF5
:105A3000677AADE720A1070027D4D236DB0F4940B3
:105A4000DB0FC940E4CB1641DB0F49C0E4CB16C1E4
:105A5000DB0FC93FDB0FC9BF9A7C2E36FAAF4FB9B7
:105A60003587083CF304353FA4AA2ABE0000000095
:105A7000FDEEC07A17EE903A2033402B53D8DFED7D
:105A80002B7AB4EEE70AF1EE10FA0CDDDFED286AAE
:105A90009FED287AF0EE407AF4EEC77AF1EE10FA34
:105AA00030EE660AF6DCDFED247AB4EEE70AF1EEBA
:105AB00010FA0CD5DFED1E6A9FED207AF0EE407AE9
:105AC000F4EEC77AF1EE10FA30EE260AF6D4DFEDE6
:105AD0001C7AB4EEE70AF1EE10FA1FDCDFED197A5A
