:020000040800F2
:100000000000011005C10608E91F00089D03020851
:10001000A5C10608A5C10608A5C106080000000084
:10002000000000000000000000000000953A0008F9
:10003000993A0008000000009D3A000821E80008F5
:10004000A5C10608A5C10608A5C10608A5C10608E0
:10005000A5C10608A5C10608ED9E0008F19E00088E
:10006000A5C10608F59E0008F99E00086D27000846
:100070008127000895270008A9270008BD27000848
:10008000D1270008E5270008A5C10608A5C1060874
:10009000A5C10608A5C10608A5C10608FD9E000861
:1000A00019260008412600086926000805260008D0
:1000B00091260008A5260008B9260008A5C1060853
:1000C000A5C10608A5C10608A5C10608A5C1060860
:1000D000A5C10608512100085D210008692100081A
:1000E000019F0008A5C10608A13A0008F5260008EE
:1000F0001D27000845270008E1260008F927000809
:10010000A5C10608A5C10608CD260008A5C1060898
:10011000A5C1060875210008A5C10608A5C10608E5
:100120000D28000821280008352800084928000863
:100130005D280008A5C10608A5C10608A5C10608D6
:10014000A5C10608A5C10608A5C10608F53A00081C
:10015000712800088528000899280008A5C106080C
:10016000A5C10608A5C10608A5C10608A5C10608BF
:10017000A5C10608A5C10608A5C10608A5C10608AF
:08018000A5C10608A5C106088F
:10019000D0E907239A422FBFD01AC0688018C01A2E
:1001A000704700BFD0E9092300699A4238BF12188E
:1001B000D31A0138C01A7047D0E90902101AB0FAF0
:1001C00080F04009704700BF0246036A4069D16869
:1001D000C05C01338B4228BF00231362704700BF0D
:1001E000436A8269D154436A0169426B01338B428D
:1001F00028BF00234362D36843F08003D360704775
:10020000436B188810F0100002D01A889B880120D8
:10021000704700BF436B99891A88890610B5044658
:100220000AD592B2900607D5E26A002A29D09888AA
:10023000216B80B29047636B99891A88090692B244
:100240000FD510060DD5D4E909128A4214D0A16940
:100250002069895C99800132B2FBF0F100FB112228
:10026000A262998A1A88C90592B204D5D20744BFFE
:100270004FF6F7721A8010BDDA6822F08002DA6059
:10028000EFE79B88E2696169DBB28B54E269E16860
:10029000636B0132B2FBF1F001FB1022E261CBE7AC
:1002A000036942681F2B10B40AD95468A3F1200CCB
:1002B000202101FA0CF1214207D15DF8044B70476F
:1002C0001468202199402142F7D081690024C86830
:1002D0000C7480684C68016821F00101016020689D
:1002E00094F805C00C4C818934F81C4089B221EA8D
:1002F00004011F2B818107D9A3F1200120238B400A
:100300005DF8044BD3607047202101FA03F35DF8D8
:10031000044B9360704700BF281A070882B0092277
:10032000274B8DF80720DA68D00319D4DA68D10694
:1003300040D4DA68D20541D4DA6812F0E00F3BD13C
:10034000DB6813F0020F14BF082309238DF8073070
:100350009DF80730012B0AD09DF8070002B07047C6
:1003600001238DF807309DF80730012BF4D1144A92
:1003700012E0D368DB0519D4D36813F0E00F17D16E
:10038000D36813F0020F14BF082309238DF8073038
:100390009DF80730012BDFD1D168C8034FF001036E
:1003A000F4D4D368D906E4D50623EFE70223EDE7BA
:1003B0000723EBE70623D4E70723D2E70223D0E79E
:1003C000003C0240704700BF704700BF01207047EB
:1003D000044BD3E90003984288BF03F50063181A61
:1003E000704700BFC01A0020054AD2E900318B4295
:1003F000FDD0D1180133C3F30A03087A13607047A4
:10040000C01A0020064BD3F8080800B97047D3F88B
:100410000808A0F10500B0FA80F04009704700BF5D
:10042000C01A0020012380F849307047064BD3F8EA
:100430000C08D3F81028431E90428CBF00200120E6
:100440009B1A03EBC0207047C01A002010B5D0F8EB
:10045000E83504461B699847032384F812310020CD
:1004600010BD00BF08B5042290F81211D0F8E8358D
:1004700080F8131180F81221DB689847002008BD2E
:1004800008B5D0F8E435DB6903B19847002008BD12
:1004900008B5D0F8E4351B6A9847002008BD00BFB6
:1004A00008B5D0F8E4355B6A9847002008BD00BF66
:1004B000037830B403B30446C0F1010C04EB0C0321
:1004C00014F8015FDBB2002DF8D101335B00DCB220
:1004D000138003230C704B7004785CB10223002559
:1004E0005A1CD2B2CC548D5410F8014F0233DBB2F7
:1004F000002CF5D130BC704702242346E8E700BF4A
:1005000010B5074C2068FF2808D00649D1F81428F8
:1005100001F6180100F080F8FF232360002010BDD1
:1005200000000020C01A0020432301480B807047C0
:1005300004000020122301480B807047480000206F
:10054000042301480B8070475C00002008B5044B71
:1005500004480A461946FFF7ABFF084608BD00BF2E
:10056000E022002080B7070808B5044B04480A467B
:100570001946FFF79DFF084608BD00BFE022002096
:1005800090B7070808B5044B04480A461946FFF718
:100590008FFF084608BD00BFE022002098B707087B
:1005A00008B5044B04480A461946FFF781FF084680
:1005B00008BD00BFE0220020A4B7070808B5044B1F
:1005C00004480A461946FFF773FF084608BD00BFF6
:1005D000E0220020B0B70708704700BF704700BF97
:1005E000704700BF704700BF704700BF704700BF33
:1005F000044B00200522C3F80828C3F82009C3F8DB
:1006000024097047C01A0020024B0020C3F80808D4
:10061000704700BFC01A0020212838B50C4605D00D
:1006200022282DD0202813D0002038BD0029FBD04F
:10063000072AF9D1194BD3F8280993F82C1993F804
:100640002D2993F82E39206021716271A371EBE797
:100650000029E9D0072AE7D1104DD5F8243913B184
:10066000096800209847206821796279A379C5F844
:10067000280985F82C1985F82D2985F82E39D3E716
:100680000029D1D0022ACFD1044BD3F82039002B36
:10069000CAD0098800209847C6E700BFC01A0020CA
:1006A00010B4144CD4E900239A4286BF03F5006CC1
:1006B000ACEB02029A1A0A44B2F5006F13D8B1B13A
:1006C00001444A1E013810F801CFE118824203F1BB
:1006D000010381F808C0C3F30A03F4D1636000206A
:1006E0005DF8044B704702205DF8044B70470846E4
:1006F000F6E700BFC01A002010B58121044669F05A
:10070000B7FE2046012169F0B3FE2046822169F040
:10071000AFFEFFF779FF002010BD00BFC16902697D
:1007200010B4002340F20114A0F844410B60D169D9
:10073000846D21F002014FF0010CD161A0F89CC33F
:100740002360D169044821F4003180F82F395DF825
:10075000044BD16118467047C01A0020202301487D
:100760000B80704760000020122301480B80704707
:1007700080000020042301480B8070479400002073
:100780000A4608B5054920B90548FFF791FE034818
:1007900008BD0448FFF78CFE004808BDF023002088
:1007A000C0B70708D8B7070808B5044B04480A467D
:1007B0001946FFF77DFE084608BD00BFF023002064
:1007C000F0B707082048D0F8E837D0F8EC2730B564
:1007D0009B184FF01A040C8001D11C4830BD1B4AF5
:1007E000D0F8EA174FF0000E10467546B3F1204FCF
:1007F0004FEA137C0CF130040EF1020E2ABF0CF10B
:10080000370C847080F802C0BEF1100FC5704FEA3B
:10081000031300F10200E9D100200446B1F1204F9A
:100820004FEA117303F1300C00F102002ABF373395
:1008300082F812C093740828D4744FEA011102F1AF
:100840000202EBD1014830BD00F0FF1F98000020EC
:1008500008B5044B04480A461946FFF729FE084626
:1008600008BD00BFF023002004B8070808B5044BFA
:1008700004480A461946FFF71BFE084608BD00BF9C
:10088000F023002010B80708034BD3F8582CB3F816
:100890005C3C138300207047C01A00204FF40070A6
:1008A000034B1060D3F8383D0B600020704700BF49
:1008B000C01A0020002070470120704701207047B7
:1008C0000020704710B51C6994420DD396468A18D3
:1008D0008C469442996938BFA4EB0E0C7144624671
:1008E000BDE8104070F0CABD10BD00BF2DE9F04159
:1008F000204E96F8683D002BFBD1B9B3014400F1BE
:10090000FF384F1ED6F81018D6F80C3818F8010F1B
:100910004A1CC2F30A029A4234BF002401249B1AE3
:10092000314403EBC423012B81F86C0DC6F8102869
:100930001AD10DF0C1FF04460D460DF0BDFF031B9B
:1009400061EB0501B3F57A7F71F10003F5D3D6F8B9
:100950000C38D6F8102893428CBF002101219B1A35
:1009600003EBC123012BE4D0B845CBD10020BDE877
:10097000F08100BFC01A00200A4B10B5D3F8084818
:1009800004B910BDD3F80838052BFAD1064C002A5B
:100990000846D4F874341146F3DDFFF7A7FFD4F806
:1009A000743410BDC01A0020B82B002090F84820E5
:1009B000531C0244DBB280F8483082F8341090F8BF
:1009C00049200AB1132B03D9002280F8482003B92B
:1009D00070470A4AD2F808180029F9D0D2F8082836
:1009E000052AF5D110B5064C19463430D4F87434C4
:1009F000FFF77CFFD4F8743410BD00BFC01A00208C
:100A0000B82B002090F848100023A0F8483001B916
:100A10007047094BD3F80828002AF9D0D3F80838D2
:100A2000052BF5D110B5054C3430D4F87434FFF7EC
:100A30005DFFD4F8743410BDC01A0020B82B00201C
:100A40002DE9F0475D4E1F4606EB80039C68002CA5
:100A500000F0AD8004F13E03A36104F59F73E361F0
:100A60004FF48073C4E90433283623686660054672
:100A7000E16094F83D00A363904609F077FA81465F
:100A800094F8440294F83CA0261D00284FD194F815
:100A9000450268BBD4F8403283BB390734D418F020
:100AA000020F60D118F0010F44D194F9472294F855
:100AB0004712D4F84832002A10DB41481B01841841
:100AC000DBB284F800335209012301F01F0103FA5D
:100AD00001F140F822103046BDE8F087394A01F0B4
:100AE0000F010A441B01DBB213763046BDE8F087E4
:100AF00067F0C4FCD4F84032002BCED0324A116BE0
:100B00000B4339071363CAD50135EDB2B9F1000FB4
:100B1000CBD040F20673FA0689F80850A9F80630DF
:100B200036D4BB0694F8462245D4322133E067F030
:100B3000A5FCACE7504609F019FA0135EDB20028E2
:100B4000B3D040F206620572C28094F846220221B8
:100B50000BF0B0F994F9472294F84712D4F84832D0
:100B6000002AAADABAE76B1CDBB2B9F1000F99D000
:100B700089F8083040F20653A9F8063094F8462266
:100B8000484602210BF096F918F0010F8DD0D1E7FD
:100B900094F84622022148460BF08CF994F947223A
:100BA00094F84712D4F84832002A86DA96E72646A7
:100BB0003046BDE8F0871221EDE700BF281A07088C
:100BC00000E100E0FCEC00E0003802402DE9F047D5
:100BD000038A8489A4B21C4082B045D081468846ED
:100BE0004FF0004501F14C0701F13406B4FA84F3EB
:100BF00025FA03F2D24391B2A9F8101014401B3B1E
:100C0000B8F1000F5DD0042B2CD8DFE803F050467C
:100C10003B300300D8F80C30D9F82CA033B19B68D6
:100C200023B11FFA8AF108F104009847D8F824305C
:100C300033B19B6823B11FFA8AF108F11C00984771
:100C4000D8F83C302BB19B681BB11FFA8AF13046B3
:100C50009847D8F854302BB19B681BB11FFA8AF122
:100C600038469847002CC1D102B0BDE8F087D8F8CB
:100C70000C30D9F834105B6808F104009847002C58
:100C8000B4D1F1E7D8F82430D9F838105B6808F10E
:100C90001C009847002CA9D1E6E7D8F83C30D9F8D9
:100CA0003C105B6830469847002C9FD1DCE7D8F8B1
:100CB0005430D9F840105B6838469847002C95D1DD
:100CC000D2E7042B07D8DFE803F00319140F0A005A
:100CD000D9F840300193019B002C87D1C4E7D9F8A3
:100CE0002C300193019BF7E7D9F834300193019B35
:100CF000F2E7D9F838300193019BEDE7D9F83C30A1
:100D00000193019BE8E700BF38B5284C94F8682DA3
:100D1000012A034603D0022A09D0002038BD244905
:100D2000D1F87824A2B984F8682D002038BD0025B8
:100D300040F20112C0E95455C0E95655A0F84421CB
:100D400000F5A27169F0A4FC84F8685D002038BD4C
:100D5000402AD4F80C0819D9403AC1F87824402226
:100D60008118C4F80C1880B2124940F201140144F1
:100D70000020C3E95411C3E95620A3F844411846A2
:100D800003F5A27169F084FC002038BD4FF0000526
:100D9000C1F8785402EB0001C4F80C1808BF022116
:100DA00080B208BF84F8681DDEE700BFC01A0020CB
:100DB000B82B00202C28002001EB810138B500EB76
:100DC000C1010E4DB1F88C1304462846FFF768FCAC
:100DD000E378C4F8A85340210022C4E9EC120122B0
:100DE00093422046A4F89C2304F5677108BFC4F819
:100DF000AC5369F04DFC002038BD00BF34300020FA
:100E000038B52A4BD3F8BC240F2A04D0511CC3F8A0
:100E1000BC14002038BD264A92F8685D0021C3F852
:100E2000BC14002DF5D1D2F80C18D2F81048B1F549
:100E3000006F30D0A14235D002F66C5594BF641AD1
:100E4000C1F5006415FA81F5402C19D82144C2F887
:100E50000C184FF00001C3F878140CBF02230123D3
:100E600082F8683D40F201120023C0E95455C0E900
:100E70005643A0F8442100F5A27169F009FCC8E7C7
:100E8000403CC3F8784440310123C2F80C1882F882
:100E9000683D4024E6E7C2F80C581CB1294602F62A
:100EA0006C55D1E7002382F8683DB2E7B82B0020EB
:100EB000C01A002038B5224DD5F8C83495F8E0C4E2
:100EC000044623B195F8CC345CEA030331D0012306
:100ED000E06984F8463140F20112A4F84421026826
:100EE0001849002AA8BFC2F380739B0301EA12418C
:100EF00043F020030B4363F31F42BCF1020F026077
:100F000000D038BDE278104BC4F8A8331F20002170
:100F1000C4E9EC01012A4FF00101A4F89C1308BFB9
:100F2000C4F8AC3304F567712046BDE8384069F079
:100F3000AFBB012167F07AF895F8E0C4C7E700BFBE
:100F4000B82B0020DFBFFFFF7830002070B590F88D
:100F5000CF2590F8D13590F8CE5590F8D0C590F8BF
:100F6000CC1590F8CD6505EB02250CEB032C90F821
:100F7000D32590F8D23503EB0223012284B080F808
:100F8000112101F01F029BB2ADB21FFA8CFC012AA5
:100F900004468DF80810ADF80A50ADF80CC0ADF855
:100FA0000E30C0F840318DF809600AD0022A57D0BF
:100FB000002A3CD001F0800167F038F8002004B02E
:100FC00070BD90F81231032B2BD15FFA8CFCBCF171
:100FD000010F26D8D0F8E43502A99B689847BDF8E0
:100FE0000E30002BEAD1C4E94A33C4E94C33042162
:100FF0004FF4807284F81111A4F81C2104F58E714D
:10100000204669F0D7FA636DC44A1A61E278012A72
:10101000D4D104F2CC545C614FF0802219681A607C
:10102000CCE7204666F0CAFF002004B070BD092E50
:10103000F7D801A252F826F0E3100008F3110008D7
:10104000231000082D120008231000085B1200086E
:10105000071100082310000871110008A1110008F1
:1010600001F0600120295FFA8CF334D0012E00F0EA
:101070006181032E00F09581002E9FD190F81221FE
:10108000022A00F01B81032ACBD11CF0800F40F014
:10109000A48103EB830300EBC30393F87633002BA7
:1010A00000F0A6819E4B0122C3F8F0249D4A022342
:1010B000C4E94E334FF48070002184F81131A4F854
:1010C0001C01C4E94C31C4E94A2204F58E71204662
:1010D00069F070FA72E7D0F8E43502A99B68984786
:1010E0006CE790F81231023B012B9AD88C4BD0F868
:1010F00018210021C3F8E81412B10222C3F8E82431
:10110000894A0223D4E72E0A022EADF8063000F0F9
:10111000CD81032E00F09181012E82D1D0F8EC35E3
:1011200080781B680DF106019847BDF80630002B4A
:101130003FF444AFBDF80E20002A3FF43FAF934286
:1011400028BF13464FF480720221A4F81C2100220C
:10115000C4E94A0084F81111C4E94E33C4E94C32A1
:1011600004F58E712046ADF8063069F023FA25E7C4
:10117000012B7FF456AF90F81221022A00F049812A
:10118000032A7FF44EAF4FF4807100F5887202207D
:10119000A4F81C11C4E94E3384F81101002190E732
:1011A000EDB25F4E012D86F8E1543FF63AAF90F86C
:1011B0001231022B00F02181032B7FF432AF002D7E
:1011C00000F07F8190F81011012910D0D0F8E4359B
:1011D0005B68984796F8E114D4F8E43584F8101168
:1011E0001B6820469847D4F8E8359B689847002349
:1011F000F9E690F81231023B012B3FF612AF012DB8
:101200007FF4DCAED0F8E43500259B68C0F81851B7
:1012100002A9984704224FF48073C4E94A55C4E9EF
:101220004C5584F81121A4F81C31E7E6012D00F09B
:10123000CC80022D7FF4C2AE5FFA8CF3002B7FF4DA
:10124000BDAE02694FEA1C23023B5268032B00F239
:101250005681DFE803F05B426B5F5CEA03037FF4D7
:10126000E0AE90F81221032A3FF4DBAE016905F0ED
:101270007F0680F8146108681A4665F30A12024373
:101280000A604FF480720421C4E94A33C4E94C3344
:1012900084F81111A4F81C2104F58E71204669F020
:1012A00089F9636D1D4A1A61E278012A0DD0002E7A
:1012B00000F01281022384F812317FE65A063FF4CF
:1012C0007DAE194666F0B2FE78E604F2CC525A6161
:1012D0004FF0802219681A60E9E7032363F30612CE
:1012E00001210F4D84F816110421002384F81111F7
:1012F0004FF48071A4F81C11C4E94A33C4E94C339B
:1013000004F58E712046C5F8EC247AE6022363F3D7
:101310000612E5E7052363F30612E1E7180008600B
:10132000B82B0020A8300020A0300020042363F355
:101330000612D5E790F81221022ABFD0032A7FF4C3
:1013400070AE002D7FF43AAE13F07F023FF44FAF42
:101350001CF0800F40F0C48003EB830100EBC1015F
:1013600081F8742381F8765381F87553282101FBA5
:10137000030300EB820293F87713506D03688A1E13
:10138000012A6FF35553D4F8E4258CBFC3F30071E1
:10139000012161F31C739268036002A92046904703
:1013A00025E790F81221022A88D0032A7FF439AE6B
:1013B00025B9590602D0194666F038FED4F8E4354E
:1013C00002A99B682046984711E7D0F8E43502A9A6
:1013D0009B68C0F81851984709E703F07F0303EBB7
:1013E000830300EBC30393F81E31002B7FF45AAE46
:1013F000454B0022C3F8F02458E6002D3FF40AAF15
:1014000001210322D0F8E43580F8101180F8122170
:10141000E6E63E4984F811214FF480700022C4E9C9
:101420004A11A4F81C01C4E94E33C4E94C3204F556
:101430008E71204669F0BEF8C0E5EDB2052D3FF68D
:10144000F0ADDFE805F02B231B130B03D0F8EC35D0
:1014500080789B690DF10601984766E6D0F8EC3577
:1014600080785B690DF1060198475EE6D0F8EC35AF
:1014700080781B690DF10601984756E6D0F8EC35E7
:101480008078DB680DF1060198474EE6D0F8EC3520
:1014900080789B680DF10601984746E6D0F8EC3558
:1014A00080785B680DF1060198473EE6D0F8E43598
:1014B00080789B6A0DF1060198474670C4F8F005E4
:1014C00033E60222D0F8E43580F8122180F810517A
:1014D0005B68294698479DE6012384F812316DE543
:1014E000282303FB020181F81C2100EB820281F812
:1014F0001E5181F81D61906991F81F113EE701238B
:1015000063F30612ECE600BFB82B00209C300020ED
:1015100010B5044629B990F81121032A0DD00020F6
:1015200010BDD0F8E4359B69002BF8D090F812215B
:10153000032AF4D19847002010BDD0F890230B4621
:10154000D0F87C138A4213D9C078521A0128C4F803
:10155000902336D08A4228BF0A4692B2C4E9E223D9
:1015600004F55D71A4F87433204669F023F8D6E7DA
:10157000D0F8E4351B691BB190F81221032A1ED064
:1015800000234FF480720421C4E94A33C4E94C3388
:1015900084F81111A4F81C2104F58E71204669F01D
:1015A00009F8636D104A1A61E278012AB7D104F292
:1015B000CC545C614FF0802219681A60AFE79847FD
:1015C000DEE78A42D4F88003A4F8743328BF0A46C1
:1015D000084492B2C4E9E22304F55D71C4F88003C3
:1015E000C4F88403C0E700BF1800086038B504469B
:1015F00049B990F81131022B11D094F81631012B12
:1016000040D0002038BDD0F8E4355B69002BF8D01D
:1016100090F81221032AF4D19847002038BDD0F861
:101620003831D0F82421934236D9C178012908BF36
:10163000D0F82811A3EB020318BFD0F82821C0F876
:10164000383108BF52189BB24FF480710025C0E9B1
:101650004C35A0F81C11C0E94A2200F58E7168F0E3
:10166000A9FFE378C4F88053012BC4E9E255A4F83C
:10167000745308BFC4F8845304F55D71204668F0C4
:1016800099FFBAE72A4B2269D3F8EC145160002382
:1016900084F81631002038BDD0F83C31B3FBF2F5A8
:1016A00002FB1535ADB99A4213D8D0F840219342C8
:1016B0000FD24FF48073A0F81C31C0E94A55C0E93D
:1016C0004C5500F58E7168F075FFE378C4F8405111
:1016D000C8E7D4F8E435DB681BB194F81221032A7B
:1016E00023D0E2780023012A4FF0050108BFC4F897
:1016F0008433C4E9E23384F81111C4F88033A4F8C8
:10170000743304F55D71204668F054FF636D094A37
:101710001A61E278012A7FF470AF04F2CC525A6168
:101720004FF0802219681A6067E720469847D8E78B
:10173000B82B002018000860F8B50B7813F060068D
:101740000D46044620D0202E25D1CE884EB31B0650
:1017500049D5384F687832463946FEF75DFFEB8849
:101760000222002684F811214FF48072C4E94E331E
:10177000C4E94A77C4E94C36A4F81C2104F58E71FB
:10178000204668F017FF0AE04B780A2B17D00B2B86
:101790000ED0062B03D1204666F010FC0226304600
:1017A000F8BD022248781144FEF736FF3046F8BDF6
:1017B0008B78002B3AD1204BC3F8F464EFE7022278
:1017C00080F811214FF48072A0F81C211B4A0123DC
:1017D000C0E94E33C0E94A22C0E94C3600F58E71AB
:1017E00068F0E8FEDBE7164B164A4978116003F60D
:1017F00018020321C0E9E46680F81111C0F888637B
:10180000C0F88023C078C3F8146801284FF00003A3
:10181000C4F88C33A4F8743304F55D7108BFC4F8C0
:101820008423204668F0C6FE0026B8E766F0C6FBB3
:10183000B5E700BFD8220020B82B0020AC30002034
:10184000C01A002000000020002310B519460446ED
:10185000402268F03FFE802120460023402268F0AD
:1018600039FED4F8E835A078012284F812215B68AB
:101870009847002010BD00BF10B502230446402247
:10188000812168F027FE204602234022012168F0D2
:1018900021FE204603230822822168F01BFE0E4B06
:1018A0000222A3F84C20FEF7A3FEE2780B4BC4F80B
:1018B000A83340200021C4E9EC01012A4FF00101C6
:1018C000A4F89C13204604F5677108BFC4F8AC3334
:1018D00068F0DEFE002010BD000000203430002043
:1018E00070B5812182B00446314E68F0C1FD0121FE
:1018F000204668F0BDFD00250223402281212046BC
:1019000086F82F5968F0E6FD012102234022204687
:1019100068F0E0FD274B86F82F59D3F8F82483F8B8
:10192000E0541268284690470095009BE16843F018
:1019300010030093009B0B610A691F4B009203E0A8
:101940000A690092013B02D0009AD006F8D4002325
:101950000193019B43F020030193019A164B012050
:1019600060F38A120192019A0A610A69019203E006
:101970000A690192013B02D0019A9206F8D4E278FA
:101980000E4BC4F8A83300211F20C4E9EC01012A42
:101990004FF00101A4F89C1304F5677105D02046AF
:1019A00068F076FE002002B070BDC4F8AC33F6E7F4
:1019B000C01A0020B82B0020400D03007830002012
:1019C0002DE9F047089F884615460021202204464D
:1019D0001E466FF08CFF4FB13B68E3811B0C2382E6
:1019E0007B687A89E3821B0C62822383404669F01C
:1019F000B1FBEB0619D4431EB8B108EB000701E0B8
:101A0000013B12D317F801CDBCF12E0FF8D1C01A4B
:101A1000421E032AA8BF0322082B03F1010AA8BF14
:101A200008239146C2441A4606E008280246C246E8
:101A3000A8BF08224FF000094FF020334146236031
:101A4000636004F1080720466FF018FD174B2381EF
:101A50005146BB704A4638466FF010FD611EE31DCB
:101A600011F801CFACF1610EBEF1190F9CBFACF1C2
:101A7000200C81F800C08B42F2D1384604F10B01F2
:101A800010F8013BA3F16102192A9CBF203B00F82A
:101A9000013C8842F4D118232373330CA382E572EE
:101AA000099B6683E361BDE8F08700BF202020002A
:101AB0002DE9F04FDFF89494D9F8580CB9F85C4C44
:101AC000448387B0002B00F0DE8001F5FE781344DC
:101AD000DFF87CB40393164601F12007C24621E0EB
:101AE000002E64D0D9F8443DB34200F0D180D9F83B
:101AF000403DB34200F00481D9F8483DD9F84C1D6F
:101B0000B3424BD8B14200F29E81711A204666F072
:101B100003FA039B01369E4207F500770AF5007A27
:101B200000F0AD80D9F8505DB542A7F12004D7D8B8
:101B3000751BD9F8608D05F00702EB080492D8F800
:101B400030200233934203D3D8F8382093420BD984
:101B500041461846059366F0AFF9059B804600287C
:101B600000F09181C9F8600D98F80420002A40F037
:101B70003981D8F82850002D00F07E81D8F8302027
:101B80009B1A049A02EBC303D8F80C20204602EB00
:101B900043224FF400714346A847BAE7B142B4D993
:101BA00020464FF4007200216FF0A1FEB1E74FF420
:101BB0000072314620466FF09AFE802387F89E31EE
:101BC0000C2387F8A231D9F8403DD74AD9F8381DFF
:101BD000C4F8C6319342C4F8CA1100F33981D34A1C
:101BE000D34C82FB03021A44D817C0EB621284FB69
:101BF0000254D04D85FB03C5C0EB2530C2EB8215E6
:101C000087F8A1015B1B801020F03F0001330343E4
:101C1000144487F8A031D317C3EBE4142244C24B19
:101C200087F89F214A1E9A4200F31E81BF4BC0488D
:101C300083FB02311144D317C3EB611180FB0140D8
:101C4000BC4C84FB0254C3EB2433C1EB811487F8F2
:101C5000A531121B9B1023F03F03013213430844AC
:101C600087F8A431CB17C3EBE010014487F8A31128
:101C7000552387F8DE31AA2387F8DF3149E7D9F801
:101C8000580CB9F85C4C0483002007B0BDE8F08F15
:101C90004FF0FF3384F8EC3184F8ED3184F8EE3105
:101CA00084F8EF31D9F8583DC4F8E8315223237055
:101CB00063706123A37084F8E73141230025E3704A
:101CC00084F8E631722384F8E43184F8E5314FF486
:101CD000F0722946A7F11C006FF009FE5523C7F8E2
:101CE000D051C7F8D451C7F8D85184F8FE316FF0FD
:101CF000550384F8FC5184F8FD5184F8FF3108E75E
:101D000000214FF4007220466FF0F1FD8A4A03CAA9
:101D100047F81D0CEB2007F8200C582007F81F0C83
:101D2000902047F8191C07F81E0C002302220821F6
:101D3000F820E372227307F8131CA273E37307F809
:101D4000102C07F80B0CD9F8400D84F82C20D9F88A
:101D5000382D6376121A2262D9F8480DD9F84C2D25
:101D6000E376121A3F2020764FF0FF30A0763E2017
:101D7000207701206377A377E37784F82D3084F808
:101D80002E3084F82F30626284F8300084F83130CD
:101D900087F82610802187F82010292187F8221043
:101DA000942187F823100E2187F824100D21634A0F
:101DB00087F82510552187F8DE11AA2187F8DF1151
:101DC00003CA5F4BC7F82700C7F82B1003CB138853
:101DD000A7F82F309378C7F83200C7F8361087F885
:101DE000313096E64FF40072002120466FF07FFDFF
:101DF000049B002B4ED1D8F84030002B00F0AA8075
:101E0000049AD8F830304F49CDE9002220461122FB
:101E1000FFF7D6FDD8F840301A6C002A00F0AD80EC
:101E2000049A1B6BCDE90022474911223846FFF77F
:101E3000C7FDD8F8448007F120044FF4E075B8F1ED
:101E4000000F3FD165E6F11A204666F065F860E6BE
:101E5000FF2387F89F3187F8A13187F8A031324BF3
:101E60004A1E9A427FF7E2AEFF2387F8A33187F834
:101E7000A53187F8A431FBE6294620464FF40072CD
:101E80006FF035FD45E6A7F1240343F804BF9A45FA
:101E9000FBD13EE6D8F84030049AD8F84480002BB5
:101EA0000CBF01230223C3EB02154346002B3FF472
:101EB00030AE013D9B6CF9D198464FF40075002B74
:101EC0003FF427AE2544203423462035444604966B
:101ED00098460EE05CF81C1B236BCDF800C0002672
:101EE0000196FFF76DFDA46C08F12008CCB14545C3
:101EF00017D02379A44604F11C0E1122A8F120006A
:101F0000002BE7D162792669236B216842F0210218
:101F1000CDE900E6FFF754FDA46C08F12008002C81
:101F2000E5D1049EF5E500BFFF03FB008320088296
:101F3000818080809755454120B807082CB8070854
:101F400038B80708E0BC070884BC0708C01A00209E
:101F5000DEADBEEF049BD9F83C1DCDE90033204631
:101F60000822FFF72DFDD8F84480B8F1000F3FF4A8
:101F7000D0AD3C464FF4F075A4E7049BCDE90033A7
:101F800052E700BF8C46134601466246184643F0AE
:101F90009FBE00BF1049114BD1F8882042F4700257
:101FA00010B4C1F888201A680D4C002042F00102DC
:101FB0001A6098601A6822F0847222F480321A60E3
:101FC0005C601A68074C22F480221A60D8608C602A
:101FD0005DF8044B704700BF00ED00E000380240A0
:101FE0001030002400000008704700BF2DE9F843BE
:101FF00046697EB9D0F80080C8F30D0904460F4643
:10200000B9F1000F26D03F68FEF788F9092804D0FF
:102010006FF001063046BDE8F8834A4D2B6923F482
:1020200040732B612B6943F400732B612B6943F0E0
:1020300001032B61C8F80070FEF770F92B690928BD
:1020400023F001032B61E3D123680433236030467E
:10205000BDE8F8833C4B98452AD303F58043984567
:1020600024D303F58043984554D3384B984554D92D
:1020700003F58033984553D903F50033984552D979
:1020800003F50033984551D903F5003398453ED9FF
:1020900003F5003398454CD903F5802398454BD977
:1020A000B8F1016F4BD305200CF0B2FC4FF00809DA
:1020B000FEF734F9092804D04FF0FF363046BDE86A
:1020C000F883204D2B6923F440732B612B6943F473
:1020D00000732B612B6923F0F8032B612B6943EA12
:1020E000090343F002032B612B6943F480332B6116
:1020F000FEF714F92B6923F002032B612B690928E1
:1021000023F0F8032B61D7D1D4F800807BE74FF0A0
:102110003809CDE74FF01009CAE74FF01809C7E7B3
:102120004FF02009C4E74FF02809C1E74FF030090C
:10213000BEE74FF04009BBE74FF04809B8E74FF062
:102140005809B5E7003C024000400008FFFF0008C6
:102150000148FEF75FB800BFB80000200148FEF755
:1021600059B800BF040300200148FEF753B800BF70
:10217000500500200148FEF74DB800BF9C07002025
:10218000704700BFF0B5254B0268254983B006466D
:10219000002401E051F834309A4209D001340E2C69
:1021A000F8D100211F4A052004F064FF002113E04C
:1021B0001D4F07EB8407D7F8FC5485B1717901EB0B
:1021C000410305EBC30300221820C3E9032200FBEF
:1021D00001559E601A75291D084603B0F0BD072100
:1021E000642005F027F80146C7F8FC0470B12946C1
:1021F00064226FF07CFB0A4BD7F8FC5403EBC40459
:10220000C5E90045ED616D63ED64D7E70190074ACC
:10221000052004F02FFF0199DEE700BF0000014018
:10222000801A070844B80708B82B00206CB80708C4
:10223000704700BF38B5D0E9004307EE902A1B680D
:10224000354A20680139934204688DB216D002F5F0
:102250008062934212D002F5705293420ED002F582
:10226000806293420AD002F58062934206D02B4BE3
:10227000D3F8E4395B0807EE103A04E0274B03F685
:10228000E41393ED007ADFED266AB8EE477AF8EEB4
:10229000677A87EE270A30EE260A6CF0F5F91E4AB7
:1022A00023880138944280B29BB212D002F580623A
:1022B00094420ED0B4F1804F0BD0A2F580329442FC
:1022C00007D002F58062944203D002F58062944206
:1022D00002D123F070039BB2124A944212D002F54D
:1022E000806294420ED023F4407302F56C429BB29C
:1022F00094422380E56220850AD1002323860123AE
:10230000A38238BD2380E56220850123A38238BDE6
:10231000054B9C42F1D0F8E700000140000000208E
:102320000AD7233C001000400004014070B540680B
:10233000837903F0020213F0040300F0C9804FF028
:10234000000E134604247246754690F805C0BCF191
:10235000030F30D8DFE80CF08E5F30020368188C72
:1023600020F480500004000C1884188C9C8820F401
:10237000005000042A43000C40EA0232988B6C4D56
:1023800020F4E6400004000CAB42A4B240F4C0408C
:1023900000F0B08005F58065AB4200F0AB809C801A
:1023A000988319641A849A8B22F400621204120C26
:1023B00042F400629A8370BD2A4305685C4E288C03
:1023C00020F480700004000C2884288CB5F804C028
:1023D00020F400700004000C40EA0222A88B20F0D8
:1023E00073000004000CB5421FFA8CFC40F0600042
:1023F00073D006F58066B5426FD0A5F804C0A883F7
:10240000E9632A84AB8B23F008031B041B0C43F005
:102410000803AB8370BD2A430568454E288C20F025
:1024200010000004000C2884288CB5F804C020F0AB
:1024300020000004000C40EA0212288B20F4E64041
:102440000004000CB5421FFA8CFC40F4C04061D07F
:1024500006F58066B5425DD0A5F804C02883A9635F
:102460002A842B8B23F400631B041B0C43F40063AE
:102470002B8370BD00682E4E2A43058C25F0010584
:102480002D042D0C0584058CB0F804C025F0020540
:102490002D042D0C2A43058B25F073052D042D0CDE
:1024A000B0421FFA8CFC45F0600528D006F5806626
:1024B000B04224D0A0F804C0058341630284038B9A
:1024C00023F008031B041B0C43F00803038370BDB7
:1024D0004FF4807E1C46012537E722F4006242EA71
:1024E000032222F480622CF4405C42EA04224CEA8B
:1024F0000E1C82E724F4804444EA8E144FE74FF622
:10250000F37616402CF4407C46EA03024EEA0C0CAB
:102510002243CFE722F0800242EA031222F0400277
:102520002CF4406C42EA04124CEA8E0C94E700BF93
:102530000000014070B4EFF31182102383F312887E
:10254000C4684668A5682B6823F001032B603568D2
:10255000114B767933F81660AB899BB223EA0603F8
:10256000AB81236965681F2B11D9203B202404FA15
:1025700003F3EB60D3B283F31188C3689B6859609F
:102580001A68012422431A60047470BC7047202426
:1025900004FA03F3AB60EDE7281A070803681A7D15
:1025A000012A04BF02221A7593F82C100CBF4FF4B5
:1025B00000720022012904D1022183F82C1042F478
:1025C000806293F84410012905D093F85C1001292A
:1025D0000AD072B97047022183F8441093F85C1056
:1025E000012942F4006204D1022183F85C1042F414
:1025F00080524168096800234B628B899BB21A4361
:102600008A817047024B0348D3F8FC14FEF7DEBA08
:10261000B82B00200000014010B5064C0648D4F845
:10262000FC14FEF7D3FAD4F81C150448BDE810409A
:10263000FEF7CCBAB82B002000000140004001405A
:1026400010B5064C0648D4F8FC14FEF7BFFAD4F8CF
:1026500020150448BDE81040FEF7B8BAB82B00209A
:10266000000001400044014010B5064C0648D4F873
:10267000FC14FEF7ABFAD4F824150448BDE810406A
:10268000FEF7A4BAB82B002000000140004801402A
:10269000034B4FF08040D3F80015FEF797BA00BF08
:1026A000B82B0020024B0348D3F80415FEF78EBA6E
:1026B000B82B002000040040024B0348D3F8081553
:1026C000FEF784BAB82B002000080040024B0348F4
:1026D000D3F80C15FEF77ABAB82B0020000C004096
:1026E000024B0348D3F81815FEF770BAB82B002038
:1026F0000004014010B5064C0648D4F81815FEF742
:1027000065FAD4F828150448BDE81040FEF75EBA13
:10271000B82B0020000401400018004010B5064C02
:102720000648D4F81815FEF751FAD4F82C150448C9
:10273000BDE81040FEF74ABAB82B00200004014063
:10274000001C004010B5064C0648D4F81815FEF7DA
:102750003DFAD4F830150448BDE81040FEF736BA0B
:10276000B82B002000040140002000400348D0F8AE
:10277000F43913B100F6E810184770470000002044
:102780000348D0F8143A13B100F6082018477047F0
:10279000000000200348D0F8343A13B100F6282096
:1027A00018477047000000200348D0F8543A13B18E
:1027B00000F6482018477047000000200348D0F872
:1027C000743A13B100F668201847704700000020E3
:1027D0000348D0F8943A13B100F6882018477047A0
:1027E000000000200348D0F8B43A13B100F6A82046
:1027F00018477047000000200348D0F8D43A13B1BE
:1028000000F6C82018477047000000200348D0F8A1
:10281000F43A13B100F6E820184770470000002092
:102820000348D0F8143B13B100F60830184770473E
:10283000000000200348D0F8343B13B100F62830E4
:1028400018477047000000200348D0F8543B13B1EC
:1028500000F6483018477047000000200348D0F8C1
:10286000743B13B100F66830184770470000002031
:102870000348D0F8943B13B100F6883018477047EE
:10288000000000200348D0F8B43B13B100F6A83094
:1028900018477047000000200348D0F8D43B13B11C
:1028A00000F6C8301847704700000020026836491B
:1028B000002310B422F00102212488420260036048
:1028C00043608360C3600361446138D02F4B9842FA
:1028D0002ED02F4B98423CD02E4B984240D02E4BBE
:1028E000984232D02D4B984241D02D4B984246D041
:1028F0002C4B984217D02C4B98423CD02B4B9842F3
:1029000016D02B4B984224D02A4B984228D02A4BE1
:1029100098421AD0294B984229D0294B98422ED060
:10292000284B984208D14FF03D5243F8AC2C03E0BD
:102930004FF4746243F8202C5DF8044B7047224B2F
:102940005DF8044B3D229A607047204A43F8642C9E
:10295000F2E74FF474125DF8044B43F8382C7047DB
:102960004FF074625DF8044B43F8502C7047184ADE
:1029700043F87C2CE0E73D2243F8082CDCE7154ABD
:1029800043F8942CD8E700BF106002402860024052
:10299000406002405860024070600240886002401F
:1029A000A0600240B8600240106402402864024007
:1029B00040640240586402407064024088640240EF
:1029C000A0640240B8640240006002403D00002064
:1029D000400F002000003D2000222DE9F047134663
:1029E0000D684FF0010E032604E00133102B02F1B5
:1029F000020239D00EFA03FC3CEA0504F5D107685F
:102A000006FA02F427EA040707600F79D0F800A05D
:102A100007FA02F9013F49EA0A09012FA046C0F866
:102A200000906FEA040411D887683C4084604C79B8
:102A3000876894403C438460446824EA0C04446002
:102A40008C7947689C40A4B23C434460C46824EA43
:102A50000804C460CC79C768944001333C43102B10
:102A6000C46002F10202C5D1BDE8F0872DE9F04152
:102A70002348244F244E254C82B0382200216EF08A
:102A800036FF002557F825103246002301E054F8A0
:102A9000332091422ED001330E2BF8D10020053582
:102AA00065F0ECFC1E2DEDD1DFF85880184F08F1D1
:102AB00078054FF0007698F8040007F057FA08F10F
:102AC0001408044688B1036803F13F4303F57E030D
:102AD00007EB932393F8C80065F0D0FCA388019618
:102AE000206800936946FFF777FFA845E3D102B05D
:102AF000BDE8F081064A02EBC30393F85C00CEE721
:102B0000B4300020E80B002000000140801A0708C4
:102B1000281A0708224A936803F00C03042B10B408
:102B200021D0082B22D01F4B03601D4C1E4AA168E8
:102B3000C1F30311114491F8601CCB404360A168BC
:102B4000C1F38221114491F8601C23FA01F18160E4
:102B5000A1685DF8044BC1F342310A4492F8602C3D
:102B6000D340C3607047114B0360DEE75368516880
:102B700013F4800F01F03F01536814BF0B4A094A58
:102B8000B2FBF1F1064A5268C2F30142C3F3881363
:102B9000013201FB03F35200B3FBF2F30360C4E71D
:102BA000003802400024F4000000002000127A00E7
:102BB00070B5446B8668A38923F400531B041B0C77
:102BC000A38182790546407912F0040F14BF4FF4B7
:102BD000805C4FF0000C110310F0010F4FEA02224D
:102BE0000CBF0023042302F48062800748BF43F037
:102BF000080342EA0C021343228A92B201F4005104
:102C000022F440520A432282A28922F4B05222F0D6
:102C10000C021204120C1A43A281A38A23F44073FB
:102C20001B041B0C84B0A3826846FFF773FF244B80
:102C30009C4205D003F580639C4201D0029A00E0DB
:102C4000039AA3891F491B0402EB82024CBF730045
:102C5000B30002EB8202B2FBF3F3A1FB0302A089F3
:102C600052096426000406FB12334FEA02121FD4F5
:102C70001B013233A1FB0313C3F3431313439BB272
:102C80002381AB796A6B13F0080F938A0AD09BB249
:102C900043F00803938293899BB243F400539381DA
:102CA00004B070BD23F008031B041B0C9382F2E7F1
:102CB000DB003233A1FB0313C3F342131343DEE7FC
:102CC000001001401F85EB512DE9F8431D462E4BA6
:102CD0009DF820609DF824909842884617463BD086
:102CE0002A4B984240D02A4B984245D0294B9842D3
:102CF00021D14B46324629460420FDF7A1FE044669
:102D00000023C4E90B87C4E90733C4E909336671BA
:102D1000A56084F806902046FFF74AFFF107626B32
:102D200012D4B3070BD493899BB243F4005393811D
:102D30002046BDE8F88300242046BDE8F883D36828
:102D400043F08003D360EEE74FF6DF731380D36860
:102D500043F02003D360E4E74B4632462946002087
:102D6000FDF76EFE0446CBE74B463246294601206E
:102D7000FDF766FE0446C3E74B463246294602206D
:102D8000FDF75EFE0446BBE7001001400044004032
:102D90000048004000500040816009E7417107E7AA
:102DA0002DE9F043DFF8148208EBC00985B0054631
:102DB000C70099F8740C07F0D9F8044699F8750C17
:102DC00007F0D4F8064699F8760C65F057FB6B1CB3
:102DD000DBB2002C00F0AD8040F60B122372E280D3
:102DE000002E00F0C380337240F60B232046F380A0
:102DF00004223A2109F05EF8042230463A2109F013
:102E000059F808EB0703624AD3F8704C944200F07B
:102E10009880604B9C4200F09E805F4B9C4200F08B
:102E2000AB80474497F8772C022A5CD0032A7ED0E7
:102E30005A4B5B4E012A18BF1E46A7886846FFF70B
:102E400069FE27F03F07029B564AB3FBF6F63F04A4
:102E5000A2FB03233F0C47EA9347A780228822F076
:102E600001021204120C2280B2B2C6F30B069B0CB4
:102E7000002E59D04FF4967101FB03F34A49A1FB90
:102E800003139B0901339BB242F400422384A283C3
:102E90002388464A9BB243F001032380238823F40E
:102EA000816323F002031B041B0C4FF4804143F4A5
:102EB000806323802181238823F080031B041B0C63
:102EC000238023889BB202EB451243F00103238049
:102ED0000121002382F8385582F8391582F83A35F5
:102EE00005B0BDE8F083A6886846FFF713FE26F01C
:102EF0003F06029A2B4B3604A3FB0213360C46EA1C
:102F00009346A680218821F001010904090C218043
:102F10009B0C2749013392092384A1FB02329209B9
:102F2000042A38BF0422B2E742F00102A2E7214E90
:102F300083E7002E3FF465AF337240F60B23F38036
:102F40005AE71D4B1A6A42F400121A621A6A22F4F6
:102F500000121A6265E703F5F0331A6A42F4800240
:102F60001A621A6A22F480021A625AE70422204680
:102F70003A2108F09FFF44E703F5EE331A6A42F462
:102F800000021A621A6A22F400021A6249E700BFBC
:102F90000054004000580040005C0040804F120088
:102FA000009F240083DE1B43D34D6210B82B00200A
:102FB000632D3E05C02709000038024000000020B4
:102FC0002DE9F047954D90F900108046807805EB8B
:102FD000C1060138CC0090B0D6F8701C14282ED849
:102FE000DFE810F053012601150057006100A20030
:102FF000AA00CB01BD017D00870045020D02E00162
:10300000C500D50030003800AA019C015B01888A08
:103010000C8B81B2824841EA044130EA010100F0A0
:103020002681D8E90210521A42F2107163EB0003B4
:103030008A4273F1000302D3152388F8023010B0DE
:10304000BDE8F08798F813000882C8E9022312202F
:1030500088F80200888A0C8B80B240EA0440714CE8
:1030600034EA000000F0B68000200E900F9001209E
:103070000F910E900E99002900F01E820F991431C5
:103080000F910F9909684905CBD5142388F80230B0
:10309000D5E798F8110000F0FE000882C8E9022385
:1030A000052088F80200888A0C8B80B240EA044030
:1030B0005D4C34EA000000F0A480002000900190F4
:1030C0000120019100900099002900F001820199EE
:1030D00014310191019909684F05D6D4A1E798F8F8
:1030E000110040F001000882C8E902230B2088F893
:1030F0000200888A0C8B80B240EA04404B4C34EAD0
:1031000000006FD0002004900590012005910490EC
:103110000499002900F0D68105991431059105998B
:1031200009684D05B1D47CE798F813000882C8E916
:103130000223072088F80200888A0C8B80B240EABC
:103140000440384C34EA00005FD000200290039025
:103150000120039102900299002900F0C581039992
:1031600014310391039909684E058ED459E70888F4
:1031700020F480600004000C088098F8110000F032
:10318000FE000882C8E90223102088F80200888A1D
:103190000C8B80B240EA0440234C34EA000012D089
:1031A00000200C900D9001200D910C900C9900299D
:1031B00000F094810D9914310D910D99096848051D
:1031C0003FF563AF2DE798F81330FF2B06D198F841
:1031D00010301BB1132388F8023030E7112388F830
:1031E00002302CE7D8F81400012800F0938102285F
:1031F00000F049820E20098B88F80200C8E90223FA
:103200001DE7062388F8023019E7D8F814000028D3
:1032100000F07081082388F8023010E700000020D9
:103220000100030084000700820007000200030081
:10323000088820F400600004000C0880088880B230
:1032400040F480600880088880B240F48070088074
:10325000032088F80200888A0C8B81B2AB4841EACF
:103260000441C8E9022330EA01037FF4E8AE98F88C
:103270001230002B40F0D38198F81330FF2B00F070
:103280004682042388F80230D9E6098889053FF58B
:10329000C8AE002388F80230D1E62C4494F8740CB0
:1032A00006F064FE064694F8750C06F05FFE984A38
:1032B000B2F8983501339BB28246A2F8983516B120
:1032C0003368B2881A83BAF1000F04D0DAF80030FC
:1032D000BAF804201A831121304602F0B7F91121FF
:1032E000504602F0B3F94FF0090965272EB1336853
:1032F000B28819690A4240F02881013F00F022811A
:103300000BF0DAFA04460D460BF0D6FA001B61EB1F
:103310000501052871F10003F6D3E7E7088880B2BC
:1033200040F4007008804FF6FF3088820121C8E920
:10333000022388F8021082E6D8F81400002800F072
:103340007281D8F8184014F8016B0E8201381225EA
:10335000C8E90504C8E9022388F802506FE6888AA4
:103360000C8B81B2694841EA044130EA01017FF4E3
:1033700058AE0A2388F8023061E6088880B240F42B
:1033800080700880092088F80200888A0C8B81B23E
:103390005E4841EA0441C8E9022330EA01037FF4B0
:1033A0004EAEE6E7002401250A940B940B910A9592
:1033B0000A98002800F04A810B9814300B900B9863
:1033C000006846077FF52DAED8F81400032800F0FA
:1033D0007281022800F24681088820F4806000048F
:1033E000000C0880088880B240F400700880098AC8
:1033F00088F81C40C8E9022388F802501FE6002024
:10340000012408900990099108940898002800F078
:1034100017810998143009900998006847077FF5CB
:1034200000AEEFF31185102080F31288088880B277
:1034300040F400700880D8F818000E8A471CC8F8BD
:103440001870EDB2067085F311880D8AD8F818103F
:103450006FF001004E1CC8F818600D70C8E9022317
:10346000C8F8140088F81C4088F80240E7E50020FE
:1034700006900790012007910690069C002C00F012
:10348000EB80079C14340794079C246864067FF53E
:10349000C8AD0C8AD8F818104D1CC8F818500C701C
:1034A000D8F8141088F81C000139C8E90223C8F8BC
:1034B000141088F80200C2E50F9918310F910F9986
:1034C0000968AEE505991831059105990968A8E5DF
:1034D00001991831019101990968A2E50D991831F6
:1034E0000D910D9909689CE5039918310391039991
:1034F000096896E5088880B240F4007008800121D0
:10350000C8E9022388F8021099E500BF0100030012
:10351000B82B0020088820F480600004000C08808C
:10352000EFF31184102080F31288088B088880B292
:1035300040F40070E4B2088084F311880C2188F80C
:1035400002105BE616B13368B2885A830BF0B4F907
:1035500004460D460BF0B0F9031B61EB0501052B8A
:1035600071F10003F6D316B13368B2881A830BF0F9
:10357000A3F904460D460BF09FF9031B61EB05010F
:10358000052B71F10003F6D3B9F101097FF4ADAE5B
:1035900016B13368B2885A830BF08EF904460D4693
:1035A0000BF08AF9031B61EB0501052B71F1000398
:1035B000F6D3BAF1000F04D0DAF80030BAF80420DC
:1035C0005A830BF079F904460D460BF075F9031B8D
:1035D00061EB0501052B71F10003F6D316B13368D9
:1035E000B2881A830BF068F904460D460BF064F9B3
:1035F000031B61EB0502052B72F10003F6D3BAF150
:10360000000F04D0DAF80030BAF804201A8398F9D1
:103610000000441C3FF43DAEFFF7C2FB39E60F2328
:1036200088F802300BE5088880B240F4007008800A
:103630000121C8E9022388F81C1088F80210FEE472
:1036400009991831099109990968EAE40B99183127
:103650000B910B990968E4E40799183107910799D0
:103660000968DEE4D8F81800098A441CC8F8184034
:103670000170D8F81410C8F808200139C8F81410DF
:10368000C8F80C30DBE4088880B240F400600880A1
:10369000EFF31184102080F31288088B088820F43F
:1036A00080600004000CE4B2088084F311880D21CE
:1036B00088F80210A2E5088820F480600004000C5D
:1036C0000880EFF31184102080F31288D8F81800D6
:1036D0000D8A461CC8F818600570088880B240F44E
:1036E0000070E4B2088084F31188D8F81800098AC1
:1036F000441CC8F818400170D8F814100C20023986
:10370000C8E90223C8F8141088F8020097E498F872
:103710001030002B3FF4B5AD2BE600BF38B5184D87
:103720009DF814E005EB40144FEA401C94F839056D
:1037300000B938BD84F84B25C4F84C35012200236C
:10374000490005F5A76584F84A2584F85435049A9C
:1037500084F848E5022384F84915C4F8502584F814
:103760003A3565440BF0A8F802460B462846FFF7A9
:1037700027FC94F83A35002BF4D194F8540538BD61
:10378000B82B002038B5184D9DF814E005EB401417
:103790004FEA401C94F8390500B938BD490084F857
:1037A0004B25C4F84C3584F849150023049984F856
:1037B00048E5022205F5A76584F84A35C4F8501596
:1037C00084F8543584F83A2565440BF075F80246C0
:1037D0000B462846FFF7F4FB94F83A35002BF4D15A
:1037E00094F8540538BD00BFB82B0020F0B587B061
:1037F0000023824A00930193136843F480331360DB
:1038000003E0009BB3F5A04F09D0136803F4003325
:103810000193009B01330093019B002BF1D0774B68
:103820001B6813F4003318BF01230193019B012B84
:1038300001D000BFFDE7714B71491A6C714842F02D
:1038400080521A640A6842F440420A609A689A6098
:103850009A6842F400429A609A6842F4A0529A60D0
:1038600058601A6842F080721A601A689201FCD59A
:10387000654A40F205711160996821F00301996071
:10388000996841F00201A2F580629960936803F0A3
:103890000C03082BFAD1936803F00C03042B00F0FF
:1038A0008C80082B00F08E80584D594BC5F8E439B8
:1038B000524BD5F8E4199A68564C5748C2F3031294
:1038C0002A44002692F8882CD140544AC5F8E419BD
:1038D000E260534A596FA260596B524A21F080014D
:1038E0005963596F41F080715967196B0A431A6324
:1038F0005A6B5A639A6B9A631A6C4B490A431A645F
:10390000596C4A4A0A435A6402A948F2FF73029367
:103910004FF6FF770396FFF75FF800F58060029798
:10392000FFF75AF800F580600297FFF755F800F5A9
:103930008060FFF751F800F58060FFF74DF800F563
:103940008060FFF749F800F58060FFF745F800F563
:103950008060FFF741F800F58060FFF73DF808460A
:10396000FFF7D8F8D4F8FC30029A3149314843F0D7
:103970008073C4F8FC30304BC3F8B01F5E60196828
:1039800041F001011960D5F8E4394FF47A71B3FBC5
:10399000F1F3013BB3F1807F2849B2FBF1F2C0F8AB
:1039A0009C2508D24FF0E022F0215361072384F8D0
:1039B00023109661136107B0F0BD144D204BC5F87C
:1039C000E43975E753685168104D13F4800F01F026
:1039D0003F01536814BF1A4A0D4AB2FBF1F1074A7E
:1039E0005268C2F30142C3F38813013201FB03F3AF
:1039F0005200B3FBF2F3C5F8E43959E7003802404E
:103A00000070004008544007003C024000000020C5
:103A10000024F40000ED00E0000002400003FA057D
:103A200000000008FF916700FFC9FE103357070030
:103A300055CEACC5B82B0020001000E040420F006E
:103A400000127A0082B0064B002201920193019B82
:103A500003EB80000190019B196002B0704700BF2A
:103A60005028004010B51C2006F080FA11210446B1
:103A700001F0ECFD4CB12368A2885A83C8200AF0FB
:103A800049FF2368A2881A8310BDBDE81040C820F2
:103A90000AF040BF704700BF704700BF704700BFCB
:103AA00010B5124C94F8AA3523B9114B4FF480226B
:103AB0005A6110BD4FF0E022D2F8103D23F006030A
:103AC000C2F8103DFEF766FA94F8AA35002BECD048
:103AD000D4F8B0359B68DB07E7D5D4F8AC2613687B
:103AE00023F0030161F307031360DEE7B82B002026
:103AF000003C01402DE9F04FB34CD4F8AC355A6985
:103B0000D2078BB002D50BB0BDE8F08F5A699B6924
:103B100012EA0309F7D0C9F3074319F4002F009301
:103B200040F0E180009B590743D419F0020F5FFA7F
:103B300089F603D0D4F8AC3502225A61B9F1000FEE
:103B4000C0F2EE8119F4006FC9F3072540F04A81F5
:103B5000330708D59D4B9E48D3F8A43C9847D4F82A
:103B6000AC3508225A61F70600F1C481EE0600F177
:103B70006F81A90600F1E880009BDA0609D5934B16
:103B80009348D3F8B43C9847D4F8AC354FF480123E
:103B90005A61009B9B06B6D58C4B8D48D3F8B83C38
:103BA0009847D4F8AC354FF400125A610BB0BDE819
:103BB000F08FD4F8B0259369D26913401FFA83FAC5
:103BC000BAF1000FB1D0DFF81882CDF80C90A8F14F
:103BD000180500271AF0010F78D0FEB2D4F8B025EE
:103BE00004EB86031069D3F8B815536B8968F3406A
:103BF000DB01DBB203430B4013F00109D9B240F003
:103C0000AB810A0740F1C881D8F8002008239360EF
:103C1000994619F0800F59D0D5E94CC0D5F8243118
:103C2000D8F800E0ACEB00018B42DEF8182028BF8A
:103C30000B4692B20333B2EB930F47D9D4F8B025B9
:103C400094F8A395323604EB8603CDE901786746F4
:103C500098469446874237D9D5F82431391A994283
:103C600028BF194601F1030BD5F828314FEA9B0B09
:103C7000B9F1000F10D18AB203329210D8F8A865BA
:103C80000AD04846013053F8047B37608242F9D1AC
:103C9000D5E94C70D5F8283108440B44B842C5F832
:103CA0002831C5F83401DEF818300AD195F81C1116
:103CB000012202FA01F1DCF8342022EA0102CCF8F8
:103CC00034209BB29B45C5D3DDE901785FEA5A0AEF
:103CD00007F1010708F1040805F128057FF47AAF20
:103CE000DDF80C9021E7D4F8B0359D69DB691D4003
:103CF0002D0C3FF417AF04F5B468DFF8D0B004F230
:103D0000F4560027C24608E06D0807F1010706F1E6
:103D1000040608F128083FF405AFEB07F4D5F9B223
:103D200004EB8103D4F8B025D3F8F4359B685269CD
:103D30001340D807DAB200F13F81930740F1678161
:103D4000336802229A60DFE7D4F8B035D4F8B815AA
:103D50009A680868C2F34102022A06BF032262F38E
:103D60000A006FF30A0008605A6842F480725A60D1
:103D700006A8FEF7CFFED4F8AC25D4F8B015D3686A
:103D8000079D6FF38D23D36088681249C0F341000B
:103D9000014491F8D010032900F05F810E490F48CB
:103DA0000126294484F8A26581424FF04006A4F818
:103DB000A46500F2AC810E2161F38D234FF4005114
:103DC000D3605161D8E600BFB82B0020000000206E
:103DD00058310020281A0708401E1BFF3F420F00E1
:103DE0007031002000238DF8133094F8B2368DF82E
:103DF0001330B64BB648D3F8AC3C9847D4F8B0353E
:103E0000D4F8AC25986894F8AA354FF40061516154
:103E1000002B3FF49DAEC2077FF59AAE94F8B536FD
:103E2000012B7FF495AE9DF81330032B7FF490AEF9
:103E3000D4F8AC36A7491A6842F001021A601A6831
:103E400042F003021A600B6943F006030B617FE640
:103E5000D4F8B065D4F8AC157368002723F00103DB
:103E600073600597059B43F020030593059B67F35B
:103E70008A130593059B0B610B690593BC46964B12
:103E800003E00A690592013B02D0059A9006F8D436
:103E900094F8A12552B1914B03EB820EFF2253F807
:103EA000040F8260D86B73458260F8D10B2363F3F3
:103EB000070763F3070C4FF0FF33B3614FF00113B3
:103EC000F3617761C6F810C0336885486FF30A1351
:103ED000336094F8A325D4F8F435012A186100F072
:103EE000B5804FF480534B61784B7948D3F8A83CA8
:103EF00098473EE6D4F8AC359A6922F010029A61F0
:103F00001A6AC2F34340022802F00F0100F0B080A9
:103F1000062800F087809A6942F010029A6125E62F
:103F200094F8AA353BB1D4F8AC26136823F003010A
:103F300061F307031360D4F8B025644B6448D3F8E9
:103F4000B01C536823F0010353608847D4F8AC35A4
:103F50004FF000425A61F5E5516BD8F800005B4B19
:103F60004FF0010C0CFA07FC21EA0C01516301220D
:103F7000D3F89C3C826031465548984794F8A33565
:103F8000012B00F0B18019F0020F3FF442AED8F8D7
:103F9000003002229A6099E6CB0604D5D8F80030AA
:103FA00010229A6092E6480658BF8946EBD5D8F8A9
:103FB000003040229A6089E694F8A32533680120F6
:103FC0008242986007D11A69D8F87C33C2F3120292
:103FD0009B1AC8F88C33DBF8983C5046984794F805
:103FE000A335012B7FF490AE002F7FF48DAE94F8B3
:103FF000B136052B7FF488AED4F8F435384A1A610F
:10400000384A5A611A684FF080221A607CE610071D
:104010007FF57AAEDBF8A03C50469847336808221B
:104020009A6071E601EB810104EBC101D4F870667E
:10403000D1F82C09C2F30A1202443068C4F86C0BA0
:104040003068C4F8700BC1F82C2964E7254A5A611E
:104050001A684FF080221A6043E7002184F8A21505
:104060004FF40071A4F8A415092161F38D23A5E68E
:1040700047F6F07010423FF44EAFC2F30A1201EB64
:10408000810004EBC00002F1030C5FEAAC0CD0F835
:104090002069D4F870E64FEA810818BF002006D0E6
:1040A0000130DEF8007046F8047B8445F8D14144C5
:1040B00004EBC101D1F820091044C1F82009D1F85E
:1040C0002C090244C1F82C2925E700BF000000207C
:1040D0005831002000ED00E0400D03006C3100205D
:1040E0001800086024370020002F7FF44CAF94F8AC
:1040F000B136042B7FF447AFD4F8F4352B4A1A615C
:104100002B4A5A611A684FF080221A603BE729480F
:10411000A5F57401A1F51051814203D80D2161F379
:104120008D234BE6244925482944814203D20C21A2
:1041300061F38D2342E62248A5F18C71A1F543413C
:10414000814203D80B2161F38D2337E61D491E48B8
:104150002944814203D20A2161F38D232EE61B49B3
:104160001B482944814203D2092161F38D2325E6AE
:104170001848A5F1B771A1F55851814203D2082121
:1041800061F38D231AE6144914482944814203D26D
:10419000072161F38D2311E6114912482944814218
:1041A00034BF0621052161F38D2307E6180008605E
:1041B00024370020DFC810002013FBFE20D6130098
:1041C000FF69180000D3CEFE40771B00C05BB3FE32
:1041D000C091210040AC2700C01D6AFE40E13300C1
:1041E000803C36FEE09C410070B51A4D1A4BC5F874
:1041F000943B1A4B85F8A01B002683F82F6905F61F
:104200009433C0E954330D230446C0F8583140F2CA
:104210000113C0F85C6100F5A271A0F8443166F0AA
:1042200037FAE378C4F8B4631F22C4F8B02301223C
:1042300005F598659342C4F8A853A4F89C2308BFD9
:10424000C4F8AC5304F567712046BDE8704066F0D1
:104250001FBA00BFB82B002055534253C01A00208C
:10426000F0B50B7813F0600683B00C46054633D0EA
:10427000202E2DD14A78FE2A6BD0FF2A63D14A889E
:10428000002A40F08B80CA88002A40F087801906F7
:1042900000F184806148624B80F82F29C5F8B4236F
:1042A000EA78012183F8E014A5F89C1303F59863DC
:1042B0001F21012AC5F8B013C5F8A83305F56771A9
:1042C00008BFC5F8AC33284666F0E2F9002600E0E6
:1042D0000026304603B0F0BD4B780A2B6AD00B2B7A
:1042E00063D0012BF5D18B88D9B21B0676D4019609
:1042F000019BC06843F010030193019B03610369B4
:104300000193484B03E002690192013B02D0019AFC
:10431000D206F8D42846424F66F0AAF80223217943
:104320004022284666F0D6F897F8E034022B6DD08C
:1043300094F90420002ACCDA012BCAD001212846A6
:10434000FFF752FFC5E763F039FE0226304603B09F
:10435000F0BD4E8816BBCC88012C1FD118061DD588
:104360002F4FD7F8F8349B699847C0B287F8A40B51
:10437000A0B1022307F6A43785F811314FF48073FA
:10438000C5E94E44C5E94A77C5E94C46A5F81C3154
:1043900005F58E71284666F00DF99AE7284663F018
:1043A0000DFE0226304603B0F0BD1D4B4A8883F84F
:1043B000A52B8EE7022280F811214FF48072A0F81D
:1043C0001C21194A0123C0E94E33C0E94A22C0E941
:1043D0004C3600F58E7166F0EDF87AE70096009B9A
:1043E000C06843F020030093009B61F38A1300939D
:1043F000009B0361036900930A4B03E0026900928A
:10440000013B87D0009A9706F8D483E7812128469C
:1044100063F00CFE002387F8E0345AE7C01A00204E
:10442000B82B0020400D03005D37002010B50D4B68
:1044300093F82F39022B07D0033B012B02D8002120
:10444000FFF7D2FE002010BD074B93F8CD140446B1
:1044500066F0D0F90028F5DA01212046FFF7C4FE06
:10446000F0E700BFC01A0020B82B0020F8B5404E7E
:1044700096F82F59074655B1012D06D13D4B93F8BB
:10448000CD1466F0B7F9002832DB0020F8BD394CB6
:10449000B0F8B433D4F8C424C4F8982B1F2BD4F844
:1044A000C824C4F89C2B08D1334BD4F8C0249A42BA
:1044B00003D194F8CD1401291FD994F8A63B04EB3D
:1044C000C3020133DBB2042B4FF0050108BF002308
:1044D00082F8A81B4FF4005184F8A63B384602230B
:1044E000C2F8AC1B84F8E034FCF7E4FC0020F8BD13
:1044F00029463846FFF778FEC7E794F8CE34013BEB
:104500000F2BDAD866F076F9002827DB96F82F39DA
:10451000013B022BB9D9B4F8C83B1BB3042286F87F
:104520002F29164AC7F85C51C7E95422D4F8C82489
:1045300084F8A05B934228BF1346D4F89C2BC7F89D
:10454000583140F20111A7F84411D31A07F5A271AE
:104550003846C4F89C3B66F09BF896E73846FCF773
:10456000A9FC92E719463846FFF73EFE8DE700BFEB
:10457000C01A0020B82B002055534243AC5B0020EA
:104580002DE9F04F93B041F057FC41F01BFCAB4BD1
:104590000793B0F1000940F329814FF0000A9B46D0
:1045A000A74BA84CCDF804A002935646D04604E091
:1045B00008F50068C14540F38F8020220AA94046D3
:1045C00041F086FBA04912220AA86DF0DFF90546EA
:1045D0000028EDD1B04521D0019A9C4F9C49CDF8DF
:1045E0000CB002EB420307EB83070132384601921D
:1045F00002F028FDDBF81C20039B43F84C7BCBE941
:104600000822944ACBF80C60CBF82820A8EB0606C9
:104610000122CBE90466CBF808209B46029BD3F825
:10462000C43CCBF81C304646122212AB991814F841
:104630000A3011F8201C994202F101020CD04FF00F
:10464000000A202AF1D12036B1450AA9304639DBCB
:1046500041F03EFB0022E8E70AF1010ABAF1150F2A
:10466000EFD190190AA9202241F032FB7A4909AA18
:104670000AA86DF0E2F828B30027CDE90477039784
:1046800006973E46731E042B00F29F81DFE803F07D
:104690009A8DA29E030003F017FA0546069989B188
:1046A000DDE90423039843EA42127B0143EAC02375
:1046B000A1F2BC7143EA650342EA412243EA0243A4
:1046C000CBF81C30019B642B00F0B480464608F503
:1046D0000068C1453FF771AF019A642A00F0AA80D3
:1046E000B0457BD0594C5A495A4F0C2303FB024426
:1046F000531C1A462046A8EB0605019302F0A2FCC3
:10470000DBF81C30CBF80040CBE90365CBE908337C
:104710000123CBF81450CBF82870CBF80830019B5C
:104720001D1D4E4C0299D4F84C61C1F8C46C4C224A
:1047300002FB05F56319002118466DF0D8F84C22EC
:1047400000216DF0D4F8DFF820A144F805A0019D08
:104750008762C0E90499C0E907664FF00108C0F814
:104760000880466205354FEA4903B3F1805F42DBBA
:10477000029B3B493948D3F8C45C4FF498726CF003
:104780007DFE3649079A0C460B465D62C3E9075524
:104790004C339A42F9D1A66826B9237913B123681C
:1047A000002B63D113B0BDE8F08F03F08DF90590B5
:1047B0002949002009AA6DF040F8013600287FF44D
:1047C00061AF6BE703F080F90490F1E703F07CF947
:1047D0000746EDE703F078F90390E9E7019B1D1D1B
:1047E000002B40F0F0801D4C0425BCE7144A0292D7
:1047F0000425A3F598744C2202FB05F563191846AD
:1048000000216DF074F84C2200216DF070F80299CF
:10481000C9F100620346520012486051D1F8C41C2D
:104820005962C3E9042202225A710122C3E9071125
:104830009A609DE76423074F019370E7643D002071
:1048400000000020ACB8070888B8070884370020AB
:104850009CB80708851F0008C4B80708343C00202E
:10486000FC1A0708DCB80708CCB80708C4E91166C9
:10487000584A2664E663304637468E46D56C02F1C8
:104880004C0355B3D3F808C01F64451EAC45C3E9BB
:104890001177DF6313D0451CAC4517D0844581D117
:1048A0000546002D3FF47EAF106CC16B01F1010C89
:1048B000C0F83CC01864936428461A46DEE7002816
:1048C0003FF470AF854253F80C2CEAD110790028E0
:1048D0003FF468AF53641A64EEE7714602222F4634
:1048E000A64613E0CB6B0A635B011DBF03F6FF70A6
:1048F00002F1FF3303EB10331346C1E90477C1E93A
:104900000D3351F84C0F5A1C0136C8B10B79002BEE
:10491000E8D10B690A63002B48D14C691046531E3D
:104920004863002C4BD004F6FF7C03EB1C33281AA1
:104930008B63C51851F84C0F5A1C01360028E5D17D
:1049400025493E22C1F8402D3F22013BC1F8442DAC
:10495000C1F8585D4022214DC1F8482D7446C1F878
:10496000646DC1F8543D980F9A00C1F83C5D43B3A3
:1049700040F2FF15521940F10000520A42EAC052BB
:1049800002F14000024402EBC303C1F8502D144A67
:10499000C1F84C0DC1F85C4DC1F8604DD80D5C02FA
:1049A000C1F8383DC1F8304D5060FBE603F6FF7C9E
:1049B0004C69531E03EB1C304863002CB3D11346E3
:1049C000B5E70122DCE7074FABE603F07DF8069080
:1049D000EEE600BF343C0020C01A0020ECB8070807
:1049E000F0270020851F00082DE9F04F604D85B0AD
:1049F000EB892868B5F80C8001911B0229896E8922
:104A00002C8AC01A67EB07074FEA014EA8FB001C6F
:104A1000EB8808FB07CCC90941EA4C6111EB0E0198
:104A200093464FEAC332A6FB003E06FB07EE4FEA71
:104A3000132343EA0E634FEAEC1C4CF1000C9B1865
:104A4000A4FB002604FB07644FEAD25242EA442248
:104A50004FEA2E2E4FEAE4544EF1000E12F5FA6999
:104A600044F10006B9F5FA6F029476F1000403965A
:104A700031DA029CA2FB02A602FB04F806EB480412
:104A80004FEA84084FEA8A0616EB0A0648EA9A7843
:104A900044EB08084FEA560A4AEAC87AB608354C89
:104AA000B1EB0A0146EA88766CEB680C9B1B039E0F
:104AB0006EEBA80EA1454FF0FF3476EB040426DB25
:104AC00000FB07F7A0FB000202EB4707C00F40EA1C
:104AD0004700B9EB0009019C84B16869A0FB03326F
:104AE00000FB0E2E5B0D43EACE235B1A4FEA6E5E8F
:104AF0006EEB0C0CDB0B43EA4C432360BBF1000F65
:104B000001D0CBF80090012005B0BDE8F08F40F651
:104B1000AC56029C921944F1000402FB04F4A2FB7F
:104B2000028202EB4404E6004FEAC802B8EB02023C
:104B300046EA587664EB060651184CEB060C18EB67
:104B4000080644EB040A16EB080644EB0A0A4FEA8F
:104B50008A0A4AEA967AB600B6EB08026AEB0404BF
:104B6000520842EAC4729B1A6EEB640EA8E700BFBB
:104B7000B06B002024FAFFFF007970470079C0F382
:104B80004010704700794009704700BF704700BF70
:104B9000704700BFD0ED007AD0ED036A30EE677A3F
:104BA000E6EE877AB0EE670AC0ED007A704700BF84
:104BB000D0ED017AF5EE407AF1EE10FA05D19FEDD5
:104BC0000C7AC7EE207AC0ED017A31EE277AD0ED6B
:104BD000007A80ED021AC1EE076A30EE677AC0ED06
:104BE000036AE6EE877AB0EE670AC0ED007A704796
:104BF00083F9223E9FED047AC7EE007A77EEA07A21
:104C000080EEA70A704700BF72C7D13D0023036042
:104C1000436080ED020A704790ED017AD0ED036A9F
:104C2000D0ED027A30EE470AA6EE807A90ED000AC7
:104C300080ED017A37EE676AE6EE867A37EEC07A63
:104C4000C0ED027AA6EE870A80ED000A704700BF29
:104C5000D0ED056AD0ED017A90ED007A90ED066A0C
:104C6000D0ED025A90ED035A80ED050A66EEA77A60
:104C7000C0ED066AE7EE007A90ED077AE5EE867AF7
:104C800090ED086AD0ED045A80ED087AE5EE477A97
:104C9000E5EEC67AB0EE670AC0ED077A704700BF4E
:104CA000D0ED057A90ED006A90ED067AD0ED035ACA
:104CB000E6EE007A90ED016AF0EE406AA6EE267A02
:104CC000B0EE670AD0ED047A90ED026A67EEC07A22
:104CD000A5EEC07AE6EE267A80ED057AC0ED067A7A
:104CE000704700BF03685A1C02601970704700BF0C
:104CF00003690133012B03611CD0D0ED005AD0EDC4
:104D0000026A07EE903A30EE656AF8EEE77A86EED0
:104D1000277A77EE257AB0EE667A30EE670AC0ED34
:104D2000017AA6EE007AC0ED007A80ED037A80ED7C
:104D3000027A7047002380ED010A80ED000A83604B
:104D4000704700BF03685A1C02601970704700BFAB
:104D5000024B986903681B68184700BFB06B0020BE
:104D600090F83020034602F0FF0012B1002283F8D1
:104D7000302070474FF400638381704770B5374C23
:104D8000638DA08BB4F93450B4F92E60B4F922C00D
:104D9000C01A238D00FB03F3B4F9320005EBE335B1
:104DA000C00290FBF5F000EBE330A0F57A6EB4F9A9
:104DB0002C30A0630EFB0EF52D1305FB06F605FB4C
:104DC00003F3B4F924500EFB0CFC4FEAEC2C0EFB61
:104DD00005FE1B14B4F920500CEBE62C03EB6E33EC
:104DE0000CEB850C0233B4F93C50266CE48C9B1020
:104DF00003F500430CFA05FC04FB03F30CF1020C71
:104E00004CF25034A6EBAC0C2C4104FB0CF4002CFF
:104E10004FEAD333ABBF6400B4FBF3F3B4FBF3F35B
:104E20005B0089B11C120E4D04FB04F440F6DE3623
:104E300006FB04F403FB05F5241404EB254404F6F7
:104E4000CF6403EB24130B602AB100EB8000400019
:104E5000083000111060012070BD00BFB06B002051
:104E600043E3FFFF01207047012070472DE9F84F11
:104E70006E4DD5F844C0B5F84800B5F95290B5F874
:104E80004EE0C0EB2C1303FB03F4B5F94C302413B4
:104E900003FB04F44000B5F94A30C0EBEC0003FB1F
:104EA00000F0A41304EBE024B5F950302C660F4653
:104EB000A4F5FA31164683FB013281FB018C120303
:104EC0004FEAE97B42EA13524FEA033A09FB0CF33B
:104ED00008FB0B3BA9FB0839D9441B0A43EA0963C9
:104EE00013EB0A0342EB292202F50042A3FB0E3921
:104EF0000EFB029E4FEAEE734FEA6E0253EA6E0E0D
:104F00004FF0000000F08580B5F9589009FB0CFEC9
:104F1000B5F956C08CFB011C4FEAE97A4FEA4C4CBC
:104F200008FB0AEE4CEAD13CA9FB0898490411EBB6
:104F30000901F04448EB0C0C4018696EC1F580196A
:104F4000B5F9541009F0004E4FEAC978B8EB0008E3
:104F50000CEBC1014EEA590E6EEB010E18EB080C7A
:104F60004EEB0E011CEB080C4EEB01014FEA8119D0
:104F70004FEA8C1049EA9C691CEB000C41EB0901DB
:104F8000890041EA9C714FEA8C0C1CEB080C4EEB3B
:104F900001014FEA8C00890010EB080041EA9C7186
:104FA0004EEB010166F0C8FEB5F95E20B5F95CE094
:104FB000B5F95A504FEA6138430B43EAC14302FB4B
:104FC00008FC4FEAE27903FB09C9A2FB032CCC449D
:104FD00002FB08F803FB0C88A2FB032CC444520E0E
:104FE00042EACC12121841EB6C6C4FEAEE730EFBE6
:104FF00001F103FB0011AEFB00300144DB0C43EA7E
:105000004133D0184CEBE141000A40EA016000EB6B
:1050100005100FB1000A386026B104EB8404803417
:10502000241234600120BDE8F88F00BFB06B00206F
:10503000012070470C4B0D481B6810B4846E1B1B7D
:10504000FA2B09D809B1C36E0B604AB1036F5DF842
:10505000044B13600120704700205DF8044B70473B
:1050600001205DF8044B70472C300020B06B00200D
:10507000034B0022C3E91D22C3E91F220120704710
:10508000B06B00200A4B0B4A1B68D2F880105B1AE9
:10509000FA2B0AD810B4D2E91D41D36FC486018718
:1050A00043875DF8044B012070470020704700BF24
:1050B0002C300020B06B002000487047C80C002046
:1050C00070B5224E224C35463622002104F1840070
:1050D0006CF00DFC55F8103F00209847336BC4F876
:1050E000BC50984783683BB304F184020688944619
:1050F000104600210578032D00F106001ED0013175
:105100000929F7D1701E80B200231178022902F11B
:10511000060209D00133092BF7D1D4F8C030082B8F
:105120000AD05A1CC4F8C020062202FB03C3022185
:10513000002219705A809880012070BD062303FB5D
:105140000141B1F88600013880B2DDE7C80C0020CB
:10515000B06B00202DE9F0410C4E356873691D409D
:1051600011D0DFF82C800127B5FA85F4C4F11F04B3
:1051700008EB840307FA04F4D3F8C40003689847E3
:10518000A5437461F0D1BDE8F08100BF003C01404F
:10519000B06B0020234B244A30B5D3F8044194F976
:1051A0001030A16803EB830302EB830383B08A070B
:1051B0008DF80700586B0AD501230DF10702002175
:1051C00065F02CFEA3689B0714D503B030BD63695E
:1051D00013B11A689B885383144B15491A68154BF1
:1051E0004D68D200A3FB023292094B685B1B9A42C6
:1051F000FBD2E1E70D4B0E491A680E4B4FF4FA70E3
:1052000000FB02F2A3FB0232486892094B681B1AAA
:105210009A42FBD26369002BD7D01A689B8813830C
:1052200003B030BDB06B0020C80C0020543100200A
:10523000001000E0D34D621070B52B4C94F808318B
:1052400082B023B9012084F8083102B070BDD4F8CF
:105250000451264A95F91030A96803EB830302EB49
:1052600083030522ADF800208A07586B11D502236D
:105270006A4601A965F0D2FDAB689B071CD59DF875
:10528000053003F0010383F0010084F8083102B017
:1052900070BD6B6913B11A689B885383144B154911
:1052A0001A68154B4E68D200A3FB023292094B6874
:1052B0009B1B9A42FBD2DAE70D4B0E491A680E4B44
:1052C00048684FF4FA7606FB02F2A3FB0232920919
:1052D0004B681B1A9A42FBD26B69002BCFD01A681D
:1052E0009B881383CBE700BFB06B0020C80C002065
:1052F00054310020001000E0D34D62102DE9F0433E
:1053000083B0002861D1334DD5F80C6195F8083190
:10531000314F324CDFF8D08033B900230120C5F87B
:105320000C3103B0BDE8F083D5F8049199F9103041
:10533000D9F8082003EB830307EB830305219207C9
:10534000586BADF8001018D502236A4601A965F024
:1053500065FDD9F808309B0721D59DF8053003F08D
:10536000010385F80831002BD7D01D4A12689642F8
:10537000D2D8002003B0BDE8F083D9F8143013B1BF
:105380001A689B885383174B61681A68D200A8FB80
:105390000232920963685B1A9A42FBD2D4E7114B3E
:1053A00061681A684FF4FA7303FB02F2A8FB023239
:1053B000920963685B1A9A42FBD2D9F81430002B29
:1053C000CBD01A689B881383C7E7054B014D1E6835
:1053D00006449BE7B06B0020C80C0020001000E0E2
:1053E0002C30002054310020D34D6210F0B5404CD9
:1053F00083B094F81021D8250021034600958DF83C
:10540000041082B1020C050E8DF8022008461A0A1B
:105410008DF801508DF803208DF80430FFF76EFFF2
:1054200090BB03B0F0BD050C010A10468DF8015089
:105430008DF802108DF80330FFF760FF0028F0D0E0
:105440000620FFF7A7FE0123D4F8045184F80831A1
:10545000042395F91020274902EB820201EB820216
:10546000A968506B8A0719D56A46002165F0D6FCF9
:10547000AB689B0725D5204B1B6803F59C5308336D
:10548000C4F80C3103B0F0BD0620FFF783FE012302
:1054900084F80831D4F804510523DAE76A6912B1B7
:1054A000116892884A83154A154E1168154A776823
:1054B000C900A2FB012189097268D21B9142FBD26B
:1054C000D2E70E4B0E491A680E4B48684FF4FA7635
:1054D00006FB02F2A3FB023292094B681B1A9A42A6
:1054E000FBD26B69002BC6D01A689B881383C2E776
:1054F000B06B0020C80C00202C300020543100205C
:10550000001000E0D34D621010B50020FFF7F6FE4A
:1055100000B910BD084C0620FFF73CFE0123C72050
:1055200084F80831FFF736FE044B1B6803F5A443EB
:105530000833C4F80C3110BDB06B00202C300020B3
:1055400070B588B002260096204ECDF80CD01546D6
:1055500096F81021002304468DF804300293AAB176
:10556000CDE9061505930522030E8DF8013004924E
:105570000DF10203220C1A70220A5A7000209C704E
:10558000FFF7BCFE50B9204608B070BDCDE905213B
:10559000042207950DF101030492EBE70620FFF7C3
:1055A000F9FDD6F80401012386F808310379022BAE
:1055B00008D0074B1B682C4406332046C6F80C3134
:1055C00008B070BD02A965F079FCF2E7B06B00206D
:1055D0002C30002070B588B0032600961A4ECDF806
:1055E0000CD0144696F81021002503468DF804507F
:1055F0000295A2B1CDE90654020E059105218DF860
:10560000012004910DF10202190C1170190A517058
:1056100000209370FFF772FE48B908B070BDCDE965
:105620000512042107940DF101020491ECE7D6F86C
:1056300004010379022B18BF2046EED102A965F0C0
:105640003DFC2046E9E700BFB06B002020B30368B3
:10565000124A30B503F13F4303F57E039B0A05462A
:1056600083B00C46D05C62F009FFA988009104F079
:105670000303C4F381028DF8043028688DF80520F7
:10568000C4F30013694664098DF806308DF80740AD
:10569000FDF7A2F903B030BD704700BFF01A07084C
:1056A00082B08DED010A019802B07047C31783EAFA
:1056B000400070479FED087AC0ED020AC7EE007AFD
:1056C0000023036030EEA77AC0ED017AC0EE877A3E
:1056D000C0ED037A704700BF83F9223E80ED010AD6
:1056E000704700BF90ED017AD0ED007AC0ED020A5C
:1056F00030EE877AC0EE876A30EE677AE6EE877A18
:10570000B0EE670AC0ED007A704700BF80ED000A76
:10571000704700BF9FED047AC7EE007A77EEA07A5B
:1057200080EEA70A704700BF4E2DA63D0023036000
:105730004360836080ED030A704700BF80ED030A79
:10574000704700BFF5EEC00AF1EE10FA06DCF0EE8D
:10575000407A80ED000AB0EE670A704760EE810A79
:1057600090ED007A77EE607AF4EEC07AF1EE10FAFE
:105770000ADC77EE200AF4EEC00AF1EE10FA8CBFD4
:10578000F0EE407AF0EE607AC0ED007AB0EE670A93
:10579000704700BFB4EEE00AF1EE10FA07D4B4EEA1
:1057A000C10AF1EE10FA88BFB0EE410A7047B0EEC0
:1057B000600A7047894BB3FBF2F399420DD3002383
:1057C0004FF07E52026043608360C3600361002338
:1057D000836143610362C361704707EE902ADFED86
:1057E000806AB8EE677A07EE901A27EE267AF8EE0E
:1057F000677A27EE277AFDEEC77A17EE903A2033C4
:10580000402B00F2DA80DFED777AB4EEE77AF1EE42
:1058100010FAF0EE477A0CDDDFED735A9FED736AF4
:10582000F0EE676AF4EEC66AF1EE10FA77EEE57A0A
:10583000F6DCDFED6F6AF4EEE67AF1EE10FA0CD5E5
:10584000DFED695A9FED6B6AF0EE676AF4EEC66AA7
:10585000F1EE10FA77EEA57AF6D4DFED676AF4EE92
:10586000E67AF1EE10FA00F39C80DFED646AF4EE64
:10587000E67AF1EE10FA44BFDFED5D6A76EEE77A84
:1058800027EEA76ADFED5E5ADFED5E6A9FED5E5A96
:10589000DFED5E4AE6EE256ADFED5D5AA6EE265A9A
:1058A00027EE864AE6EE055AF7EE006AE4EE257A20
:1058B000F0EE665AE7EEA45AE7EEE46A86EEA54AF1
:1058C000DFED4D6A77EE267ABDEEE76A16EE103A06
:1058D0002033402B6AD8B4EEE67AF1EE10FA0CDDF4
:1058E0009FED416ADFED416AB0EE677AB4EEE67A89
:1058F000F1EE10FA77EEC67AF6DC9FED3D7AF4EE23
:10590000C77AF1EE10FA0CD59FED376ADFED396AF0
:10591000B0EE677AB4EEE67AF1EE10FA77EE867AB8
:10592000F6D49FED357AF4EEC77AF1EE10FA49DD40
:105930009FED2C7A77EE677A67EEA76A9FED306A63
:105940009FED307ADFED304A9FED315AA6EE867A30
:1059500027EEA63AE6EE874AB7EE006AA6EEA45A0C
:10596000B6EE007AE3EE057AF8EE003A36EE676AB4
:1059700067EEA37A26EE077AB7EE005AC5EE256ADF
:1059800080ED044A26EE877A26EE866A66EEA77ACE
:1059900080ED007A80ED016A80ED027AC0ED037A35
:1059A00015E7DFED106A76EEE77A69E7DFED197A41
:1059B000B6EE007AB7EE006ADEE7B7EE004AF0EE28
:1059C000445A7DE79FED0D7AF4EEC77AF1EE10FAB6
:1059D00044BF9FED077A77EE677AADE720A1070015
:1059E00027D4D236DB0F4940DB0FC940E4CB164148
:1059F000DB0F49C0E4CB16C1DB0FC93FDB0FC9BFCA
:105A00009A7C2E36FAAF4FB93587083CF304353F00
:105A1000A4AA2ABE0000000010B48D4CB4FBF2F41E
:105A2000A1420FD300234FF07E5202604360836097
:105A3000C360036100235DF8044B8361436103622B
:105A4000C361704707EE902A9FED827AF8EE676A8D
:105A500007EE901A66EE876AF8EE677A66EEA76A36
:105A6000FDEEE67A17EE902A2032402A00F2E0801E
:105A7000DFED797AF4EEE76AF1EE10FAF0EE667A8D
:105A80000CDDDFED765A9FED766AB0EE677AB4EE04
:105A9000C67AF1EE10FA77EEE57AF6DC9FED717AD0
:105AA000F4EEC77AF1EE10FA0CD5DFED6C5A9FEDEB
:105AB0006E6AB0EE677AB4EEC67AF1EE10FA77EE5F
:105AC000A57AF6D49FED697AF4EEC77AF1EE10FA72
:105AD00000F39E809FED667AF4EEC77AF1EE10FA3D
