:020000040800F2
:1000000000000120F5AE050891AF05088134040811
:10001000E534040891AF050891AF05080000000021
:1000200000000000000000000000000091AF050883
:1000300091AF05080000000091AF05085DDC0308E2
:1000400091AF050891AF050891AF050891AF05087C
:1000500091AF050891AF0508453604083D36040800
:10006000353604082D36040825360408F19E0508A7
:10007000E19E0508D19E0508C19E0508AD9E0508B4
:10008000999E0508859E050891AF050891AF050862
:1000900091AF050891AF050891AF05081D3604081A
:1000A0003D810508358205082D8105085D8205081A
:1000B00025820508158205080582050871A2050834
:1000C0007DA2050859A2050865A2050891AF05089B
:1000D00091AF0508F5DC0308E5DC0308D5DC03086F
:1000E0001536040891AF050891AF05081D81050874
:1000F0004D81050891AF050875810508719E0508B9
:1001000091AF0508A1700508F581050891AF0508B4
:10011000C5DC0308B5DC03088581050841DC00085F
:100120005D9E0508499E0508359E0508219E050827
:100130000D9E050800000000000000000000000007
:10014000000000000000000000000000D9E00008EE
:10015000F99D0508E59D0508D19D0508A5DC030866
:1001600041A205084DA2050891AF050891AF050809
:1001700091AF050891AF05080000000000000000E5
:1001800091AF050891AF050891AF050891AF05083B
:1001900091AF050891AF05080000000091AF050878
:1001A00000000000000000000000000091AF050802
:1001B00091AF050891AF05080000000000000000A5
:1001C000000000000000000000000000000000002F
:1001D00000000000000000000000000091AF0508D2
:0801E0004CAA0500010000001B
:1001E8000E02010002000000245301208C5301205C
:1001F80000000000B43107088853012014020100F0
:10020800050000004C2B0120945301200000000041
:10021800B631070890530120031101000A000000BD
:10022800D8520120A053012000000000AD0F0108A2
:100238009C5301202320010010000000A852012037
:10024800B053012000000000316E0208AC530120B9
:100258000D1001007000000030520120C45301202D
:100268000000000075580308C0530120FD0101007B
:1002780024000000B451012038540120000000007F
:100288002BC4030834540120FB01010001000000C5
:1002980070510120605401200000000079C004085A
:1002A8005C540120FC010100090000003C500120C1
:1002B800685401200000000081C004086454012033
:1002C800F7010100060000001050012078540120B9
:1002D80000000000BC31070874540120F901010036
:1002E8000400000000500120845401200000000098
:1002F80099C4030880540120340001001000000054
:100308002C4F01208C54012000000000E9750208E0
:10031800885401201102010008000000044F012048
:10032800A054012000000000C23107089C5401209D
:100338001212010004000000FC4E0120AC54012000
:1003480000000000CA310708A85401201830010035
:1003580038000000C44E0120B45401200000000001
:1003680079C80408B0540120000201000B00000005
:10037800484B0120F054012000000000C1C00408CF
:10038800EC540120FF21010005000000EC4A012087
:10039800005501200000000009C00408FC54012099
:1003A8000812040014000000F84A01200C5501202E
:1003B800000000001DC004080855012013020100B8
:1003C80004000000442B01202455012000000000F7
:1003D800CE31070820550120FA0101000300000072
:1003E8004C4A01202C5501200000000099C0040847
:1003F800285501202A02010008000000404A012077
:100408003455012000000000D23107083055012082
:100418002052010008000000F84901204055012041
:10042800000000000D7602083C550120061001006E
:1004380024000000D44901204C5501200000000090
:10044800FDC00408485501200C020100040000000A
:10045800704801207455012000000000C9C004083C
:1004680070550120FE010100140000008C340120A9
:100478007C55012000000000A9BF04087855012020
:100488000B3001001A000000C08F0120CC91012020
:1004980000000000DC310708C89101201F5001004E
:1004A80024000000848F0120EC910120000000004E
:1004B800F8310708E8910120050201000400000056
:1004C8003490012014920120000000001C3207081B
:1004D800109201201B2001000C0000002C95012027
:1004E800CC9F0120000000004D750108C89F012025
:1004F80021020100F00000005C930120DC9F012034
:1005080000000000F9810108D89F01203710010080
:1005180030000000E89C0120D0A00120000000006D
:1005280020320708CCA001201610010006000000A8
:10053800E896012004A101200000000050320708BD
:1005480000A101202F10010022000000A49F01201B
:1005580010A1012000000000563207080CA101205C
:1005680023220100100000004C96012038A1012030
:10057800000000007832070834A101201E000100A5
:1005880009000000349601204CA101200000000061
:100598008832070848A10120052001000C0000004E
:1005A800BC9601205CA101200000000094320708DD
:1005B80058A1012012300100100000001C960120F3
:1005C8006CA1012000000000A032070868A10120EA
:1005D800FD0701007C0000002092012080A101207D
:1005E80000000000BD6E01087CA10120F59101000A
:1005F8006C000000E092012000A201200000000031
:100608001D810108FCA10120261001000E00000038
:1006180080A2012070A2012000000000C16C010826
:100628006CA201201400010005000000E4B50120BF
:100638000CB6012000000000B032070808B60120FF
:10064800012001000C000000D0AA012018B60120EA
:1006580000000000B632070814B601200C4006005E
:10066800E400000084A9012028B601200000000051
:10067800BDFF020824B601200A90010024000000F2
:1006880040A9012010B7012000000000E96D020810
:100698000CB701200E300300BC0100007CA701202C
:1006A80038B70120000000002976020834B701207D
:1006B800131001000400000070B30120F8B80120F5
:1006C80000000000C4320708F4B80120010101004D
:1006D80004000000B4A6012000B9012000000000B9
:1006E80000000000FCB80120000101000400000027
:1006F800ACA6012008B9012000000000C832070894
:1007080004B901200201010003000000A8A601208D
:1007180010B9012000000000010003080CB90120F5
:10072800220201001C010000BCB0012018B9012000
:100738000000000051C9040814B901200102010099
:100748000B000000C0A6012038BA012000000000FC
:10075800B1C0040834BA01200202010003000000FD
:1007680048AB012048BA012000000000000000004A
:1007780044BA01201B0201001000000024AB012034
:1007880050BA012000000000E9C004084CBA01205A
:10079800150010007000000074C7012038C801203F
:1007A800000000000000000034C801202A000800F2
:1007B8006000000084C60120ACC8012000000000D1
:1007C800C1750208A8C801202C0004001000000010
:1007D80020C9012010C90120000000009D740208F2
:1007E8000CC901202920140078000000FCC3012056
:1007F80034C90120000000000000000030C90120B9
:100808001A0001000E00000020C30120B0C9012019
:1008180000000000CC320708ACC901202B001200F0
:1008280024000000FCC20120C4C90120000000000F
:1008380071740208C0C901201902010010000000EB
:1008480000C20120ECC9012000000000A1C004087A
:10085800E8C901201C0202001C00000034C001206D
:1008680000CA0120000000005DC60408FCC9012080
:10087800283001001600000050C0012020CA0120C5
:1008880000000000217702081CCA01200A020100AA
:1008980014000000B8D40120D4D4012000000000C6
:1008A80089FF0208D0D401201010010002000000C6
:1008B80040CE0120ECD4012000000000DA32070805
:1008C800E8D40120F83101000600000048CF0120DB
:1008D800F4D4012000000000DC320708F0D4012025
:1008E800030001000100000058CF012000D50120BD
:1008F8000000000000000000FCD4012019000100E5
:1009080005000000F8CD012008D5012000000000F6
:10091800E232070804D50120020001000C000000A3
:1009280020D6012074D8012000000000000000003B
:1009380070D80120F62101000C000000BCD701206E
:1009480084D8012000000000E832070880D8012080
:1009580025201E002C0100002CD6012094D801204F
:10096800000000000000000090D8012029020100CA
:10097800400000004CD50120C4D90120000000002F
:10098800F4320708C0D901202C020100040000003D
:100998003CD8012008DA01200000000034330708A1
:1009A80004DA01202802040004000000C8E1012044
:1009B800A0E7012000000000E5C004089CE7012032
:1009C8002702040004000000C4E10120A8E7012078
:1009D80000000000D9C00408A4E701201602150091
:1009E8003F000000B8DA0120B0E701200000000055
:1009F80019C00408ACE701201A0201003C000000FD
:100A08007CDA0120F4E7012000000000D5C80408C2
:100A1800F0E70120031201003D000000C8E30120B7
:100A280034E80120000000003833070830E80120CE
:100A3800382001000300000048DA012078E801208E
:100A4800000000007633070874E80120040008005D
:100A5800800000003CE90120BCEA01200000000001
:100A6800000000003CEB01200B2201003D000000CB
:100A7800A4EE012090F40120000000007C33070858
:100A88008CF401200D1201001400000068F401200C
:100A9800D4F4012000000000BC330708D0F4012082
:100AA8001E0201000600000004EF0120ECF4012002
:100AB80000000000D0330708E8F401201D020200FE
:100AC8000600000008F40120F8F4012000000000EE
:100AD80000000000F4F401200612040018000000D1
:100AE80010F4012004F501200000000031C70408BB
:100AF80000F501201F0208001000000030F5012059
:100B080020F5012000000000C1BF04081CF50120E9
:100B1800270001000400000018EF012044F501201F
:100B280000000000D633070840F50120100201003C
:100B380001000000441902204019022000000000B2
:080B4800DA3307083C19022012
:08280000082800080040000850
:10800000026C03463AB11A6CD20608D50022012050
:1080100083F83C207047426480F83C20F3E71A6CF8
:1080200049494A4811401A6841F00201F0B4196404
:108030004168474D21F44031416041685C6821430B
:1080400041605168186921F48071D3F808C0DF6875
:10805000516054689E6A44EA0024AE4254605468F9
:1080600024F040745460506840EA0C0050609068FE
:1080700020F400609060916841EA0701916054D05B
:108080009068DC6A20F07060906091680E439660A2
:10809000906820F040509060916821439160906812
:1080A0009C6920F002009060916841EA440191606F
:1080B00093F82010002941D05468596A44F40064B0
:1080C000481E5460516821F460415160516841EA92
:1080D00040315160D06A0025DC6920F470005E698F
:1080E000611ED0622846D46A44EA0154D46294687E
:1080F00024F400749460946893F8301044EA4124A6
:108100009460946824F480649460916841EA8621C4
:1081100091605D641A6C22F0030242F001021A645D
:10812000002283F83C20F0BC7047916821F0706118
:108130009160916821F040519160B0E7516821F45D
:1081400000615160C6E700BFFDEEFFFF0023014064
:108150000100000F0129F0B42A4C4FF000062A4D0F
:1081600094BF002701272368EE626662A6626763F8
:10817000676B47EA42076763EE63EC6B002A38D10E
:1081800044F49574EC631C6824F001041C601C68C2
:10819000E407FCD4490289085960D8601968EAB933
:1081A00021F04001196019498B421DD018494FF444
:1081B0007410C860196841F01E011960596941F0D6
:1081C00080015961196841F00101196022B90E4A14
:1081D000D36A43F00803D362F0BC704741F040011A
:1081E00019600A498B42E1D14FF0746041F8500C9C
:1081F000E0E744F01A04EC63EC6A44F00804EC6233
:10820000C1E700BF88190120002C014058640240DA
:108210000064024011480023024611780632032907
:1082200016D00133062BF8D10D49CA6D052A0ED0A0
:1082300002EB4203013200EB4303CA65032040F224
:10824000EB3140F2FF32187059809A8070477047C6
:1082500003EB430300EB4303F0E700BFC019012029
:1082600088190120124B30B41D6E6B6A28B943EA9D
:1082700001430020AB6230BC7047AC6A013803EBAD
:1082800014440BD0002303F14002013305EB8202BA
:10829000DBB25268834204EB1244F4D3403044EA28
:1082A000014405EB80004460002030BC704700BFF3
:1082B00088190120037870B42BB30246C0F1010580
:1082C000531912F8014FDBB2002CF9D101335B00D6
:1082D0000E4C03220B8084F8643484F86524017802
:1082E00079B1022300265A1CE518023354FA82F2AF
:1082F00085F86414DBB282F8646410F8011F002969
:10830000F1D170BC70470223E2E700BF8819012059
:10831000826D136A5B681B78FF2B08D090F8F030F1
:10832000013BDBB280F8F0301BB101207047002028
:108330007047126A0220526813707047F0B40F4BF6
:10834000C40800F0070700221E5D03EBD005BE4005
:10835000F6B2C7F1080300278B4228BF0B46C3F1D2
:1083600008049A40C91A46FA04F415F8016F42EA63
:108370000402EED11046F0BC704700BF2C1F012054
:1083800030B5EFF31181802383F312880A4AD2F8C3
:108390005836D2F85C46D2F85806D2F85C56CAB2C3
:1083A00082F31188013BA84294BF4FF40060002083
:1083B0001B1B184430BD00BF88190120012380F821
:1083C00051307047014BD3F860067047881901207F
:1083D00001207047024BC3F86426C3F86816704743
:1083E00088190120024BC3F86C26C3F87016704739
:1083F0008819012070477047212870B505D02228C0
:1084000029D0202810D0002070BD0029FBD0072AD9
:10841000F9D1184B18791C685A799B79087100209A
:108420000C604A718B7170BD0029ECD0072AEAD12B
:108430001148104B0C680E794D79D0F8682689796F
:108440001C601E715D719971002ADCD02146D0F844
:1084500064069047D7E70029D5D0022AD3D1064A2F
:10846000D2F87036002BCED00988D2F86C06984727
:10847000C9E700BF000001208819012000207047D3
:1084800003460A2201481A80704700BF08000120F5
:108490000346642201481A80704700BF140001207F
:1084A000012901D000207047014BD3F890301847C4
:1084B00000000120012901D008F0D0B9014BD3F808
:1084C0008C30184700000120014BD3F88830184742
:1084D0000000012010B40B780A46044603F00303A1
:1084E000012B05D0022B0BD000205DF8044B704708
:1084F0008B8843B9204611465DF8044B0BF05EBFF4
:108500008B88832BF6D0034B5DF8044BD3F8803077
:10851000184700BF0000012038B5054B04460D4642
:10852000DB6F98472946204608F052FF002038BDEF
:108530000000012038B5054B04460D469B6F984757
:108540002946204608F07CFF002038BD00000120AD
:10855000F0B4002452004E1C2746030FB0F1204F08
:108560004FEA001003F1300503F1370334BF0D5516
:108570000B5537550234A242EFD1F0BC704700BF13
:10858000024808B5FFF796FE014808BD4C5D060895
:10859000EC1D0120024808B5FFF78CFE014808BD1C
:1085A0005C5D0608EC1D01200B481A220B4B00688D
:1085B0001B680A80C01801D109487047094B08227E
:1085C000094910B51C68FFF7C3FF0422074920467C
:1085D000FFF7BEFF024810BD107AF01F187AF01F97
:1085E000B0000120147AF01FB2000120C200012067
:1085F000024808B5FFF75EFE014808BD685D060841
:10860000EC1D0120024808B5FFF754FE014808BDE3
:10861000745D0608EC1D0120042301480B8070479F
:10862000CC00012000487047141F0120004870470B
:10863000141F0120034B93F88805032894BF0020E2
:108640000120704788190120034B93F888050328FF
:1086500094BF00200120704788190120034B93F834
:108660008805003818BF0120704700BF8819012015
:10867000034B93F88805003818BF0120704700BFEE
:108680008819012098B182680C4B12B107229A70A8
:10869000704718780421DA6003281A611A750CBF34
:1086A00080224FF480729970C3E901227047034B16
:1086B000012241F2E4715A705A54704790750120BA
:1086C0000378022B0FD0006908B9012070470E4BC8
:1086D0001B78032B12D080B24FF6F773984294BFE9
:1086E000002001207047084941F6500243688A582B
:1086F000B3EB422F2CBF012000207047034B984260
:1087000094BF00200120704790750120F7FFFF0FF4
:1087100030B40378022B13D0104A41F64801436865
:1087200041F63C04555802F5C25100692B400968D6
:10873000023812595B0A01FB003030BC104470470C
:10874000064B41F6300441F6340142681859595835
:1087500000EB410030BC00EB5220704790750120C7
:10876000826D0346126A52681278FF2A0AD190F885
:10877000F020002A02F1FF3214BF0120022083F80A
:10878000F02070470020704738B540F48062074CF5
:108790000B4640F2FF55012100F03F00A563A360A6
:1087A000E2604EF0CFFAA56338BD00BF002C014057
:1087B0002DE9F843884600294FD04718461E284C1B
:1087C000802507F1FF39EFF3118185F31288D4F882
:1087D0005826C9B2D4F85C06D4F85836D4F85CC62A
:1087E00081F31188634594BF4FF400630023121A8C
:1087F0001344012B1AD1012035F026FAEFF3118131
:1088000085F31288D4F85826C9B2D4F85C06D4F897
:108810005836D4F85C7681F31188BB4294BF4FF48C
:1088200000630023121A1344012BE4D0EFF31182EA
:1088300085F31288D4F85C36D2B216F8011F2344AF
:1088400083F87416D4F85C360133C3F30A03C4F812
:108850005C3682F311884E45B5D14046BDE8F883B9
:1088600088190120F8B5002390F8505080F8503056
:10887000CDB10F4941F2E8028A5C032A15D10D4EB1
:1088800000F13C04B76A29462046FFF791FFB36A1E
:108890002D1A0444DB1B322B01D8002DF3D1B5FA7D
:1088A00085F04009F8BD0120FCE71846FAE700BF53
:1088B00088190120802A0120002280F85120D1E768
:1088C00090F85020531C0244DBB280F8503082F8FC
:1088D0003C1090F851200AB1132B00D9C2E7704721
:1088E000F8B5144641F2E803094A0D46D35C032B60
:1088F0000DD1084EB76A002C09DD21462846FFF746
:1089000057FFB36A241A0544DB1B322BF3D9F8BD99
:1089100088190120802A012010B5074C04F2BC50B0
:108920003BF062FA0A2035F083F9D4F8C405BDE8BB
:10893000104038F075B900BF8819012030B5002308
:108940008DB013490825012202938DF814300DF1E2
:108950000704099301F2BC500B9381F854560DEBB8
:1089600005018DF82820CDE907330A4BCDE90342F4
:1089700006933AF0FBFF08483BF036FA9DF80700F3
:10898000A0F1FF00B0FA80F040090DB030BD00BF8B
:108990008819012011830008441F01202DE9F041AE
:1089A00003798AB02B4E002B14BF0122002286F8D7
:1089B000B42504D186F888350AB0BDE8F08106F206
:1089C000BC57044690F9001038463BF0D5F8A4781F
:1089D0009CBB4FF00108204B2048C6F8C4456C46AC
:1089E000C6F8503686F8C8853BF004F903461C4D9E
:1089F0004FF47A70A6F8C03535F026F9D6F8C405DC
:108A000038F00EF90FCD0FC40FCD0FC495E8030059
:108A100084E80300694638463AF0A8FF38463BF040
:108A2000E3F9104B002286F888859B6A86F87C253E
:108A3000C6F878350AB0BDE8F081204637F0DAFE96
:108A4000044608B11E23C3800D21204637F05CFF89
:108A5000BFE700BF88190120EC1E0120801A060024
:108A6000F8D30508802A012070B5952292B040F015
:108A7000400504468DF80920080E0A0C8DF80810F0
:108A8000090A002301AE8DF804508DF80500062573
:108A90000DF103008DF806208DF80710012217490B
:108AA000039604938DF818308DF82C300F931193A2
:108AB00005958DF840200C91CDE90733CDE90D33B4
:108AC000CDE90902FFF73AFF24B180F0010010F070
:108AD000FF0F10D10A4C082303A904F2BC5084F8FC
:108AE00054363AF043FF04F2BC503BF07DF99DF858
:108AF000030012B070BDFF2012B070BD6187000886
:108B00008819012030B500238DB010490546012297
:108B100002938DF814300DF10704099301F2BC5053
:108B20000B9381F8545602A98DF82820CDE907331C
:108B3000074BCDE9034206933AF018FF05483BF096
:108B400053F99DF807000DB030BD00BF8819012012
:108B500061870008441F012070B590B01C4D0024AF
:108B6000FD2201260DF1030301A905F2BC508DF889
:108B700003200693C5F884458DF8104005940794AA
:108B80008DF824400F94039608968DF83860CDE94F
:108B90000144CDE90A44CDE90C443AF0E7FE05F280
:108BA000BC503BF021F93046FFF7ACFFFF2809D05D
:108BB000084A20460923926A85F88835C5F8782541
:108BC00010B070BD0423022085F8883510B070BD48
:108BD00088190120802A012070B5064690B008202F
:108BE0000D46FFF78FFFFF2823D0FE2802D002207A
:108BF00010B070BD00240222012301A90E48089282
:108C00008DF838300296039501948DF81040079442
:108C10008DF824400F94CDE90544CDE90A44CDE90F
:108C20000C443AF0A3FE04483BF0DEF8204610B0B6
:108C300070BD012010B070BD441F01202DE9F84F18
:108C4000484B98420FD003F56853083398424DD0F3
:108C50000023454A1846A2F89430A2F8A030C2E991
:108C60002633BDE8F88F404C022300263F4F04F125
:108C70003005DFF80481E362D7F8D0303146B342E3
:108C800006F1010603D0D4F8B00047F05DFE94F879
:108C9000B4302846D4F8B020414685F82430303529
:108CA00045F8102C48F064F8E36A9E42E4DB0023A8
:108CB00084F8A230E36A0120E16BA28EA56B12FB5F
:108CC00003F201FB03F3B4F84060A4F89420C4F865
:108CD0009C30E28E264BC4F8C010C4F89850A4F81B
:108CE000A060A4F89620C4F89030BAE71E4C022287
:108CF0004FF0000B1D4F04F130054FF4806A4FF028
:108D000040094FF40068E262D7F8D02001265946A6
:108D10005A45B34403D0D4F8B00047F015FE4FF0E5
:108D20000062D4F8B0104FF4003094F8B4C0296257
:108D300085F824C0A5F804A0A5F81090A5F8068031
:108D4000AE74C5E90202FFF765FA28466E7647F071
:108D50005BFFE26A074B934545F8303BD4DB84F870
:108D6000A260A7E71971EF00802A0120000001200E
:108D70004CD4050820D405081940EF0010B50C4666
:108D800047F008FC50B9074B93F8C430012B4FF063
:108D900012030CBF04480548238010BD1223044869
:108DA000238010BD802A0120FC000120E800012062
:108DB000D40001202DE9F8431C4C05468946904615
:108DC00094F888651F46042E08D0082E02D0002093
:108DD000BDE8F883FFF7C0FE0228F8D1D4F8C40537
:108DE00037F0CCFE94F87E35B3B969021120FFF755
:108DF0003BFEB8B90E4A05230120C4F86495926A77
:108E0000C4F86855C4F87085C4F87475C4F878253A
:108E100084F88835BDE8F88329461120FFF724FE41
:108E20000028E7D0FFF778FDD1E700BF88190120BF
:108E3000802A012010B50D4C002394F85626C4F862
:108E4000843512B10A4AC2F8C8304EF087F920B111
:108E50000423022084F8883510BD054A0923926A4C
:108E600084F88835C4F8782510BD00BF8819012022
:108E7000802A012070B50F4D04460E4695F88835BE
:108E8000042B0BD0082B07D1D5F8803583420ED0A8
:108E9000FFF7D0FF022801D0012070BD0823022077
:108EA000C5F88465C5F8804585F8883570BD022011
:108EB00070BD00BF8819012010B509F077FA104C79
:108EC00058B194F88835032B13D894F87C350133C6
:108ED000DBB2072B84F87C3503D9002384F888356E
:108EE00010BD084B01229B6A84F88825C4F87835A8
:108EF00010BD05483AF07EFEA4F8C005E5E700BFC6
:108F000088190120802A0120801A060070B51F4CA4
:108F100006460D4694F88835042B09D0082B25D138
:108F2000D4F8803583422FD0FFF716FE02281DD1DA
:108F3000D4F8C40537F022FE00213720FFF794FD56
:108F400029461720FFF790FDC0B994F87E357BB90C
:108F500071021920FFF788FD80B908230220C4F8A8
:108F60008455C4F8806584F8883570BD012070BDD3
:108F700031461920FFF778FD0028EED0FFF7CCFC32
:108F8000FFF79AFF032070BD022070BD88190120F1
:108F900070B50379234C002B14BF0123002384F800
:108FA000B43503D1002384F8883570BD1E4D0021EF
:108FB000032095F9CF203AF0EBFB0028F2D0466869
:108FC00030463AF011FC84F855060028EAD095F8AE
:108FD000CD303046003B18BF012384F856364DF0A3
:108FE00055FC09F0E3F938B994F87C3584F8880524
:108FF000013384F87C3570BD4EF08AF940B194F8A5
:109000007C350022013384F8882584F87C3570BDD6
:10901000AA6A012384F87C05C4F8782584F8883589
:1090200070BD00BF88190120802A012010B54EF0C4
:109030006FF958B10C4C94F87C350133DBB2072B37
:1090400084F87C3503D9002384F8883510BD09F0F5
:10905000ADF90028F7D0054B01229B6A84F88825DA
:10906000C4F8783510BD00BF88190120802A01207E
:109070002DE9F84F904C94F8B455002D00F0028182
:1090800094F8882502278D4E531E082B3ED8DFE822
:1090900003F03436A73D6649153D05004EF05EF8F5
:1090A000002840F00181D4F87835B26AFA3393424F
:1090B00029D2FFF7BBFF94F88825E5E74EF04EF87C
:1090C0000028F0D0D4F884350022012B84F87C25C8
:1090D00040F2EE80D4F88015013B94F856560131E9
:1090E000C4F88435C4F8801515B1744BC3F8C82092
:1090F0000823054684F8883511E084F888754EF019
:109100002DF800284DD194F88825531EDBB2022B90
:109110003CD9082A18BF042A0CBF0125002528467F
:10912000BDE8F88F236B002B37D1644B0722D4F8AE
:1091300070559B6A84F88825C4F87835002DEED0E8
:10914000D4F874350120D4F86425D4F86815A847FC
:10915000D9E7D4F87835B26A643393421DD2D4F893
:109160002C80B8F1000FF4D14DF0F8FF0028A2D008
:109170000423D4F8705584F87C8584F88835002D54
:1091800000F090804046D4F87435DCE74B4BD4F8BF
:1091900078259B6A9B1AC82B79D800252846BDE8FC
:1091A000F88F4DF06DFC0028ADD196F8D130002B32
:1091B000A3F10203B3FA83F314BF022201225B0975
:1091C00084F87D2584F87E354DF05AFC00287FF424
:1091D00070AFD6F820210323C4F88C2584F8883595
:1091E0004DF04EFC00288ED1344A4FF0040EC4F8E6
:1091F0008405032392F804B1B2F80611D2F80801ED
:1092000084F892B5D2F808714FEA106CD2F8086170
:10921000A4F890153F0CD2F808A1360A92F80C91E8
:1092200092F80D5192F80D01D2F8108125FA0EF541
:10923000B2F816B100F00F00B2F81611B2F816210C
:10924000C1F30B1184F893C502F00F0C84F89475E8
:1092500041EA1B21724684F8956501F00F0184F8FC
:1092600096A584F8979501F5FA6184F89C5584F8E1
:109270009D05C4F89885A4F89E1584F8A0C584F8C7
:1092800088E543E7284684F88855BDE8F88FFFF75E
:10929000CDFE94F88855082D18BF042D0CBF01256C
:1092A00000253CE705463AE7042384F8883536E78D
:1092B000FAD1FFF7BFFD26E788190120802A012097
:1092C0002DE9F8430546884617461E462A4C94F871
:1092D0008805042835D0082807D1D4F88035AB425A
:1092E00006D0FFF739FC0228F1D00120BDE8F88351
:1092F000FC22224BDFF88C90214883F83021C9F8FA
:1093000038813AF063FB002809F588711C4814BFC6
:109310004FF400734FF48073C9F840313AF026FBE4
:10932000012206230020C4F86485C4F86855C4F8F7
:109330007075C4F8746584F86C2584F88835BDE8C8
:10934000F883D4F8C40537F019FC94F87E3553B986
:1093500069021820FFF788FB38B994F88835082B84
:10936000C6D0FE22C5E72946F3E7FFF7D5FAFFF797
:10937000A3FD0320BAE700BF88190120802A01203D
:10938000441F0120000001202DE9F04FD84C95B07A
:1093900094F8B465002E00F0998194F8882504F2C1
:1093A000BC57DFF8508304F2A459531E082B00F277
:1093B000A080DFE813F034005E0029019E008C00DD
:1093C000AF001B009E000900FFF7B8FA002840F02C
:1093D0005782D4F87835D8F82820FA33934280F0B1
:1093E0008580FFF769FD94F88825DEE7FFF7A6FA88
:1093F0000028EED0D4F884350022012B84F87C2597
:1094000040F26382D4F88025013B082106460132F0
:10941000C4F8843584F88815C4F8802552E1D4F85E
:10942000C40537F0ABFB00210846FFF71DFB0546DE
:10943000FFF772FA012D59D14FF0000AD4F8C40594
:1094400084F87DA537F09AFB40F2AB110820FFF7B6
:109450000BFB052800F09081012800F05181FFF7F7
:109460005BFA94F87D35002B00F02B82022384F800
:109470008835D4F8C40537F081FB94F87D35002198
:109480003720022B0CBF4FF080450D46FFF7ECFA5A
:1094900029202946FFF7E8FA0546FFF73DFA2DBBDC
:1094A00094F87D35022B00F0988184F87E55D4F82D
:1094B000C40537F063FB00210920FFF7D5FA002827
:1094C00071D0FFF729FA94F88825531E11E04FF464
:1094D0000071D4F86405FFF77FFB012800F03081AC
:1094E000022800F03581002800F0618194F8882579
:1094F000531EDBB2022B00F2DF807E4BD4F87825BE
:109500009B6A9B1AC82B00F2E7800026304615B0F4
:10951000BDE8F08FD4F8BC3577481D6A3AF056FAAA
:10952000002800F02C81B5FA85F56D09002DDDD0FD
:1095300004A800250DF10F0302224FF0010A05A92E
:10954000059038460792ADF8105006958DF82050DA
:109550008DF8345013958DF848A0CDE90B3ACDE93C
:109560000955CDE90E55CDE910553AF0FFF93846C9
:109570003AF03AFC9DF80F3003F01F03052B00F082
:109580008881FFF799FCD4F870B5BBF1000F00F0AB
:10959000F0802A465046D4F87435D4F86815D84778
:1095A00094F8882501E710214846FFF715FB82460D
:1095B000002886D101217F20FEF7C0FE0128054644
:1095C0007FF47FAF50460221FEF7B8FE002800F07E
:1095D000388101287FF475AF16213A20FEF7AEFEE0
:1095E00001308002C4F88C05FFF796F9D4F8C40561
:1095F00037F0C4FA00210A20FFF736FA002840F0BD
:109600001981032384F88835102105A8FFF7E4FAAF
:1096100000287FF46BAF9DF821309DF822201B01BC
:109620009DF815009DF8165002F00F01DBB245EAD7
:109630000025DDF81D0043EA12139DF81C2000BA36
:1096400084F8A01503F5FA639DF81710C4F898057F
:10965000A4F89E3513099DF8140002F00F0284F857
:109660009C35069BA4F89055C4F8943584F89D2544
:1096700084F8920584F89315FFF74EF994F87E3537
:1096800073B9D4F8C40537F079FA4FF4007110209B
:10969000FFF7EAF90546FFF73FF9002D7FF4A1AE89
:1096A00016483AF0A7FA00220423A4F8C005C4F82B
:1096B00084251A4684F88835082A18BF042A0CBF66
:1096C00001260026304615B0BDE8F08F304684F8FC
:1096D000886515B0BDE8F08FFFF7EEFB94F888655C
:1096E000042E18BF082E0CBF01260026EAE700BF93
:1096F00088190120802A0120441F012040787D0123
:10970000042304AA05A98DF834007848079306922B
:10971000CDF814A08DF820A0CDF838A0CDE909AA85
:10972000CDE90BAA3AF022F970483AF05DFB9DF8BA
:109730001330AB2B7FF493AE022384F87D358EE695
:10974000D4F87835D8F8282064339342BFF4CEAEED
:10975000FFF7E2F8FFF7B0FBD4F870554DB10022E7
:10976000D4F87435D4F868151046A84794F88825BD
:109770001BE694F8882518E684F87D556FE694F882
:109780006C550246D4F864154FF48073384601EBEB
:1097900005213AF00FFB94F86C250132D2B2A2F108
:1097A000020584F86C25B5FA85F56D09BEE60190D1
:1097B000FFF7B2F804230198D4F8705584F87C05BB
:1097C00084F88835002D3FF47DAFD4F87435D4F893
:1097D0006425D4F86815A84788E6D4F8C40537F09E
:1097E000CDF929463A20FFF73FF90DF1100C04227C
:1097F0000123824605A9384605958DF820500E951F
:10980000CDF818C007928DF83430CDE90955CDE96F
:109810000B553AF0ABF838463AF0E6FABAF1000FD9
:1098200008D1FFF779F8049B1BBAC3F3807384F85F
:109830007E353CE6FFF770F8FFF73EFB94F888258D
:10984000B3E504212C20FEF779FD032182464E204A
:10985000FEF774FD83460C213620FEF76FFD0BF1F9
:10986000020B421C05FA0AF502FA0BF2A2FB0501F3
:10987000420A42EAC152C4F88C25FFF74DF8B5E61A
:109880000190FFF749F80423019884F888350646CB
:1098900018E7174B0722D4F870659B6A84F888256F
:1098A000C4F87835002E3FF40DAFD4F87435504627
:1098B000D4F86425D4F86815B04794F88825531E69
:1098C00017E61E4684F88835FCE608D0042384F8A1
:1098D0008835FFF721F894F88825531E09E6FFF72D
:1098E0003BF902287FF402AEEBE500BF441F0120E4
:1098F000802A0120154BDB68C3F3022310B4C3F1A7
:1099000007041A1D042C28BF0424062A4FF0FF3236
:109910008CBF033B0023A240002821EA020101FA88
:1099200003F108DB09010A4BC9B2034483F80013B1
:109930005DF8044B704700F00F000901054BC9B2F8
:10994000034419765DF8044B704700BF00ED00E05A
:1099500000E100E0FCEC00E030B5264C0022264897
:1099600041F28731D4F8743183B0244DA0FB030356
:1099700004F59A70C4F83451DB0C013BC4E9501271
:10998000C4E94E320CF08CFA1D4B062137201A6CBC
:1099900042F020021A641B6C03F020030193019B28
:1099A000FFF7A8FFD4F834314FF400001549164AE8
:1099B0004860D96841F00101D96099680A40062AD7
:1099C00006D0B2F5803F03D01A6842F001021A6057
:1099D0000E4B41F2041200200D499A5803F27464B0
:1099E000C3F87006C2F81002C3F86806C2E9811411
:1099F00003B030BD802A012083DE1B4300140040E9
:109A00000038024000E100E0070001008819012051
:109A1000F82B012038B50F4B0F4AD3F87431A2FB55
:109A200003239B09013BB3F1807F10D20B4A002432
:109A3000F0200B490725536081F8230021469460EC
:109A40004FF0FF301560FFF755FF204638BD01206D
:109A500038BD00BF802A0120D34D621010E000E025
:109A600000ED00E04309012200F01F0084B0013B3B
:109A700002FA00F0032B0BD8DFE803F015021E0CEE
:109A8000124B5A6C02435A645A6C10400090009B6F
:109A900004B070470D4B1A6B02431A631A6B1040E7
:109AA0000390039BF4E7094B5A6B02435A635A6BCA
:109AB00010400290029BEBE7044B1A6C02431A64BD
:109AC0001A6C10400190019BE2E700BF0038024091
:109AD0002DE9F041D0F800E00C46DFF8588084B062
:109AE000DEF804501746DFF850C0194605EA0805AD
:109AF000DDF82880064603932C43424644EA0C0CCA
:109B0000CEF804C009F054F878B931680246039BD6
:109B100030468F624021CDF8008009F079F8003896
:109B200018BF012004B0BDE8F081012004B0BDE8F9
:109B3000F08100BF009800FC00200180F8B5134FB1
:109B400004460D460AE09B69DB0602D508F0F0FFEB
:109B5000D0B9D7F878395B1B0A2B08D823682A4676
:109B60000A2120469E69B606EDD50020F8BD636C3B
:109B70002021002201200B4384F84020636484F8F4
:109B8000411084F84220F8BD0120F8BD802A012050
:109B90002DE9F04788B0884615461F46064639F03D
:109BA0002FFD041E31DB224BDFF890901A19B1888B
:109BB00009EB840492F880A0C4F87C895EB14FF070
:109BC0000042B1FA81F0C24005D01A48046824EA84
:109BD00002040460426103EB870305F0030230686E
:109BE000C5F34114D3F890300026C5F38105D14464
:109BF0001343039103A907960695CDE9043409F0B0
:109C000085F899F8BC39F02B02D808B0BDE8F08788
:109C1000094AF023032112F90A0089F8BC3901909E
:109C2000FFF768FE019808F0D3FB08B0BDE8F087A5
:109C3000F8D30508003C0140DC5D0608802A0120BD
:109C400010B4B8B10D4CD4F8C439102B05D105218E
:109C500000205DF8044B39F0A3BC03EB430222441F
:109C600082F8C919012182F8C8090B4482F8CA197F
:109C7000C4F8C4395DF8044B704700BF802A012046
:109C800020218078DCE700BF2DE9F04FC14C002394
:109C900087B004F6F81894F80C2AC4F8F839C8E923
:109CA0000133C8E903331AB194F80D3A84F8F8394E
:109CB00094F80E3A1BB194F80F3A84F8073A94F8E6
:109CC000123A1BB194F8133A84F8023A94F8103A15
:109CD0001BB194F8113A84F8FD3994F8143A013B19
:109CE0005FB2DBB2019702933B46013300F04F8134
:109CF000A94EB0220023A94802FB076106F52B7A82
:109D0000A0F1280500939C3106F5497953F08AF9B2
:109D10000122009B2E4602FA07FB1F46307890B3C3
:109D20009F494FF0300C03E089452CD011F808CF43
:109D30006045F9D14A7812EA0B0FF5D036F05AFD9A
:109D4000FB1DDBB210B100218371C171032136F01C
:109D5000DBFD30780023302101E01AF8331088420F
:109D600000F0B2810133102BF7D14FF0000C009AB4
:109D70000121072086F801C0531CB270F170DBB2DC
:109D8000307100930B4601370536042FC6D194F885
:109D9000240A01270393FFF765FE4FF44031814EFB
:109DA0000022009BC4F82C1A3046D4F8201AC4F8BC
:109DB000443AC4F8407AC4F8387A84F8587AC4F837
:109DC000302AC4F8502AC4F8542AC4F8342A84F833
:109DD000482AC4F84C2AC4F83C2AC4F8281AFEF7CA
:109DE0000FF9019B002B40F0EF80039B002B00F04C
:109DF000EB80A6F1080050F08FFA012308F1140857
:109E00004FF0000A9B46EA78002A40F0178105359A
:109E10004545F8D1019B02200299234493F91C2A5D
:109E200039F0B6FC0546002800F0B180406839F0F2
:109E3000DBFC0022062139F0E7FC002800F0A780B7
:109E40006868002739F0D0FCDFF874814FF0AEFF6E
:109E5000009B6A68012B4FF40063A8684FF400551B
:109E60008CBF4FF480613946C4F8702A4FF4003239
:109E7000C4F8801A4FF48071C4F8843A0323C4F8FC
:109E8000740A4046C4F8983AC4F8787AC4F87C7AE0
:109E9000C4F8947AC4F89C7AC4F8A07AC4F8885AB2
:109EA000C4F88C1AC4F8902A0BF048FE94F8643A6F
:109EB000C4F8608A012B0597C4F8A86A67D001230B
:109EC000D4F8285A84F8643AAB68DE0713D4D4F87F
:109ED00074313549AA68B3FBF1F342F0010203EB98
:109EE0004303AA600593059B2BB1059B013B05939A
:109EF000059B002BF9D1AB68D80748D5D4F8682A60
:109F00002A4B134043F48073C4F8683A6B685905D0
:109F100007D5D4F8683A23F4405343F48053C4F887
:109F2000683AD4F8683A13F4805300F03881D4F8D2
:109F30006C3A23F00603C4F86C3A1D4800231D490F
:109F40006FF02202C4F8B00A1B4884F8643AC4F8DF
:109F5000AC1A05F14C01C4F8BC0A2A606E68009B7B
:109F600046F08066154A16486E60AE6846F4807604
:109F7000AE600BF057FD134B5A68D20640F0F880E4
:109F8000D4F8283A9A6812F0405F00F0038107B0D5
:109F9000BDE8F08F802A0120F8D30508A034012005
:109FA000A4D60508A834012040420F00FEF8FFFFA8
:109FB000E10C0108E50C0108D10C0108E4010020C6
:109FC000F034012000230140B02200217B484827C3
:109FD00053F09AF8B0220021784853F095F8784B66
:109FE000384684F8D47AC4F8D03AFFF73BFD4FF4F2
:109FF000403000230121D4F8D02AC4F8DC0A71488B
:10A00000C4F8F01AC4F8E81A84F8081BC4F8E03A57
:10A01000C4F8003BC4F8043BC4F8E43AC4F8F43A8A
:10A0200084F8F83AC4F8FC3AC4F8EC3AC4F8D82AF0
:10A03000FDF7E6FF614850F06FF9DEE694F8640A38
:10A040005A1C69780128D2B22F79CDF810A039D0E6
:10A05000092984F864BA52D94FF0030E6FF01D003D
:10A06000D4F828CA4FF007091EFB0100DCF80CE009
:10A0700009FA00F907FA00F02EEA0907CCF80C708B
:10A08000DCF80C703843CCF80C00062B4FF00500C0
:10A0900020D86FF0040710FB0373D4F8287A1F2030
:10A0A00000FA03FC786B01FA03F320EA0C007863F2
:10A0B000786B03437B63D4F8283A4148834234D019
:10A0C00084F864AA1346A2E63F4A02EBC30393F85E
:10A0D000B0C24CE60C2B32D86FF0220710FB037392
:10A0E000D4F8280A1F2707FA03FC076B01FA03F3C9
:10A0F00027EA0C070763076B3B430363DBE7D4F8EE
:10A10000280A01EB41094FF0070ED0F810C007FAFA
:10A1100009F70EFA09FE2CEA0E0CC0F810C0D0F8B0
:10A1200010C047EA0C070761AFE712291AD01129BE
:10A13000C6D126494B6843F400034B60C0E76FF07B
:10A14000400710FB0373D4F8280A1F2707FA03FC03
:10A15000C76A01FA03F327EA0C07C762C76A3B43E1
:10A16000C362A8E719494B6843F480034B60A7E733
:10A17000D4F8282A12498A4214D05B68DB063FF5DE
:10A1800006AF134B9A427FF402AF9A6812F0405F19
:10A190007FF4FDAE9A6842F080429A60F7E6C4F818
:10A1A0006C3ACAE6936813F0405F03D1936843F0BA
:10A1B00080439360054B5B68E9E600BF50350120A2
:10A1C0000020014058350120F8D305080023014044
:10A1D000002201402DE9F041D0F800E00C46DFF804
:10A1E000588084B0DEF804501746DFF850C0194696
:10A1F00005EA0805DDF82880064603932C4342460D
:10A2000044EA0C0CCEF804C008F0D2FC78B93168EE
:10A210000246039B30468F628021CDF8008008F013
:10A22000F7FC003818BF012004B0BDE8F081012020
:10A2300004B0BDE8F08100BF009800FC002001815F
:10A24000034690F83C00012800F03E810220F0B463
:10A25000012483F83D0083F83C40142A45D8DFE808
:10A2600012F04D004400440044007B0044004400D0
:10A270004400DA00440044004400AA0044004400C2
:10A280004400060144004400440015001A688E682A
:10A29000156A0F6825F48015AB4C1562106A556875
:10A2A00020F40010D2F854C040EA0650A74E0CEA41
:10A2B0000404B24244EA072400F0088106F58066EF
:10A2C000B24200F003814E6855605465D665106255
:10A2D000506D0C6940F400605065506D20F4806052
:10A2E0005065516D41EA042151650022012110465B
:10A2F00083F83D1083F83C20F0BC70471A68D1F811
:10A3000008C0156A0F6825F00105914C1562106AA6
:10A310005668956920F002002C408C4D40EA0C00F4
:10A32000AA4244EA070400F0DD8005F58065AA42F0
:10A3300000F0D8804D685660946155631062906952
:10A340000C6940F008009061906920F00400906171
:10A35000916921439161C8E71A68D1F808C0156A6C
:10A360000F6825F010057B4C1562106A56689569D8
:10A3700020F020002C40754D40EA0C10AA4244EA1F
:10A38000072400F0C38005F58065AA4200F0BE8076
:10A390004D68566094619563106290690C6940F451
:10A3A00000609061906920F480609061916941EA59
:10A3B0000421916199E71A688E68156A0F6825F47F
:10A3C0008055644C1562106A556820F40050D2F82C
:10A3D0001CC040EA06305D4E0CEA0404B24244EA76
:10A3E000072400F08D8006F58066B24200F0888078
:10A3F0004E685560D46116641062D0690C6940F4EF
:10A400000060D061D06920F48060D061D16941EAF8
:10A410000421D16169E71A68D1F808C0156A0F688C
:10A4200025F480754A4C1562106A5668D56920F487
:10A4300000702C40454D40EA0C20AA4244EA070433
:10A4400073D005F58065AA426FD04D685660D4611F
:10A45000D5631062D0690C6940F00800D061D06902
:10A4600020F00400D061D1692143D1613DE71A6831
:10A470008E68156A0F6825F48035374C1562106AAE
:10A48000556820F40030D2F854C040EA06402F4E00
:10A490000CEA0404B24244EA07041DD006F58066C3
:10A4A000B24219D04E685560546596651062506D81
:10A4B0000C6940F008005065506D20F004005065B4
:10A4C000516D2143516510E70220704725F4802526
:10A4D0004E6945EA8625F6E625F480354E6945EA5B
:10A4E0000625DFE726F4407C20F008008E69CF685F
:10A4F0004D693843354320F0040045EA0C0619E75E
:10A5000025F480454E6945EA861571E726F4406CCE
:10A5100020F080008E69CF684D6940EA071035430E
:10A5200020F040004CEA850632E726F4405C20F437
:10A5300000608E69CF684D6940EA0720354320F4FA
:10A5400080604CEA051680E7FF8FFFFE00000140A7
:10A550008CFFFEFFFF8CFFFE8FFFFEFFF8B53D4E28
:10A5600096F8804B04EB4403670006EBC30393F8B3
:10A57000843B032B44D8DFE803F0461B0F023C4426
:10A5800006EBC404D4F8883B002B58D0013B0025CF
:10A59000C4F8883B2846F8BD3B1906EBC303D3F843
:10A5A000882B7AB1013A0025C3F8882B2846F8BDDC
:10A5B0003B1906EBC303D3F8882B002AF2D1022201
:10A5C00083F8842B3C4406EBC40494F8903B013B95
:10A5D000DBB284F8903B4BBB0323D4F88C0B84F89C
:10A5E000843B52F0E5FEC4F8880B064652F0BCFEF0
:10A5F00080F00100002E0CBF002500F0010525BBF6
:10A6000001252846F8BD3AF0D5FE05460028F7D0CA
:10A610003C44012342F2107006EBC40484F8843BEE
:10A6200052F0C6FEC4F8880B2846F8BD01254FF449
:10A630007A7052F0BDFEC4F8880B2846F8BD52F07F
:10A640009FFE80F00100C5B2B0E7013EC4F8886B00
:10A65000ACE700BF802A012003689B0AA3F58013A2
:10A66000522B00D970470E4A134470B593F82C430F
:10A6700084B00D2C12D800294FF0000309494FF087
:10A68000010514BF1E460226427901EB841069467B
:10A69000CDE90065CDE902330BF002FB04B070BDDB
:10A6A000F8D305086436012033492DE9F84F91F8B5
:10A6B000D1101C46012507460229DFF8C4A0104628
:10A6C00019464FF00002DFF8BC9018BF7F02CAF8AD
:10A6D0002C50FDF73FFD294A630240F2FF5BC9F8A9
:10A6E00024204FF40075C9F828304FF48A62D9F855
:10A6F0002C30012110205E4643F09303C9F82C3022
:10A70000C9F838B0C9F808504D46C9F80C204CF0CB
:10A7100019FB012CC9F838B04FF00A048CBF4FF078
:10A7200052084FF051084FF0000939464046FEF7F5
:10A730002BF8013C034640F2774201213720E4B276
:10A7400023B91846CAF82830BDE8F88FAE63C5F8BB
:10A750000890EA604CF0F6FAAE63034608B1002CAC
:10A76000E3D1002BEDD000221846CAF82C20CAF8FD
:10A770002830BDE8F88F00BF802A012000E1F505F0
:10A7800088190120002C01402DE9F843DFF874807E
:10A7900004460F46914698F888551E46042D08D069
:10A7A000082D02D00020BDE8F883FEF743FB022805
:10A7B000F8D101233A4620460021FFF775FF68B122
:10A7C000FEF734FCD8F87045002CEBD00022D8F806
:10A7D0007435D8F868151046A047E3E7084A052302
:10A7E0000120C8F86475926AC8F86845C8F8709581
:10A7F000C8F87465C8F8782588F88835BDE8F88306
:10A80000802A0120881901202A492DE9F04F91F86A
:10A81000D1100124DFF8A8B00746022983B0CBF895
:10A8200030409A4618BF4702012B4FF00A04224DD0
:10A8300040F2FF568CBF4FF059084FF058084FF0C8
:10A840000009009239464046FDF79EFF013C034651
:10A8500040F2774201213720E4B2BBB9009851465B
:10A8600001220193154CFDF775FC13494FEA4A226A
:10A870000020019B4C628A62CA6A42F09102CA625D
:10A88000CBF82800184603B0BDE8F08FAE63C5F8DA
:10A890000890EA604CF056FAAE63034608B1002C0B
:10A8A000D0D1002BDAD000221846CBF8302003B0EC
:10A8B000BDE8F08F802A0120002C014000E1F50561
:10A8C000881901202DE9F84F05460E4690461F468F
:10A8D000394C94F8880504280CD0082807D1D4F8FE
:10A8E0008035AB4206D0FEF7A5FA0228F1D0012050
:10A8F000BDE8F88FDFF8C8A0C4F86465DAF8C8903E
:10A90000C4F86855C9F34F234FEA59220F2B2BD8AF
:10A91000D4F884B5BBF1000F26D094F8561619B3BD
:10A92000B9F5005F41D025484FF4007231464844E4
:10A9300052F078FB09F50072C2F34F23CAF8C82021
:10A94000520A102B31D0BBF1010F2ED0D4F8802544
:10A950000BF1FF33042102200132C4F8843584F85E
:10A960008815C4F88025C3E701234FF00109284664
:10A97000062532460021C4F87085C4F8747584F841
:10A980006C9584F88855FFF73FFF0028B0D0FEF79C
:10A990004DFBD4F870556DB14846D4F87435D4F8F1
:10A9A00068150022A8470320A2E792B2034E013A9D
:10A9B000AD1ADAE703209BE78819012090550120A2
:10A9C000802A012070B50D4C1346D4F8A45F2A7874
:10A9D000022A07D00A46014604F6A470BDE870407A
:10A9E0003AF062B82A6A0AB1002070BD0A460146F0
:10A9F00004F6A47039F05EF9012070BD802A0120B0
:10AA000003681878012801D00020704793F90430BA
:10AA1000074A03EB430302EB431313F8332C202ABA
:10AA2000F3D153F8743C9869C0F3C030704700BF4D
:10AA3000783B0120036801221B78022B01D03AF0F9
:10AA40005DBA39F08FB910B50B4CD4F8A43F1B7820
:10AA5000022B10D1D4F8AC0F36F0E2F8D4F8AC0FDA
:10AA600008B12123C380012135F04EFF034839F09E
:10AA7000C1F8A4F8A80F10BD802A01208096980084
:10AA800038B505460A460C460648294639F042F9CB
:10AA900045F08001034839F0C1F8231A5842584163
:10AAA00038BD00BF243A012030B5044683B00123ED
:10AAB0000D460DF107020848214639F0F5FF9DF8D3
:10AAC000072035EA020304D02A43214602483AF01F
:10AAD000C9FA03B030BD00BF243A012013B53A4C87
:10AAE0000023D4F804218DF80730137803F0FD011A
:10AAF000012905D194F8081111B90C2184F8081125
:10AB0000022B1ED0032B2ED001220B212F484BF0FD
:10AB100093FD042033F098F801230DF10702002182
:10AB20002A484BF0ABFD002839D09DF80730482B60
:10AB300035D1274BC4F8F830264BC4F8FC3002B0AE
:10AB400010BDD4F80C0136F06BF8D4F80C0108B144
:10AB50003523C380012135F0D7FE1F4839F04AF86C
:10AB6000A4F80801D0E7D4F8B43546F2A81150682B
:10AB7000122219610023372180F888304BF02FFD15
:10AB8000D4F804310D22242158684BF028FDD4F864
:10AB9000043130226A2158684BF021FDB4E7D4F823
:10ABA00004311A78022A03D0032A07D00020C6E70E
:10ABB000D4F80C0138F0BAFE0020C0E7102237218B
:10ABC00058684BF00CFDF1E7783B01207C3C0120FC
:10ABD000DB6605085D67050880969800F8B55E4C51
:10ABE00000234FF4F07206460F4604F63810202179
:10ABF00084F8343984F8353952F086FA4FF4F0721B
:10AC0000202104F6183052F07FFA322033F01CF87D
:10AC100094F8F93C002B00F0948094F8FA1C04F6A8
:10AC2000FC4038F0A9FF002800F08B8094F8F90C64
:10AC300035F0E0FD0546C4F8040D35F0A7FE002808
:10AC40007FD00DB12323EB800D21284635F05CFE2B
:10AC5000D4F8040D35F0E4FF404838F0CBFF03464C
:10AC6000FF213F48A4F8003D39F086F88C213C488C
:10AC700038F0D4FF1B2867D10122D4F8043D84F8B2
:10AC800034290BB12322DA8040220A21344839F0DA
:10AC900041F88A21324838F0C1FF94F8F83CC0F3FB
:10ACA000801584F8945D002B44D0022B3BD12D48B5
:10ACB00038F0A0FF0346A4F8960D94F8982D182AB2
:10ACC00011D1294A2949D2F87421A4F89C7D52084F
:10ACD000A4F89E5DA4F8A03DB2FBF3F2A1FB021222
:10ACE000520BA4F8A22D1E4802220021A4F8003D18
:10ACF00039F010F8C8201A4D32F09AFF802128460A
:10AD000038F08CFF10F00200F8D17278B378317807
:10AD1000C2F12002C3F1100384F8A52D84F8A63DEA
:10AD200084F8A41DF8BD124838F064FF0346A4F867
:10AD3000960DC2E7094838F05DFF0346A4F8960D6A
:10AD4000BBE76FF00100F8BDD4F8040D202135F009
:10AD5000DBFD4FF0FF30F8BD783B0120404B4C004D
:10AD600074480120002D3101802A01205917B7D1E4
:10AD7000809698000146014838F050BF20490120D4
:10AD800030B40023314D32494CF25034C5F8583EAE
:10AD9000304AD1F8780904E0D1F878391B1AA34277
:10ADA0000FD8D368DB03F7D4D16811F4F9710BD154
:10ADB000D06810F0010002D001230846D36030BCF7
:10ADC0007047032030BC7047D3689B0705D5D5F882
:10ADD000583E43F02003C5F8583E1E4BDB68DC06A6
:10ADE00005D5D5F8583E43F01003C5F8583E194B29
:10ADF000DB68980605D5D5F8583E43F00803C5F83A
:10AE0000583E144BDB68590605D5D5F8583E43F03B
:10AE10000403C5F8583E0F4BDB681A0605D5D5F874
:10AE2000583E43F00203C5F8583E0A4BDB68DB0589
:10AE300005D5D5F8583E43F04003C5F8583E054BBC
:10AE40004FF4F9720120DA6030BC7047783B012082
:10AE5000802A0120003C0240014488420ED0034673
:10AE6000074810B4074C13F8012B04FB00F099427B
:10AE700080EA0200F7D15DF8044B70470048704744
:10AE8000C59D1C8193010001094B93F85E3E042B84
:10AE900008D9053B032B08D801231A4600B10370DB
:10AEA0001046704700230122F8E700231A46F5E711
:10AEB000783B01202DE9F04FDFF8DC81DFF8DC91F1
:10AEC000D8ED037A08F5B06399F8802EF8EE677A2A
:10AED0002DED028BC3ED007A83B0002A4ED1614E76
:10AEE000C8F8882598F88C153278D9B1B9F8863E1B
:10AEF0000024DFED5D5A07EE103ADFED5C6A5C4B33
:10AF0000B8EE477A67EEA66A03EBC10085EE876A62
:10AF100036EE266A86EE867A1C60083303ED017AE7
:10AF20009842F9D199F87E3E9FED525A06EE103ABA
:10AF300096F8583B9FED507A1A44B8EEC66A27EE51
:10AF4000877ADFED4E6A12FB01F14D4AC5EE065AD3
:10AF5000C9B207EE901AF8EEE77AE7EE876AF7EEE5
:10AF6000667AFCEEE77AC2ED005A17EE903A88F85E
:10AF7000DC3603B0BDEC028BBDE8F08FFCEEE77A67
:10AF80009FED404A99F8811EB9F8843EF8EE674A71
:10AF900006EE101A002107EE103A324EB8EE466A5D
:10AFA000C4EE245A0191B9F8821E01239FED365A4E
:10AFB00006EE901AC6ED057A98F88C15B8EEC77AA9
:10AFC0009FED328AF8EE666AC8F88865327067EEDF
:10AFD000057A86ED016A88F88435C6ED036AC6ED08
:10AFE000047AC6ED025A89B3294B4FF0000B019940
:10AFF00003EB010A12B3AAF118045746002507EE25
:10B00000905A01223846B0EE481AB8EEE70AD6ED5B
:10B01000017AD6ED040A15447169283720EE270A13
:10B02000283452F0D9F984ED028A84ED018A84ED46
:10B03000048A84ED038A32789542E0DB0BF1010B40
:10B0400098F88C150AF1780A8B45D3DB019B03F540
:10B050007073B3F5346F0193C5D10E4BD3ED007A05
:10B0600043E700BFD034002083F9223EBD37863548
:10B07000004A0120555555406E12833A48E1FA3E88
:10B08000BC0800200060EA480AD7233C000000000A
:10B09000E834002064070020E4010020783B012010
:10B0A00007EE900ADFEDAF5AAF4B0022B8EE677A99
:10B0B000DFEDAE4AB3F8C81E85EE874A06EE101AD9
:10B0C000B3F8CC1EDFEDAA5A07EE901AB3F8CA1EE9
:10B0D000B8EE466A06EE901AF8EEE77AF8EEE66AFF
:10B0E00036EE065A67EEA47A2DE9F04FC6FE856A61
:10B0F000A04D2DED048BB4EEE54A05F5DC6993F81F
:10B10000CE4E85B0C5F83007F1EE10FA89ED016A30
:10B11000C5F8EC46C5F8F026C9ED026AC9ED007A1B
:10B1200002D51446C5F8EC26F6EE004A9FED925A79
:10B13000F7EE003A914927EE055A9FED912A64EE09
:10B14000247A0B46F0EE002A9FED8E3A143381EDFF
:10B15000045A87EEA67A01F5A677039301F12C062F
:10B1600091ED055A884A12F8542C87FE237ABDEED9
:10B17000C77AF8EEC77A17EE103A012BC5F88C396A
:10B18000C4EE275AB8BF0123029383EEA74A65EEA7
:10B19000825A86EE257AA1EC014AC1ED005AC6EE2C
:10B1A000A57A37EE247A87FE227ABDEEC77A77EE4B
:10B1B000A47A17EE101AC7FEC37AFDEEE77A01F102
:10B1C000FF38C5F8981917EE901AB8F1230F01F15E
:10B1D0000100A8BF4FF02308C5F89C192328834617
:10B1E00028EAE878A8BF4FF0230B5B468045C8BF2C
:10B1F00043460093A3EB0803019362BB624B934663
:10B20000DFED629AA3F1500A9FED619A07EE90BAC2
:10B210000BF1010B0AF1080AF8EEE78A68EEA98A39
:10B22000B0EE680A44F052FFB0EE408AB0EE680A11
:10B2300045F06AF9B0EE680A45F066F928EE098A29
:10B2400020EE090ABBF1240F0AED028A0AED010A79
:10B25000DCD19FED505A019A00234F489446029A40
:10B260009FED4E7A9CFBF2FA0AF10101A2461446C8
:10B270008E460099324646F80C1C46E9053846E9E8
:10B2800002E4A2EC017A9742FBD13A4606F5107B24
:10B29000D0EDE07AD0F884C3C2ED007A083242F8EB
:10B2A00004CC5A45F8D106F515763D4A07F51577D1
:10B2B0009642DFD1039BB6EE008A5446012283ED0D
:10B2C000005A4FF0000A374B4FF0000800932E4B06
:10B2D00003F8542C002C35DD09EB0A06DDF800B02C
:10B2E000002707EE907AD9ED016A99ED027A06EE11
:10B2F000104AF8EEE77A012237EE667AD5F8301771
:10B30000B8EEC66A06F1540077EE887A1744B7EEB5
:10B31000001A283667EE877A87EE860A30EE260A0C
:10B32000ABEC010AD9ED000A52F056F8D5F8EC461C
:10B33000C6F84480BC42C6F84080C6F84C80C6F8C7
:10B340004880CEDC009B0AF1C80A1433BAF5167F98
:10B35000009302D0D5F8EC46BCE705B0BDEC048BF9
:10B36000BDE8F08F00247449783B01200AD7233CC4
:10B370000000FA44E40100209C534937740B00207C
:10B38000398E633C00000C42DC120020C3B8B23D91
:10B3900072F97F3FBC297E3FF8D30508000000000A
:10B3A0009C120020D808002008480023024611788B
:10B3B0000632022904D00133062BF8D10020704751
:10B3C00003EB430300EB4300704700BFC0190120AB
:10B3D0000021094B00B5084683B0C3F8D01E2AF0FF
:10B3E00053F80422054B06200DEB020101932AF0CD
:10B3F0003FF803B05DF804FB783B01205475C52A83
:10B4000070B5461E00F13105344614F8011F601E68
:10B41000FF29A0EB060002D0C0B22AF035F8AC42FA
:10B42000F3D1A02040F2E93446F050F80121022087
:10B430002AF02AF801E0013C04D04220FFF79AFCF0
:10B440000028F8D16220FFF795FC132124202AF070
:10B450001BF8252009212AF017F8A020BDE870402C
:10B4600046F034B830B54CF205028DB000230446E6
:10B470000321ADF8002001AD01228DF802300B93BD
:10B480008DF814208DF82820CDF808D0CDE90633AA
:10B49000CDE90833CDE9035138F0A6FC204602A9D6
:10B4A00038F064FA204638F09FFC9DF806000DB095
:10B4B00030BD00BF2DE9F043734E83B0734C24229E
:10B4C000002106F1380051F01FFE002394F8D55EEC
:10B4D000F365002D37D16E4FD7F8903043B39B6A98
:10B4E00033B36C489847836813B3038800246A4FCA
:10B4F000013BBC4639469BB20878063103281BD075
:10B500000134062CF8D1002239780637022900F0E0
:10B510009D800132062AF7D1F16D052908D002FB82
:10B5200001C20131F1650220002193801070518029
:10B53000284603B0BDE8F083062303FB0464638F51
:10B54000013B9BB2DFE704F6DC6794F8D40EC4F845
:10B55000D87E10B900254E4FBEE735F04BF9C4F840
:10B56000E40E35F013FA0028F4D02946384638F0B6
:10B5700003FB05460028EDD0D4F8D83E454A98682C
:10B58000C3F8942008B12023C3800D21404F35F02B
:10B59000BBF9D4F8D83E4FF00109986835F040FB6C
:10B5A0003E4838F027FBD4F8D83E024632209A8035
:10B5B000C7F8B03087F8B49032F046FB04234FF060
:10B5C000000C9F21D4F8D80E0DEB0302CDF804C077
:10B5D00038F070FB9DF805809DF8043007F190006D
:10B5E0004FEA08289DF8061048EA034848EA01088F
:10B5F000414645F0BDFB00287FF46EAF4046FDF7A5
:10B600001DFB034600287FF467AF9DF806009DF8F8
:10B61000052000029DF8071040EA0240204A084336
:10B62000904217D0A7F89430A7F8A030C7E9263386
:10B63000FDF704FB034600287FF44EAF94F8D40EC8
:10B640001D4635F0D7F838F071F945E7062101FBC2
:10B6500002C268E7134B4FF400314FF0006287F8E5
:10B66000A290C7F894304023C7E92612A7F8A0306B
:10B67000FCF7D0FD07F1900087F8A99045F0C4FAD7
:10B68000094BC7F8903027E788190120783B012043
:10B69000802A0120102B0120C0190120404B4C00B2
:10B6A00021AAEF000004000820D405082DE9F04F7E
:10B6B0000423BE4C402141F21C1504F6746704F1CA
:10B6C00060064FF0A042636661670023022194F890
:10B6D0001D048BB0C4F8607466512266C4F89030C3
:10B6E0002367C4F88C30C4F88430A167E166C4E9EC
:10B6F0001F33002800F0628103211F46164684F89C
:10B700001D14936823F001039360F368304643F0FF
:10B710004003F36006F06AFEB36B012F054643F465
:10B720008033B36317D005B3022384F81D34A04BD4
:10B7300093F8C450012D00F0FD80236E802101207C
:10B7400059625A6A42F480029A62FCF78BFD00202B
:10B750000BB0BDE8F08FB36843F00603B360B36885
:10B7600043F02003B360002DDED1236E3220DA686F
:10B7700022F0C042DA60DA6842F08042DA6009F012
:10B78000CBFB606E50B32A4601272946C2EBC203A9
:10B79000561C04EB830383F89C20A3F8A220F2B28A
:10B7A00083F89D70824283F89F10C3F8B010C3E9FC
:10B7B0002911EBD300221146C2EBC203561C04EB45
:10B7C000830383F85C22F2B283F85D12824283F82D
:10B7D0005F12C3F87012C3E99911EDD30022236EF2
:10B7E000D4F86CC01646D4F87080D4F88CE0D4E954
:10B7F0001E71019102F14001013203EB81010F2A18
:10B800004E60F7D19A6BBEF1000F40F0438122F4F5
:10B8100000129A631A6842F040021A601A6842F0F5
:10B8200080021A600022012F03F50066C3F8002E83
:10B83000D3F80028C3F80028D3F8002800F02181AD
:10B84000032F00F01E8142F00302C3F800284FF4DA
:10B850008461584A196102E0013A00F032811969A5
:10B860008F06F9D41021534A196102E0013A00F021
:10B8700026811969C906F9D4002131617161F1612C
:10B88000E0B103F510624FF0904A4FF0006B0F46A5
:10B890004FF67F399C4607E0176001311761C2F807
:10B8A00008902032814261D01368002BF4DA11B184
:10B8B000C2F800A0F1E7C2F800B0EEE73269B8F1D3
:10B8C000010F22F48072326100F0ED8000216FF0F0
:10B8D000804299615A61B8F1000F03D19A6942F030
:10B8E00010029A619969344A0A439A61019A1AB11D
:10B8F0009A6942F008029A61BEF1010F00F0CE8011
:10B90000002D7FF411AF0121D4F8842084F89850E1
:10B910008A4284F81D1400F0D6807368032043F037
:10B920000203736009F0F8FA214B93F8C450012D1B
:10B930007FF403AF44F02EFE00287FF4FEAE236EAA
:10B940008022284640215A625A6A42F400129A62C2
:10B95000FCF788FC20210220FCF784FC4021032016
:10B96000FCF780FC00200BB0BDE8F08F002163469F
:10B970000CF530624FF0904A4FF0006B0F464FF6D7
:10B980007F39844607E0176001311761C2F80890DB
:10B990002032614592D010680028F4DA11B1C2F863
:10B9A00000A0F1E7C2F800B0EEE700BF881901205F
:10B9B000802A0120400D030000383C8000F0FF0584
:10B9C0004C4B03204FF4C05684F81C541A6B42F0C1
:10B9D00001021A630A221B6B069105A903F00103F9
:10B9E000089045480493049B07950596099207F033
:10B9F0008DF9D4F88C30012B72D03E4B06214320B8
:10BA00005A6B42F080025A635A6B02F08002029233
:10BA1000029A5A6C42F480425A645B6C03F480438D
:10BA20000393039BFDF766FF266E0323334A082129
:10BA3000916084F81D34A26FB368012A276F23F048
:10BA40000103B3607FF461AEB26B2D4B22F4803200
:10BA5000D4F89410B2630129F26803EA0203F36098
:10BA6000F36823F44013F36003D1F36843F48013C5
:10BA7000F360304606F0BAFC012F05467FF453AE62
:10BA800069E6BCF1000F3FF4E0AE42F00102C3F8FA
:10BA90000028DCE642F400129A63C3E69969194A69
:10BAA0000A439A612CE718490020184A31636FF065
:10BAB0008041376B3A4332639861596112E701253F
:10BAC000DAE60125CEE684F854549969C4F85C247A
:10BAD00041F000610E4A9961596D0A435A651CE7AD
:10BAE0004FF4007305A904480593CDE9065507F006
:10BAF0000DF982E7003802400000024000E100E05A
:10BB0000BFFFBDFF040000400001800003000100F2
:10BB10000300001010B51A4C94F8750FC0B9194BFA
:10BB200083F8B505C3F8B80594F8783F012B05D024
:10BB3000022B21D0D4F87C3F1BB910BD124BC4F8A6
:10BB40007C3F12495B68A1F10C00BDE8104018472A
:10BB500034F050FE94F8772F0A49003AC1F8B8053E
:10BB600018BF012281F8B5250028DDD01F22202131
:10BB7000C28034F0C9FED7E7054BC4F87C3FE0E74C
:10BB8000783B01208819012084010120F84A012016
:10BB90006001012099B10A6B824216D9154BD3F886
:10BBA000C42F914221D34C3991421ED30B6B984242
:10BBB000F9D38B6B9842F6D80B46184670470D4B5D
:10BBC000D3F8C41F0A6B904212D30B680BB9F4E789
:10BBD0000A6B90420B4602D38A6B9042EDD951F822
:10BBE0004C3F002BF4D1184670470023184670478D
:10BBF0000A46D8E7783B01202DE9F047CC0143D134
:10BC0000034622494FF0FF32022443F8081B7E26E8
:10BC100042601846DFF878802644051D6FF07047B3
:10BC2000D8F8C89F4FF0010A013E494608E0A342F8
:10BC30001CD0631C45F8043C321B1C460435CAB1B9
:10BC40000B6BA34202D88B6BA34204D22046FFF7B2
:10BC5000A1FF014690B10A794B6B002AE7D1A342BC
:10BC600004D0E6D2631C45F8042CE5E7631C45F8D4
:10BC7000047CE1E7C8F8C81FBDE8F087321B631CED
:10BC8000494645F804ACD8E78026C3E7F8FFFF0F24
:10BC9000783B01200A44914219D0013910B4541E56
:10BCA00011F8012F0823504002E0013BD0B209D027
:10BCB00010F0800F4FEA4002F7D082F0D500013B30
:10BCC000C0B2F5D1A142EBD15DF8044B704770478B
:10BCD000194A00232DE9F04702F6DC7484B00546CA
:10BCE00092F9D58F1F46461804F5287A4FF0B60909
:10BCF000D4F800C0204600226946E034BCF1000FB1
:10BD000014D09CF838C0BCF1140F0FD018F1020FFA
:10BD100001D0C4450AD1CDE90277CDE90056ADF88E
:10BD200008908DF80D702AF0F9FA0346A245DFD18C
:10BD3000184604B0BDE8F087783B01202DE9F047B4
:10BD40009AB004460D4617469846DDF89090DDE916
:10BD5000226A02E0206831F0E9FF206831F0EEFF4E
:10BD60000028F7D10146642201A851F0CDF9264BF5
:10BD70008DF80450CDF85CA00293002D3FD0AB1E8F
:10BD8000012B3ED9042D14BF002303231F4A8DF835
:10BD900005300123926A039616448DF85B30CDE995
:10BDA0000594049637B14246394607A851F03AF94E
:10BDB0008DF85A80164E002396F8C6911893B9F163
:10BDC000000F19D196F8C501642201A902FB006099
:10BDD00000F5E47051F026F9012386F8C59186F844
:10BDE000C631236843B143463A46294620461AB035
:10BDF000BDE8F04717F098B81AB0BDE8F087052302
:10BE0000C4E70223C2E700BFF44D0120802A0120CD
:10BE1000704C01200C480D4BD0F8481210B48A1E0B
:10BE20000B4C2231C0F83832B0F866321B01A4FB4B
:10BE300003C3DB08A3F5B06322F8023F9142F3D1BC
:10BE40005DF8044B704700BF704C01207170020810
:10BE5000CDCCCCCC70B5084C251D2E4614F8010B6A
:10BE60002AF030FC28B10378B44205F8013BF5D143
:10BE700070BDFF23F8E700BFFC4E01202DE9F0471D
:10BE80001C4F01264FF03C094FF0000807F1080550
:10BE9000B24617F8010B34F0ADFC044690B180F8BF
:10BEA0000690C671FB7803F07F02012A17D013F0C9
:10BEB000800F20460CD185F8048034F05FFE85F8B1
:10BEC00005802C6001360835052EE2D1BDE8F087EB
:10BED00085F804A034F0A4FE85F805A0F1E71B0660
:10BEE00005D40121204634F00FFDFB78DFE734F064
:10BEF00097FEF6E7044F01202DE9F047204E82B06F
:10BF000000244FF00409DFF87C8006F10C05A6F54B
:10BF1000307716F801AB5046BAF1000F2CD034F050
:10BF200069FC0134034604215046E4B26B6113B14D
:10BF300083F80690DC71224631F01AFC0221824619
:10BF4000D0B168699AF8082034F0A6FCB7F8BE3280
:10BF5000B7F8BCC2002051460A4A01902846CDF8E5
:10BF600000C01835B8FBF3F39BB229F0A7FA012300
:10BF7000082C05F8073CCCD102B0BDE8F08700BF23
:10BF8000304F012040420F002DE9F041204C0023AA
:10BF90004FF0050894F8932304F5647704F565756C
:10BFA00084F88C2317F8010B5E1C20BB2860032E3D
:10BFB00005F104053346F5D194F88C13D4F89403B5
:10BFC000C94301F0010134F089FE94F88C13D4F8D0
:10BFD000980381F00201C1F3400134F07FFE94F830
:10BFE0008C13D4F89C0381F00401BDE8F041C1F347
:10BFF000800134F073BE34F0FDFB0121F3B2286000
:10C0000010B180F80680C371286834F07DFCCEE75B
:10C01000704C0120F0B5294C83B0B4F8A453A4F8B7
:10C02000A653EDB994F8A00334F0E4FB94F8A123EF
:10C03000C4F8A803003A18BF012284F8AC2348B121
:10C0400094F8A2132B220029C28014BF11210121D0
:10C0500034F05AFC002003B0BDE8F04034F046BE96
:10C0600094F8A07300222B21384631F081FB06465C
:10C07000384634F0BFFB00B10EB903B0F0BD2B223F
:10C08000C4F8C40302210027C280327A34F004FCD1
:10C090000B4AA4F8C853314604F56C700197B2FB03
:10C0A000F5F3C3F34F059BB2009529F007FAD4F8D6
:10C0B000B0331F6084F8C173DFE700BF704C01200C
:10C0C00040420F002DE9F84F264B002693F8D42369
:10C0D00003F2CB3703F57A7483F8CA235FFA86FB41
:10C0E0004FF0010917F8010F01360BEB090A494619
:10C0F0004FF000085FFA8AFA524631F039FB0546E4
:10C1000048B3387804F80E8C04F80D8C04F80FBC92
:10C1100004F8109C44F8045C34F06CFB022118B164
:10C1200080F8069080F807A02A7A34F0B5FB0E4A12
:10C13000002128464CF0CEF90C4B221D21462360ED
:10C1400028460B4BC4E901384CF090F84246697917
:10C15000286829F001F9082E04F11C04BED1BDE8BD
:10C16000F88F00BF704C012040420F000D540308AF
:10C1700049FC020870B52C4C00222C4B022194F88B
:10C180000005C4F8F834C4F8B824C4F8BC24C4F8D2
:10C19000C024C4F8F424A4F8FC2431F0E9FA0028FF
:10C1A00041D0234B0546026803F1C000597C11B110
:10C1B00059688A422CD018338342F7D1002394F86F
:10C1C0000005C4F8E45384F8D83334F013FB08B105
:10C1D0000223C38000262A7A022134F05DFB314617
:10C1E0002846144A4CF076F9134B144A2846C4F8F2
:10C1F000E833134B111FC4F8F063C4F8EC334CF070
:10C2000035F8324669792868BDE8704029F0A4B84D
:10C21000926A0C4801320C49D0F87431B3FBF2F346
:10C2200081F8A831CAE770BD704C012000FFFF0003
:10C23000AC13002040420F0071FC02085C5001204A
:10C240000DFE0208802A0120000001202DE9F04F98
:10C25000DFF878B180460B46DFF874A10BF1D0000F
:10C26000C02200212DED068B97B0CDE9023850F0A9
:10C270004BFF9AF80185B8F1000F00F095829AF80B
:10C2800002350893002B00F0CE82DFF8489199F830
:10C290006C3E012B00F0ED82022B00F0E5820BF5E5
:10C2A000FC73444D99F8626E1C460F930FCD0FC47A
:10C2B0000FCD0FC4311E404A99F85E3E18BF0121D0
:10C2C000CBF81022072B8BF8301295E8070084E892
:10C2D000070000F25D83042B0ED999F8613E374ABE
:10C2E000012BCBF8382205D09A1E53425341002E21
:10C2F00018BF00238BF83C320023DFF8DCA0039347
:10C300002F4B04932F4B0593DDE90232934240F308
:10C31000B081059B032113F8015B059309EB05032D
:10C32000013593F8636EEDB230462A4631F020FABB
:10C330000446002800F02283304634F05BFA049B68
:10C34000586110B10323C571837199F85E2E99F875
:10C350005F3EE77906920BB187F00107204637F080
:10C36000DBF90346002800F006839BF83C22079285
:10C37000002A40F01883D0F80480B8F1000F00F0D4
:10C38000FD829B6840460B9337F02EFA2A46032124
:10C390000A9037F039FA002800F0F0829BF84062EA
:10C3A00025680948CAF89480002E00F027830023EE
:10C3B000024617E0D0D80508D58E0508F1410408DB
:10C3C000AC130020E649012020150020DC120020DB
:10C3D000704C0120783B0120A02600200133B3429D
:10C3E00000F00C831168B8328D42F7D1DEB2B82369
:10C3F0009BF84022039906FB0303013A8AF81110C7
:10C40000CAF898302079099234F0F4F907F0010164
:10C410009BF8303201310BB187F001074901CAF8AE
:10C42000084041F00E01CAF81410227A34F034FAB0
:10C43000099B9E4200F01E84069B063B0C93002342
:10C4400060220AF16401CAF8803008EE101ACAF8B6
:10C450006420CAE91A33CAE91C33CAE91E3317F04B
:10C4600002034FEA47070D9300F0E082012307F033
:10C470000207CAF86C30CAF87870002702234FF41C
:10C4800080310A22CAF87070CAF88420CAF8903045
:10C49000CAE9221763790C2B00F2BE82CB4A9BF8C3
:10C4A0003C1202EB8302D2F83074CAF854700029AF
:10C4B00000F0F982DAF89830C3F8A880CAF89480BE
:10C4C000079B002B00F073830AF118000E9006F012
:10C4D000B7FD9BF83C320E98002B00F08E83BC49D0
:10C4E0004FF4907322684FF0030C03FB0613DAF845
:10C4F00098104C32C1F8B030CAF81C300B9BCAF807
:10C500001820CAF83C30CAF848C0069B40214FF4B6
:10C51000806C082B4FF00403CAF820104FF48051B0
:10C52000CAF844304FF000030CBF06221222CAE9B9
:10C530001333CAE909334FF40033CAF838204FF4F3
:10C540008042CAF84030079BCAF83420CAE90BC1C0
:10C55000002B00F040839DF83030CAF89480022B05
:10C5600000F25582994A9B4902EB8303069AD3F85D
:10C570002434082AB1FBF3F308BF5F2203F123033D
:10C5800018BF1322CAF85C30DAF8983050469A8007
:10C590004CF010FC9BF83C32002B00F02782079BEC
:10C5A000002B00F0238218EE102A3946284606F0A8
:10C5B000DDF8012F00F0EC82042F00F05383102FE0
:10C5C00000F08682402F00F0AD83B7F5807F00F049
:10C5D000B783B7F5806F00F0BB83B7F5805F00F0DD
:10C5E000BF83B7F5803F00F0C3836A6D05F1180083
:10C5F000082342F400626A6577490422DFF800C22A
:10C60000C95C1CF803C00B5802FA0CF223EA0203BF
:10C610000B502B6843F001032B600D9B002B00F0A7
:10C62000B3822B6A43EA87072F62099B9E420BD194
:10C630006B6C43F400436B642B6843F080032B6006
:10C640002B6843F001032B609BF83032002B40F045
:10C65000A782039A012304990AF1A00A01320AF879
:10C66000913C4B7401F11803082A039204937FF460
:10C670004BAE0F9B89E1DFED598A594AB0EE688ACB
:10C68000584BCBF8AC210022CBF8A831564BCDF853
:10C690001080039238EE887ADFED547AF5EE006A66
:10C6A000534C28EE278ADFF85CA1B0EE67AA00277A
:10C6B000C6EE879A9FED4F9ACBF8B431CDF814802F
:10C6C000029BBB426DD01AF8015B032109EB050305
:10C6D000013593F8638EEDB240462A4631F048F8B2
:10C6E0000646002800F0B782404634F083F86061C7
:10C6F00010B10323C5718371327A022134F0CCF872
:10C70000049B002B00F0EE81B9F85C3E4FF6FF7100
:10C7100007EE903A384BF8EEE77AD3F87421FCEE46
:10C72000E77A17EE903AB2FBF3F00144090CB2FB42
:10C73000F1F2B2FBF3F399F85E1E042900F0E481F4
:10C7400007EE902AF8EE676A26EE887A69EE477A55
:10C7500099F85F0E03999BB201902046E6EEA87A05
:10C760000091314684ED027AC4ED037A28F0A6FEEA
:10C77000002F40F3B58161681D4B02E09C4200F040
:10C78000AF815A6818338A42F8D1059B013783F08C
:10C79000010301221834082F04F8083C04F8072C80
:10C7A0008ED1164ECBF82C62DBF82C3263B300220C
:10C7B0000121029883F82D1083F82C001A6383F866
:10C7C0002E2017B0BDEC068BBDE8F08FF8D305081E
:10C7D000E01A002000D0121318D90508000000004C
:10C7E0001D03030885C4030879C403086F12833A44
:10C7F000AC13002000007A44802A01206C14002031
:10C800000CD90508E6490120C54DC64C0FCD0FC413
:10C810000FCD0FC495E80700A4F1200384E80700BA
:10C82000CBF82C32CDE7C04D0BF5C874DFF854932C
:10C830000FCD0FC40FCD0FC495E8070099F85E3EE9
:10C8400099F8606E84E80700042B00F23C8101A295
:10C8500052F823F071CA0008C7CA000867CA000866
:10C8600045CA000877C6000899F85E3E082B00F01C
:10C870000281029B0026AD4DCBF83432AC4C99F8C6
:10C880005E7E8AF804658AF83C750FCD0FC40FCD23
:10C890000FC499F8623EA4F58A729B1B049295E836
:10C8A000070018BF0123354684E8070031464FF4DE
:10C8B0004C72A0488BF8303250F026FC9E4BDDF8CD
:10C8C00010809E4E0393CDF810900AE034F056F994
:10C8D000F368082D06F1200608F1180848F8043C12
:10C8E0005DD0DBF83432AB4259DD039A12F8013BDC
:10C8F0000392049A134493F8637E384630F0C0FFE5
:10C900000446384633F076FF049A8146E77992F878
:10C910005F2E0AB187F0010707F001049BF830226F
:10C9200001348AF803450AB187F00107484634F01C
:10C930002DF8002800F084814846013536F060FE6D
:10C94000C6F80C9061017060EAB2377441F00101E1
:10C950007161B9F1000F05D04FF0030389F807208A
:10C9600089F80630484633F0CFFFF9074846ADD482
:10C9700034F056F9ACE79BF83C32A3B97049002378
:10C98000704ACBF81412CBF81C22CBF82C320BE7F0
:10C99000082B7FF4B1AC6C4BCBF83832ACE4644874
:10C9A000CBF82C0200E7D4F81480B8F1000FE5D0E2
:10C9B000A36940460B9336F017FF644B2422451EB3
:10C9C0000A9002FB053595F8C831392B00F02C810F
:10C9D00020684BF0EDFD024639210A98D2B236F0BC
:10C9E00013FF0028CAD000230793D7E40A989022A7
:10C9F0009AF8113056494DF0B3F9D4E5B823721CBA
:10CA000003FB06B38BF84022C3F84452EFE48D23B6
:10CA10001322CAF85C30B7E59BF83C32CAF8547070
:10CA2000002B7FF447AD1F461A4641E001224FF428
:10CA3000807307F00207CAF86820CAF87C30CAF889
:10CA400074701AE59FED438ADFED438A002E3D4A5C
:10CA5000424B16BF414600211346414A04914149C9
:10CA6000CBE96A2116E69FED408AF0EE488AEDE7B1
:10CA7000DFED3E8A01E60BF5FC733D4D99F8626EE1
:10CA80001C460F93003E0FCD0FC40FCD18BF0126DB
:10CA90000FC4384B8BF83062CBF8103295E80700A2
:10CAA00084E8070077E7344A02EB4303B3F86424D1
:10CAB000DAF89810AAF80C20B1F8B43023EA02038F
:10CAC000A1F8B430FCE49FED2D8AF0EE488ABDE772
:10CAD000AA6905F11800022342F40062AA618BE5FD
:10CAE000002353E6FAFE697AFCEEE77A244B17EE50
:10CAF000901AD3F874214FF6FF73B2FBF1F1194489
:10CB0000090CB2FBF1F216E607EE903AB8EE677A3E
:10CB100007EE902AF8EE676A27EE0A7A16E600BF5B
:10CB200078D805087851012080D70508A4D80508D1
:10CB3000A0140020A02B0020E6490120D02E0020C8
:10CB400081C4030879C40308BD4104080000012022
:10CB50009D370000ACC5A737ACC5A73679FE0208E3
:10CB600085C403081D030308282930386F12833A4F
:10CB7000D0D80508D58E0508F8D305086F120339FB
:10CB8000802A0120783B01202B6A1F432F624CE54D
:10CB9000AA6905F11800002342F00802AA612BE5FA
:10CBA00023684FF6FF7162793433995051E5D8F814
:10CBB00000205FFA88F3182128F0FF0022F001021C
:10CBC000103BC8F80020B3FBF1F106F091FA0A9887
:10CBD0004DF0ECF878E45FFA88F31821024628F06B
:10CBE000FF00103BB3FBF1F106F03CFAD8F800303F
:10CBF00043F01003C8F80030ADE40B9A5821DFF879
:10CC0000A4C1CAF83C20039A01FB02C12268CAF8F9
:10CC10004830CAF89C1002F13403CAF81C1062793B
:10CC20001344CAF8183070E420684BF0C1FC95F842
:10CC3000C93183427FF4CCAE089B0793FFF7AEBBAC
:10CC40004F4B01224F498AF80425CBE977314E4BEF
:10CC5000CBF8E831A4E64D4A4B4BCBF8AC21CBF8EE
:10CC6000B4319FE5AA6905F11800012342F00802DA
:10CC7000AA61C1E400224FF0FF311346ADF8442011
:10CC8000129214928DF854201391414A52F8332095
:10CC900095424FD001330E2BF7D10020069B9A1FEF
:10CCA0000C92FCF7DFFE2B683A499DF8302023F008
:10CCB0000103D1ED5D7A022A2B60F8EE677A24D861
:10CCC0003549DFED366A01EB820202F2244292ED31
:10CCD000007AB8EE477A87EE870A30EE260A4EF0E1
:10CCE0002FFF069B0138082BADF8440014BF132218
:10CCF0005F22002311A92846139214938DF8543013
:10CD0000129305F099FEFFF79ABB9FED257A9FEDF0
:10CD1000230AA7EE870A4EF013FF01381322ADF85D
:10CD20004400E6E7AA6905F11800032342F008026F
:10CD3000AA6161E4184A02EBC30393F8B803ADE7B4
:10CD4000EA6905F11800042342F00802EA6153E49D
:10CD5000EA6905F11800052342F00802EA614BE494
:10CD6000EA6905F11800062342F40062EA6143E42F
:10CD70006A6D05F11800072342F008026A653BE47A
:10CD800085C4030881C4030879C4030885FF020829
:10CD9000ACD70508802A0120F8D305080AD7233C20
:10CDA000FCF4B234E023002070B5524E96F86002D5
:10CDB00033F020FD96F8615260B12D230446202106
:10CDC000C38033F0A1FD0A2030F032FF204636F058
:10CDD0000DFC18B9D6F84035DA0000D570BD013D1C
:10CDE000092DFBD896F85F42CCB940202BF07CFA95
:10CDF0000028F3D090F9043096F83112092BC8BFFF
:10CE0000143B0A29334493F8444566D093F85035CF
:10CE100096F85E22002A08BF1C46002CDED0204671
:10CE200033F0E8FC054608B12D23C38001212846D4
:10CE300033F06AFD0121084633F09AFF01212846AC
:10CE400033F04CFF3C2030F0FFFE0021012033F096
:10CE50008FFF96F861321BB300240021013408468D
:10CE600033F086FF0021022033F082FF00212846A4
:10CE700033F034FF782030F0DBFE0121002033F066
:10CE800077FF0121022033F073FF0121284633F0A0
:10CE900025FF782030F0CCFE96F861329C42DCDB36
:10CEA00096F85F328BB9D6F8603203F0FF13B3F512
:10CEB000803F93D1D6F8403513F080538ED186F859
:10CEC0006132BDE8704043F049BA322030F0BCFE18
:10CED0002846002133F018FDE5E7D6F868355B05F4
:10CEE0007FF57CAF0EF088FC00287FF477AF002C34
:10CEF00095D173E7704C012030B40438043A0C1F0C
:10CF000001F1080554F8043F52F8041FAC42A3EBAA
:10CF1000010340F8043FF5D130BC704738B5041E1A
:10CF20000D4611DB092C1FDC0846134B0021134A68
:10CF3000A3FB04C34170DB0803EB8303A4EB4303AF
:10CF4000D35C0370284638BD64422D230846092C63
:10CF500000F8013BE9D9084B01460A22A3FB043043
:10CF6000C00842F075F9E0E703480A22A0FB04304C
:10CF7000C00842F06DF9D8E7CDCCCCCC8C5D06086A
